{
  "transactions": [
    {
      "hash": "0x6b6d48c81ac35d42e3b4c9ef404cdab8461c04a43aca96d25ba50e7faa98e931",
      "transactionType": "CREATE2",
      "contractName": "StablePair",
      "contractAddress": "0x3b66afe4f14d8fcad40210ab263466efa03c8088",
      "function": null,
      "arguments": [
        "0x8C4BcBE6b9eF47855f97E675296FA3F6fafa5F1A"
      ],
      "transaction": {
        "from": "0x14137c968b4bcb48b2a244dcbb80c237a7af91b5",
        "to": "0x4e59b44847b379578588920ca78fbf26c0b4956c",
        "gas": "0x151fc4",
        "value": "0x0",
        "input": "0x00000000000000000000000000000000000000000000000000000000000088d460a0604052346102a957604051601f61122d38819003918201601f19168301916001600160401b038311848410176102ad578084926020946040528339810103126102a957516001600160a01b03811681036102a9576080525f6101a06100646102c1565b8281528260208201528260408201528260608201528260808201528260a08201528260c08201528260e0820152826101008201528261012082015282610140820152826101608201528261018082015201525f6101a06100c26102c1565b8281528260208201528260408201528260608201528260808201528260a0820152600160c08201528260e0820152826101008201528261012082015260016101408201528261016082015282610180820152015261200030161580159061029c575b801561028f575b8015610282575b8015610275575b8015610268575b8015610258575b801561024c575b8015610240575b8015610234575b8015610224575b8015610218575b801561020c575b8015610200575b6101ed57600380546001600160a01b0319908116730dcc19657007713483a5ca76e6a7bbe5f56ea37d17909155600a5f55670de0b6b3a76400006001556002805490911633179055604051610f4b90816102e282396080518181816101a101528181610230015281816106340152610ce20152f35b630732d7b560e51b5f523060045260245ffd5b50600130161515610178565b50600230161515610171565b5060043016151561016a565b5060083016151560011415610163565b5060103016151561015c565b50602030161515610155565b5060403016151561014e565b5060803016151560011415610147565b5061010030161515610140565b5061020030161515610139565b5061040030161515610132565b506108003016151561012b565b5061100030161515610124565b5f80fd5b634e487b7160e01b5f52604160045260245ffd5b604051906101c082016001600160401b038111838210176102ad5760405256fe60806040526004361015610011575f80fd5b5f803560e01c806321d0ee7014610805578063259982e51461080557806332f929fc146107dd57806349b1d9ba14610791578063544172fa14610776578063575e24b4146106f35780636c2bbe7e146105fd5780636fe7e6eb146106ab57806391dd7346146106025780639f063efc146105fd578063a81a2677146105cb578063a9b518ab14610522578063b47b2fb1146104be578063b6a8b0fa1461012a578063c4e833ce14610355578063cd8efff7146101d0578063dc4c90d31461018b578063dc98354e1461014c578063e18585521461012f578063e1b4af691461012a5763fee9a5af14610101575f80fd5b3461012757602036600319011261012757602061011f600435610e2c565b604051908152f35b80fd5b610956565b50346101275760a03660031901126101275750602061011f610ddb565b50346101275760e03660031901126101275761016661080a565b5060a03660231901126101275760049061017e610930565b50630a85dc2960e01b8152fd5b50346101275780600319360112610127576040517f00000000000000000000000000000000000000000000000000000000000000006001600160a01b03168152602090f35b50346101275760a03660031901126101275760a06101ef366004610b22565b20604051602081019182526006604082015260408152610210606082610b01565b519020604051631e2eaeaf60e01b815260048101919091526020816024817f00000000000000000000000000000000000000000000000000000000000000006001600160a01b03165afa90811561034a578291610312575b50602091906102829060601c6001600160401b0316610bc6565b9061028c82610bb1565b905060ff60025460a01c165f146102f857506102c7906102b860a06102b2366004610b22565b20610e2c565b906001600160a01b03166109a8565b7ff347ee99503bf19c028bd6b18f3c676e82a9bb5b2bb5225aebe0fd62fd6a0d1982604051838152a1604051908152f35b61030d91506102b860a06102b2366004610b22565b6102c7565b90506020813d602011610342575b8161032d60209383610b01565b8101031261033e5751610282610268565b5080fd5b3d9150610320565b6040513d84823e3d90fd5b5034610127578060031936011261012757806101c0916101a060405161037a81610ad1565b8281528260208201528260408201528260608201528260808201528260a08201528260c08201528260e082015282610100820152826101208201528261014082015282610160820152826101808201520152604051906103d982610ad1565b808252602082019181835260408101828152606082018381526080830184815260a0840185815260c085016001815260e0860190878252610100870192888452610120880194898652610140890196600188526101608a01988b8a526101a06101808c019b8d8d52019b808d5260206040519e8f92835251151591015251151560408d015251151560608c015251151560808b015251151560a08a015251151560c089015251151560e08801525115156101008701525115156101208601525115156101408501525115156101608401525115156101808301525115156101a0820152f35b503461012757610160366003190112610127576104d961080a565b5060a03660231901126101275760603660c319011261012757610144356001600160401b03811161033e579061051460049236908401610834565b5050630a85dc2960e01b8152fd5b50346105c75760403660031901126105c7576024356001600160a01b038116908190036105c7576003546001600160a01b0316803b156105c7575f809160246040518094819363c529a67960e01b83528760048401525af180156105bc576105a7575b506004803583526020526040822080546001600160a01b031916909117905580f35b6105b49192505f90610b01565b5f905f610585565b6040513d5f823e3d90fd5b5f80fd5b346105c75760203660031901126105c7576004355f526004602052602060018060a01b0360405f205416604051908152f35b6108d2565b346105c75760203660031901126105c7576004356001600160401b0381116105c757610632903690600401610834565b7f00000000000000000000000000000000000000000000000000000000000000006001600160a01b0316330361069c57610670604091602093610e97565b815192839181835280519182918282860152018484015e5f828201840152601f01601f19168101030190f35b63570c108560e11b5f5260045ffd5b346105c7576101003660031901126105c7576106c561080a565b5060a03660231901126105c7576106da610930565b506106e3610946565b50630a85dc2960e01b5f5260045ffd5b346105c7576101403660031901126105c75761070d61080a565b5060a03660231901126105c75760603660c31901126105c757610124356001600160401b0381116105c757610746903690600401610834565b5050606062ffffff610756610a7e565b906040939293519363ffffffff60e01b1684526020840152166040820152f35b346105c75760a03660031901126105c757602061011f6109ed565b346105c75760203660031901126105c7576004358015158091036105c75760025460ff8160a81c166105c75761ffff60a01b191660a09190911b60ff60a01b1617600160a81b17600255005b346105c7575f3660031901126105c7576003546040516001600160a01b039091168152602090f35b610861565b600435906001600160a01b03821682036105c757565b35906001600160a01b03821682036105c757565b9181601f840112156105c7578235916001600160401b0383116105c757602083818601950101116105c757565b346105c7576101603660031901126105c7576004356001600160a01b03811681036105c7575060a03660231901126105c75760803660c31901126105c757610144356001600160401b0381116105c7576108bf903690600401610834565b5050630a85dc2960e01b5f908152600490fd5b346105c7576101a03660031901126105c7576004356001600160a01b03811681036105c7575060a03660231901126105c75760803660c31901126105c757610184356001600160401b0381116105c7576108bf903690600401610834565b60c435906001600160a01b03821682036105c757565b60e435908160020b82036105c757565b346105c7576101203660031901126105c7576004356001600160a01b03811681036105c7575060a03660231901126105c757610104356001600160401b0381116105c7576108bf903690600401610834565b818102929181159184041417156109bb57565b634e487b7160e01b5f52601160045260245ffd5b81156109d9570490565b634e487b7160e01b5f52601260045260245ffd5b6109f76004610c95565b6001549081811015610a6f576064810290808204606414901517156109bb57610a2b91610a23916109cf565b5f54906109a8565b60328110610a4f575060325b61271081029080820461271014901517156109bb5790565b6064036064811115610a3757634e487b7160e01b5f52601160045260245ffd5b50505f90565b6109f790610c95565b5f60e43512156105c75760c43580151581036105c75715610ac757610aa36024610e23565b6101f481018091116109bb576315d7892d60e21b915f9162ffffff16624000001790565b610aa36024610a75565b6101c081019081106001600160401b03821117610aed57604052565b634e487b7160e01b5f52604160045260245ffd5b90601f801991011681019081106001600160401b03821117610aed57604052565b91908260a09103126105c75760405160a081018181106001600160401b03821117610aed576040528092610b5581610820565b8252610b6360208201610820565b6020830152604081013562ffffff811681036105c75760408301526060810135908160020b82036105c757606083019190915260800135906001600160a01b03821682036105c75760800152565b6001600160a01b031680156109d95760010490565b5f908015610a6f578080600114610c8d57600214610c865760016101338210166001600b83101617610c6f579060019060025b60018111610c2c57506001600160a01b038390048211610c1857500290565b634e487b7160e01b81526011600452602490fd5b926001600160a01b038190048111610c5b5760018416610c52575b80029260011c610bf9565b80920291610c47565b634e487b7160e01b82526011600452602482fd5b6002900a91906001600160a01b038311610c185750565b5050600490565b505050600190565b60a0610ca13683610b22565b20604051602081019182526006604082015260408152610cc2606082610b01565b519020604051631e2eaeaf60e01b815260048101919091526020816024817f00000000000000000000000000000000000000000000000000000000000000006001600160a01b03165afa9081156105bc575f91610da2575b50610d309060601c6001600160401b0316610bc6565b610d3981610bb1565b60025460a01c60ff1615610d8857506102b860a06102b2610d5b943690610b22565b7ff347ee99503bf19c028bd6b18f3c676e82a9bb5b2bb5225aebe0fd62fd6a0d196020604051838152a190565b90506102b860a06102b2610d9d943690610b22565b610d5b565b90506020813d602011610dd3575b81610dbd60209383610b01565b810103126105c757516001600160401b03610d1a565b3d9150610db0565b610de56004610c95565b60015480821115610a6f576064820291808304606414901517156109bb57610e0c916109cf565b60631981019081116109bb575f54610a2b916109a8565b610de590610c95565b5f5260046020526004602060018060a01b0360405f205416604051928380926315f789a960e21b82525afa9081156105bc575f91610e68575090565b90506020813d602011610e8f575b81610e8360209383610b01565b810103126105c7575190565b3d9150610e76565b5f9182918160405192839283378101838152039082305af1903d15610f0d573d916001600160401b038311610aed5760405192610ede601f8201601f191660200185610b01565b83523d5f602085013e5b610f0b5750805115610efc57602081519101fd5b6314815f4760e31b5f5260045ffd5b565b606091610ee856fea264697066735822122062fc15b139b743541ea96719168dae3985295e516acee825a72662501ec021ea64736f6c634300081a00330000000000000000000000008c4bcbe6b9ef47855f97e675296fa3f6fafa5f1a",
        "nonce": "0xf1",
        "chainId": "0xaa36a7"
      },
      "additionalContracts": [],
      "isFixedGasLimit": false
    },
    {
      "hash": "0x42f49c9de179b8899960ce690dfdd97a26b113583bcf76d7fe6f9d377c67cfb0",
      "transactionType": "CREATE",
      "contractName": "Stablecoin",
      "contractAddress": "0x64fd57525346daa1b32651b69acb1781ada451cd",
      "function": null,
      "arguments": null,
      "transaction": {
        "from": "0x14137c968b4bcb48b2a244dcbb80c237a7af91b5",
        "gas": "0xbc182",
        "value": "0x0",
        "input": "0x60806040523461033957604080519081016001600160401b0381118282101761024c5760409081526009825268556e69737461626c6560b81b602083015280519081016001600160401b0381118282101761024c576040526004815263155554d160e21b602082015281516001600160401b03811161024c57600354600181811c9116801561032f575b602082101461022e57601f81116102cc575b50602092601f821160011461026b57928192935f92610260575b50508160011b915f199060031b1c1916176003555b80516001600160401b03811161024c57600454600181811c91168015610242575b602082101461022e57601f81116101cb575b50602091601f821160011461016b579181925f92610160575b50508160011b915f199060031b1c1916176004555b600580546001600160a01b0319167394a9d9ac8a22534e3faca9f4e7f2e2cf85d5e4c817905560405161084c908161033e8239f35b015190505f80610116565b601f1982169260045f52805f20915f5b8581106101b35750836001951061019b575b505050811b0160045561012b565b01515f1960f88460031b161c191690555f808061018d565b9192602060018192868501518155019401920161017b565b60045f527f8a35acfbc15ff81a39ae7d344fd709f28e8600b4aa8c65c6b64bfe7fe36bd19b601f830160051c81019160208410610224575b601f0160051c01905b81811061021957506100fd565b5f815560010161020c565b9091508190610203565b634e487b7160e01b5f52602260045260245ffd5b90607f16906100eb565b634e487b7160e01b5f52604160045260245ffd5b015190505f806100b5565b601f1982169360035f52805f20915f5b8681106102b4575083600195961061029c575b505050811b016003556100ca565b01515f1960f88460031b161c191690555f808061028e565b9192602060018192868501518155019401920161027b565b60035f527fc2575a0e9e593c00f959f8c92f12db2869c3395a3b0502d05e2516446f71f85b601f830160051c81019160208410610325575b601f0160051c01905b81811061031a575061009b565b5f815560010161030d565b9091508190610304565b90607f1690610089565b5f80fdfe6080806040526004361015610012575f80fd5b5f3560e01c90816306fdde031461062357508063095ea7b3146105a157806318160ddd1461058457806323b872dd146104a4578063313ce567146104895780633e413bee1461046157806370a082311461042a57806395d89b4114610326578063a9059cbb146102f5578063dd62ed3e146102a5578063de0e9a3e146101ae5763ea598cb0146100a0575f80fd5b346101aa5760203660031901126101aa576004355f602060018060a01b03600554166064604051809481936323b872dd60e01b83523360048401523060248401528760448401525af1801561019f57610172575b50331561015f5760025481810180911161014b57600255335f525f60205260405f208181540190556040519081525f7fddf252ad1be2c89b69c2b068fc378daa952ba7f163c4a11628f55a4df523b3ef60203393a3005b634e487b7160e01b5f52601160045260245ffd5b63ec442f0560e01b5f525f60045260245ffd5b6101939060203d602011610198575b61018b8183610731565b810190610767565b6100f4565b503d610181565b6040513d5f823e3d90fd5b5f80fd5b346101aa5760203660031901126101aa57600435331561029257335f525f60205260405f205481811061027957815f926020923385528484520360408420558060025403600255826040518281527fddf252ad1be2c89b69c2b068fc378daa952ba7f163c4a11628f55a4df523b3ef843392a360055460405163a9059cbb60e01b815233600482015260248101929092529092839160449183916001600160a01b03165af1801561019f5761025f57005b6102779060203d6020116101985761018b8183610731565b005b63391434e360e21b5f523360045260245260445260645ffd5b634b637e8f60e11b5f525f60045260245ffd5b346101aa5760403660031901126101aa576102be610705565b6102c661071b565b6001600160a01b039182165f908152600160209081526040808320949093168252928352819020549051908152f35b346101aa5760403660031901126101aa5761031b610311610705565b602435903361077f565b602060405160018152f35b346101aa575f3660031901126101aa576040515f6004548060011c90600181168015610420575b60208310811461040c578285529081156103e8575060011461038a575b6103868361037a81850382610731565b604051918291826106db565b0390f35b91905060045f527f8a35acfbc15ff81a39ae7d344fd709f28e8600b4aa8c65c6b64bfe7fe36bd19b915f905b8082106103ce5750909150810160200161037a61036a565b9192600181602092548385880101520191019092916103b6565b60ff191660208086019190915291151560051b8401909101915061037a905061036a565b634e487b7160e01b5f52602260045260245ffd5b91607f169161034d565b346101aa5760203660031901126101aa576001600160a01b0361044b610705565b165f525f602052602060405f2054604051908152f35b346101aa575f3660031901126101aa576005546040516001600160a01b039091168152602090f35b346101aa575f3660031901126101aa57602060405160128152f35b346101aa5760603660031901126101aa576104bd610705565b6104c561071b565b6001600160a01b0382165f818152600160208181526040808420338552909152909120549193604435939290918101610504575b5061031b935061077f565b8381106105695784156105565733156105435761031b945f52600160205260405f2060018060a01b0333165f526020528360405f2091039055846104f9565b634a1406b160e11b5f525f60045260245ffd5b63e602df0560e01b5f525f60045260245ffd5b8390637dc7a0d960e11b5f523360045260245260445260645ffd5b346101aa575f3660031901126101aa576020600254604051908152f35b346101aa5760403660031901126101aa576105ba610705565b602435903315610556576001600160a01b031690811561054357335f52600160205260405f20825f526020528060405f20556040519081527f8c5be1e5ebec7d5bd14f71427d1e84f3dd0314c0f7b2291e5b200ac8c7c3b92560203392a3602060405160018152f35b346101aa575f3660031901126101aa575f6003548060011c906001811680156106d1575b60208310811461040c578285529081156103e85750600114610673576103868361037a81850382610731565b91905060035f527fc2575a0e9e593c00f959f8c92f12db2869c3395a3b0502d05e2516446f71f85b915f905b8082106106b75750909150810160200161037a61036a565b91926001816020925483858801015201910190929161069f565b91607f1691610647565b602060409281835280519182918282860152018484015e5f828201840152601f01601f1916010190565b600435906001600160a01b03821682036101aa57565b602435906001600160a01b03821682036101aa57565b90601f8019910116810190811067ffffffffffffffff82111761075357604052565b634e487b7160e01b5f52604160045260245ffd5b908160209103126101aa575180151581036101aa5790565b6001600160a01b0316908115610292576001600160a01b031691821561015f57815f525f60205260405f20548181106107fd57817fddf252ad1be2c89b69c2b068fc378daa952ba7f163c4a11628f55a4df523b3ef92602092855f525f84520360405f2055845f525f825260405f20818154019055604051908152a3565b8263391434e360e21b5f5260045260245260445260645ffdfea264697066735822122063fb9514a3127635121085d7ceaf923bfd2743523bf79d94381312fa045c7e4464736f6c634300081a0033",
        "nonce": "0xf2",
        "chainId": "0xaa36a7"
      },
      "additionalContracts": [],
      "isFixedGasLimit": false
    },
    {
      "hash": "0xc9ad249a911048f0b9bee4b409649f9bb25f0e2aea37ead16772ea21d62ef39c",
      "transactionType": "CALL",
      "contractName": null,
      "contractAddress": "0x94a9d9ac8a22534e3faca9f4e7f2e2cf85d5e4c8",
      "function": "approve(address,uint256)",
      "arguments": [
        "0x64FD57525346daa1B32651b69ACB1781ada451Cd",
        "10000000000"
      ],
      "transaction": {
        "from": "0x14137c968b4bcb48b2a244dcbb80c237a7af91b5",
        "to": "0x94a9d9ac8a22534e3faca9f4e7f2e2cf85d5e4c8",
        "gas": "0x10816",
        "value": "0x0",
        "input": "0x095ea7b300000000000000000000000064fd57525346daa1b32651b69acb1781ada451cd00000000000000000000000000000000000000000000000000000002540be400",
        "nonce": "0xf3",
        "chainId": "0xaa36a7"
      },
      "additionalContracts": [],
      "isFixedGasLimit": false
    },
    {
      "hash": "0xd4f9fece4ba906ab02f0d8e5ef35cebe40df6e0be7d2c48059c39567ca9ec575",
      "transactionType": "CALL",
      "contractName": "Stablecoin",
      "contractAddress": "0x64fd57525346daa1b32651b69acb1781ada451cd",
      "function": "wrap(uint256)",
      "arguments": [
        "10000000000"
      ],
      "transaction": {
        "from": "0x14137c968b4bcb48b2a244dcbb80c237a7af91b5",
        "to": "0x64fd57525346daa1b32651b69acb1781ada451cd",
        "gas": "0x21f4b",
        "value": "0x0",
        "input": "0xea598cb000000000000000000000000000000000000000000000000000000002540be400",
        "nonce": "0xf4",
        "chainId": "0xaa36a7"
      },
      "additionalContracts": [],
      "isFixedGasLimit": false
    },
    {
      "hash": "0x7ba22998774d6564cb430b1fd87385105ce8a3c158c04e9734c5ee2c7155e192",
      "transactionType": "CALL",
      "contractName": "StablePair",
      "contractAddress": "0x3b66afe4f14d8fcad40210ab263466efa03c8088",
      "function": "flipAndLock(bool)",
      "arguments": [
        "true"
      ],
      "transaction": {
        "from": "0x14137c968b4bcb48b2a244dcbb80c237a7af91b5",
        "to": "0x3b66afe4f14d8fcad40210ab263466efa03c8088",
        "gas": "0x9785",
        "value": "0x0",
        "input": "0x49b1d9ba0000000000000000000000000000000000000000000000000000000000000001",
        "nonce": "0xf5",
        "chainId": "0xaa36a7"
      },
      "additionalContracts": [],
      "isFixedGasLimit": false
    },
    {
      "hash": "0xc9e644a74a1df0d8c91589c1c5ba8c11511f6382adf81e4496aa6ae636587856",
      "transactionType": "CALL",
      "contractName": null,
      "contractAddress": "0x8c4bcbe6b9ef47855f97e675296fa3f6fafa5f1a",
      "function": "initialize((address,address,uint24,int24,address),uint160)",
      "arguments": [
        "(0x64FD57525346daa1B32651b69ACB1781ada451Cd, 0x88541670E55cC00bEEFD87eB59EDd1b7C511AC9a, 3000, 60, 0x3b66aFE4F14d8Fcad40210AB263466efa03c8088)",
        "79228162514264337593543950336"
      ],
      "transaction": {
        "from": "0x14137c968b4bcb48b2a244dcbb80c237a7af91b5",
        "to": "0x8c4bcbe6b9ef47855f97e675296fa3f6fafa5f1a",
        "gas": "0x1174e",
        "value": "0x0",
        "input": "0x6276cbbe00000000000000000000000064fd57525346daa1b32651b69acb1781ada451cd00000000000000000000000088541670e55cc00beefd87eb59edd1b7c511ac9a0000000000000000000000000000000000000000000000000000000000000bb8000000000000000000000000000000000000000000000000000000000000003c0000000000000000000000003b66afe4f14d8fcad40210ab263466efa03c80880000000000000000000000000000000000000001000000000000000000000000",
        "nonce": "0xf6",
        "chainId": "0xaa36a7"
      },
      "additionalContracts": [],
      "isFixedGasLimit": false
    },
    {
      "hash": "0x9cbc1531c8c1d6dcb1975002a5e0dc72e501fa9df0e971c165af65a790d5aa07",
      "transactionType": "CALL",
      "contractName": "Stablecoin",
      "contractAddress": "0x64fd57525346daa1b32651b69acb1781ada451cd",
      "function": "approve(address,uint256)",
      "arguments": [
        "0x496CD7097f0BDd32774dA3D2F1Ef0adF430b7e81",
        "115792089237316195423570985008687907853269984665640564039457584007913129639935"
      ],
      "transaction": {
        "from": "0x14137c968b4bcb48b2a244dcbb80c237a7af91b5",
        "to": "0x64fd57525346daa1b32651b69acb1781ada451cd",
        "gas": "0xf9a4",
        "value": "0x0",
        "input": "0x095ea7b3000000000000000000000000496cd7097f0bdd32774da3d2f1ef0adf430b7e81ffffffffffffffffffffffffffffffffffffffffffffffffffffffffffffffff",
        "nonce": "0xf7",
        "chainId": "0xaa36a7"
      },
      "additionalContracts": [],
      "isFixedGasLimit": false
    },
    {
      "hash": "0x2aaeb9c59bb6413263cc5ac04544526bd31d4929f157d54b03c5d2abddb930b1",
      "transactionType": "CALL",
      "contractName": null,
      "contractAddress": "0x88541670e55cc00beefd87eb59edd1b7c511ac9a",
      "function": "approve(address,uint256)",
      "arguments": [
        "0x496CD7097f0BDd32774dA3D2F1Ef0adF430b7e81",
        "115792089237316195423570985008687907853269984665640564039457584007913129639935"
      ],
      "transaction": {
        "from": "0x14137c968b4bcb48b2a244dcbb80c237a7af91b5",
        "to": "0x88541670e55cc00beefd87eb59edd1b7c511ac9a",
        "gas": "0x10a01",
        "value": "0x0",
        "input": "0x095ea7b3000000000000000000000000496cd7097f0bdd32774da3d2f1ef0adf430b7e81ffffffffffffffffffffffffffffffffffffffffffffffffffffffffffffffff",
        "nonce": "0xf8",
        "chainId": "0xaa36a7"
      },
      "additionalContracts": [],
      "isFixedGasLimit": false
    },
    {
      "hash": "0x98e363f3468802c4130cb8b4911ec18b784a48c8693ccd750579135a9739bfd0",
      "transactionType": "CALL",
      "contractName": "Stablecoin",
      "contractAddress": "0x64fd57525346daa1b32651b69acb1781ada451cd",
      "function": "approve(address,uint256)",
      "arguments": [
        "0xe49d2815C231826caB58017e214Bed19fE1c2dD4",
        "115792089237316195423570985008687907853269984665640564039457584007913129639935"
      ],
      "transaction": {
        "from": "0x14137c968b4bcb48b2a244dcbb80c237a7af91b5",
        "to": "0x64fd57525346daa1b32651b69acb1781ada451cd",
        "gas": "0xf9a4",
        "value": "0x0",
        "input": "0x095ea7b3000000000000000000000000e49d2815c231826cab58017e214bed19fe1c2dd4ffffffffffffffffffffffffffffffffffffffffffffffffffffffffffffffff",
        "nonce": "0xf9",
        "chainId": "0xaa36a7"
      },
      "additionalContracts": [],
      "isFixedGasLimit": false
    },
    {
      "hash": "0x9a5f6ad15533583bddc76fd1245b8f8de166081c8291f2d66bde17398fba5972",
      "transactionType": "CALL",
      "contractName": null,
      "contractAddress": "0x88541670e55cc00beefd87eb59edd1b7c511ac9a",
      "function": "approve(address,uint256)",
      "arguments": [
        "0xe49d2815C231826caB58017e214Bed19fE1c2dD4",
        "115792089237316195423570985008687907853269984665640564039457584007913129639935"
      ],
      "transaction": {
        "from": "0x14137c968b4bcb48b2a244dcbb80c237a7af91b5",
        "to": "0x88541670e55cc00beefd87eb59edd1b7c511ac9a",
        "gas": "0x10a01",
        "value": "0x0",
        "input": "0x095ea7b3000000000000000000000000e49d2815c231826cab58017e214bed19fe1c2dd4ffffffffffffffffffffffffffffffffffffffffffffffffffffffffffffffff",
        "nonce": "0xfa",
        "chainId": "0xaa36a7"
      },
      "additionalContracts": [],
      "isFixedGasLimit": false
    },
    {
      "hash": "0xb43d49dfabb59b15c0d44660a95ad99caa774d87d17b68e18dd7979170db6259",
      "transactionType": "CALL",
      "contractName": "Stablecoin",
      "contractAddress": "0x64fd57525346daa1b32651b69acb1781ada451cd",
      "function": "approve(address,uint256)",
      "arguments": [
        "0x000000000022D473030F116dDEE9F6B43aC78BA3",
        "115792089237316195423570985008687907853269984665640564039457584007913129639935"
      ],
      "transaction": {
        "from": "0x14137c968b4bcb48b2a244dcbb80c237a7af91b5",
        "to": "0x64fd57525346daa1b32651b69acb1781ada451cd",
        "gas": "0x107fc",
        "value": "0x0",
        "input": "0x095ea7b3000000000000000000000000000000000022d473030f116ddee9f6b43ac78ba3ffffffffffffffffffffffffffffffffffffffffffffffffffffffffffffffff",
        "nonce": "0xfb",
        "chainId": "0xaa36a7"
      },
      "additionalContracts": [],
      "isFixedGasLimit": false
    },
    {
      "hash": "0x4b50d00181f4da95131ddca285fc023109102b52f1b6d23c996b29eaa0ff251d",
      "transactionType": "CALL",
      "contractName": null,
      "contractAddress": "0x000000000022d473030f116ddee9f6b43ac78ba3",
      "function": "approve(address,address,uint160,uint48)",
      "arguments": [
        "0x64FD57525346daa1B32651b69ACB1781ada451Cd",
        "0x1B1C77B606d13b09C84d1c7394B96b147bC03147",
        "1461501637330902918203684832716283019655932542975",
        "281474976710655"
      ],
      "transaction": {
        "from": "0x14137c968b4bcb48b2a244dcbb80c237a7af91b5",
        "to": "0x000000000022d473030f116ddee9f6b43ac78ba3",
        "gas": "0x1112d",
        "value": "0x0",
        "input": "0x87517c4500000000000000000000000064fd57525346daa1b32651b69acb1781ada451cd0000000000000000000000001b1c77b606d13b09c84d1c7394b96b147bc03147000000000000000000000000ffffffffffffffffffffffffffffffffffffffff0000000000000000000000000000000000000000000000000000ffffffffffff",
        "nonce": "0xfc",
        "chainId": "0xaa36a7"
      },
      "additionalContracts": [],
      "isFixedGasLimit": false
    },
    {
      "hash": "0x11fd9bd8fe8b55b529ee8746066bffb4e7a4e46e6c3120d0e90324dd1f075af4",
      "transactionType": "CALL",
      "contractName": null,
      "contractAddress": "0x88541670e55cc00beefd87eb59edd1b7c511ac9a",
      "function": "approve(address,uint256)",
      "arguments": [
        "0x000000000022D473030F116dDEE9F6B43aC78BA3",
        "115792089237316195423570985008687907853269984665640564039457584007913129639935"
      ],
      "transaction": {
        "from": "0x14137c968b4bcb48b2a244dcbb80c237a7af91b5",
        "to": "0x88541670e55cc00beefd87eb59edd1b7c511ac9a",
        "gas": "0xfae7",
        "value": "0x0",
        "input": "0x095ea7b3000000000000000000000000000000000022d473030f116ddee9f6b43ac78ba3ffffffffffffffffffffffffffffffffffffffffffffffffffffffffffffffff",
        "nonce": "0xfd",
        "chainId": "0xaa36a7"
      },
      "additionalContracts": [],
      "isFixedGasLimit": false
    },
    {
      "hash": "0xe1fae27296727703bba80af14bc0e766e1135a0a1952c6587c70e7f525a972b0",
      "transactionType": "CALL",
      "contractName": null,
      "contractAddress": "0x000000000022d473030f116ddee9f6b43ac78ba3",
      "function": "approve(address,address,uint160,uint48)",
      "arguments": [
        "0x88541670E55cC00bEEFD87eB59EDd1b7C511AC9a",
        "0x1B1C77B606d13b09C84d1c7394B96b147bC03147",
        "1461501637330902918203684832716283019655932542975",
        "281474976710655"
      ],
      "transaction": {
        "from": "0x14137c968b4bcb48b2a244dcbb80c237a7af91b5",
        "to": "0x000000000022d473030f116ddee9f6b43ac78ba3",
        "gas": "0x1112d",
        "value": "0x0",
        "input": "0x87517c4500000000000000000000000088541670e55cc00beefd87eb59edd1b7c511ac9a0000000000000000000000001b1c77b606d13b09c84d1c7394b96b147bc03147000000000000000000000000ffffffffffffffffffffffffffffffffffffffff0000000000000000000000000000000000000000000000000000ffffffffffff",
        "nonce": "0xfe",
        "chainId": "0xaa36a7"
      },
      "additionalContracts": [],
      "isFixedGasLimit": false
    },
    {
      "hash": "0x02e5d5b09038ccd303bfcc4a69ea1b65754f870fc17b28d6b871000ecc2ace4f",
      "transactionType": "CALL",
      "contractName": null,
      "contractAddress": "0x496cd7097f0bdd32774da3d2f1ef0adf430b7e81",
      "function": "modifyLiquidity((address,address,uint24,int24,address),(int24,int24,int256,bytes32),bytes)",
      "arguments": [
        "(0x64FD57525346daa1B32651b69ACB1781ada451Cd, 0x88541670E55cC00bEEFD87eB59EDd1b7C511AC9a, 3000, 60, 0x3b66aFE4F14d8Fcad40210AB263466efa03c8088)",
        "(-887220, 887220, 10000000, 0x0000000000000000000000000000000000000000000000000000000000000000)",
        "0x"
      ],
      "transaction": {
        "from": "0x14137c968b4bcb48b2a244dcbb80c237a7af91b5",
        "to": "0x496cd7097f0bdd32774da3d2f1ef0adf430b7e81",
        "gas": "0x652d3",
        "value": "0x0",
        "input": "0x5a6bcfda00000000000000000000000064fd57525346daa1b32651b69acb1781ada451cd00000000000000000000000088541670e55cc00beefd87eb59edd1b7c511ac9a0000000000000000000000000000000000000000000000000000000000000bb8000000000000000000000000000000000000000000000000000000000000003c0000000000000000000000003b66afe4f14d8fcad40210ab263466efa03c8088fffffffffffffffffffffffffffffffffffffffffffffffffffffffffff2764c00000000000000000000000000000000000000000000000000000000000d89b40000000000000000000000000000000000000000000000000000000000989680000000000000000000000000000000000000000000000000000000000000000000000000000000000000000000000000000000000000000000000000000001400000000000000000000000000000000000000000000000000000000000000000",
        "nonce": "0xff",
        "chainId": "0xaa36a7"
      },
      "additionalContracts": [],
      "isFixedGasLimit": false
    },
    {
      "hash": "0xee7e904ed80be6716f14d843ab9fa54ec42089de979524e2e365c42cd85f6af4",
      "transactionType": "CALL",
      "contractName": null,
      "contractAddress": "0x1b1c77b606d13b09c84d1c7394b96b147bc03147",
      "function": "modifyLiquidities(bytes,uint256)",
      "arguments": [
        "0x000000000000000000000000000000000000000000000000000000000000004000000000000000000000000000000000000000000000000000000000000000800000000000000000000000000000000000000000000000000000000000000002021100000000000000000000000000000000000000000000000000000000000000000000000000000000000000000000000000000000000000000000000000020000000000000000000000000000000000000000000000000000000000000040000000000000000000000000000000000000000000000000000000000000020000000000000000000000000000000000000000000000000000000000000001a000000000000000000000000064fd57525346daa1b32651b69acb1781ada451cd00000000000000000000000088541670e55cc00beefd87eb59edd1b7c511ac9a0000000000000000000000000000000000000000000000000000000000000bb8000000000000000000000000000000000000000000000000000000000000003c0000000000000000000000003b66afe4f14d8fcad40210ab263466efa03c8088fffffffffffffffffffffffffffffffffffffffffffffffffffffffffff2764c00000000000000000000000000000000000000000000000000000000000d89b4000000000000000000000000000000000000000000000000000000000098968000000000000000000000000000000000000000000000021e19e0c9bab240000000000000000000000000000000000000000000000000021e19e0c9bab240000000000000000000000000000014137c968b4bcb48b2a244dcbb80c237a7af91b500000000000000000000000000000000000000000000000000000000000001800000000000000000000000000000000000000000000000000000000000000000000000000000000000000000000000000000000000000000000000000000004000000000000000000000000064fd57525346daa1b32651b69acb1781ada451cd00000000000000000000000088541670e55cc00beefd87eb59edd1b7c511ac9a",
        "1729405164"
      ],
      "transaction": {
        "from": "0x14137c968b4bcb48b2a244dcbb80c237a7af91b5",
        "to": "0x1b1c77b606d13b09c84d1c7394b96b147bc03147",
        "gas": "0x70560",
        "value": "0x0",
        "input": "0xdd46508f0000000000000000000000000000000000000000000000000000000000000040000000000000000000000000000000000000000000000000000000006714a0ec0000000000000000000000000000000000000000000000000000000000000300000000000000000000000000000000000000000000000000000000000000004000000000000000000000000000000000000000000000000000000000000000800000000000000000000000000000000000000000000000000000000000000002021100000000000000000000000000000000000000000000000000000000000000000000000000000000000000000000000000000000000000000000000000020000000000000000000000000000000000000000000000000000000000000040000000000000000000000000000000000000000000000000000000000000020000000000000000000000000000000000000000000000000000000000000001a000000000000000000000000064fd57525346daa1b32651b69acb1781ada451cd00000000000000000000000088541670e55cc00beefd87eb59edd1b7c511ac9a0000000000000000000000000000000000000000000000000000000000000bb8000000000000000000000000000000000000000000000000000000000000003c0000000000000000000000003b66afe4f14d8fcad40210ab263466efa03c8088fffffffffffffffffffffffffffffffffffffffffffffffffffffffffff2764c00000000000000000000000000000000000000000000000000000000000d89b4000000000000000000000000000000000000000000000000000000000098968000000000000000000000000000000000000000000000021e19e0c9bab240000000000000000000000000000000000000000000000000021e19e0c9bab240000000000000000000000000000014137c968b4bcb48b2a244dcbb80c237a7af91b500000000000000000000000000000000000000000000000000000000000001800000000000000000000000000000000000000000000000000000000000000000000000000000000000000000000000000000000000000000000000000000004000000000000000000000000064fd57525346daa1b32651b69acb1781ada451cd00000000000000000000000088541670e55cc00beefd87eb59edd1b7c511ac9a",
        "nonce": "0x100",
        "chainId": "0xaa36a7"
      },
      "additionalContracts": [],
      "isFixedGasLimit": false
    },
    {
      "hash": "0xddc4733996098b630b75268b42808a669347d70a8e14805782b0762233bb0d96",
      "transactionType": "CALL",
      "contractName": "StablePair",
      "contractAddress": "0x3b66afe4f14d8fcad40210ab263466efa03c8088",
      "function": "addOracle(bytes32,address)",
      "arguments": [
        "0x38de98467cf81ec10e257d3d3c3f79c1a96738245935c7a20489aa4a5e355172",
        "0xdd6D76262Fd7BdDe428dcfCd94386EbAe0151603"
      ],
      "transaction": {
        "from": "0x14137c968b4bcb48b2a244dcbb80c237a7af91b5",
        "to": "0x3b66afe4f14d8fcad40210ab263466efa03c8088",
        "gas": "0x26524",
        "value": "0x0",
        "input": "0xa9b518ab38de98467cf81ec10e257d3d3c3f79c1a96738245935c7a20489aa4a5e355172000000000000000000000000dd6d76262fd7bdde428dcfcd94386ebae0151603",
        "nonce": "0x101",
        "chainId": "0xaa36a7"
      },
      "additionalContracts": [],
      "isFixedGasLimit": false
    },
    {
      "hash": "0xf97967e68a54c5c3869e5308a2b3c2d07c32e42fa0e4d3f73bdb70f4028673f4",
      "transactionType": "CALL",
      "contractName": null,
      "contractAddress": "0xe49d2815c231826cab58017e214bed19fe1c2dd4",
      "function": "swap((address,address,uint24,int24,address),(bool,int256,uint160),(bool,bool),bytes)",
      "arguments": [
        "(0x64FD57525346daa1B32651b69ACB1781ada451Cd, 0x88541670E55cC00bEEFD87eB59EDd1b7C511AC9a, 3000, 60, 0x3b66aFE4F14d8Fcad40210AB263466efa03c8088)",
        "(true, -10000000, 4295128740)",
        "(false, false)",
        "0x"
      ],
      "transaction": {
        "from": "0x14137c968b4bcb48b2a244dcbb80c237a7af91b5",
        "to": "0xe49d2815c231826cab58017e214bed19fe1c2dd4",
        "gas": "0x39490",
        "value": "0x0",
        "input": "0x2229d0b400000000000000000000000064fd57525346daa1b32651b69acb1781ada451cd00000000000000000000000088541670e55cc00beefd87eb59edd1b7c511ac9a0000000000000000000000000000000000000000000000000000000000000bb8000000000000000000000000000000000000000000000000000000000000003c0000000000000000000000003b66afe4f14d8fcad40210ab263466efa03c80880000000000000000000000000000000000000000000000000000000000000001ffffffffffffffffffffffffffffffffffffffffffffffffffffffffff67698000000000000000000000000000000000000000000000000000000001000276a40000000000000000000000000000000000000000000000000000000000000000000000000000000000000000000000000000000000000000000000000000000000000000000000000000000000000000000000000000000000000000000001600000000000000000000000000000000000000000000000000000000000000000",
        "nonce": "0x102",
        "chainId": "0xaa36a7"
      },
      "additionalContracts": [],
      "isFixedGasLimit": false
    }
  ],
  "receipts": [
    {
      "status": "0x1",
      "cumulativeGasUsed": "0xf4b20",
      "logs": [],
      "logsBloom": "0x00000000000000000000000000000000000000000000000000000000000000000000000000000000000000000000000000000000000000000000000000000000000000000000000000000000000000000000000000000000000000000000000000000000000000000000000000000000000000000000000000000000000000000000000000000000000000000000000000000000000000000000000000000000000000000000000000000000000000000000000000000000000000000000000000000000000000000000000000000000000000000000000000000000000000000000000000000000000000000000000000000000000000000000000000000000",
      "type": "0x2",
      "transactionHash": "0x6b6d48c81ac35d42e3b4c9ef404cdab8461c04a43aca96d25ba50e7faa98e931",
      "transactionIndex": "0x0",
      "blockHash": "0xbb40c6826bb7b4e5c5583403e4edcfbeb60e286f723ca3b0edeeaf736c653fc9",
      "blockNumber": "0x696aea",
      "gasUsed": "0xf4b20",
      "effectiveGasPrice": "0x2f4d249",
      "blobGasPrice": "0x1",
      "from": "0x14137c968b4bcb48b2a244dcbb80c237a7af91b5",
      "to": "0x4e59b44847b379578588920ca78fbf26c0b4956c",
      "contractAddress": null
    },
    {
      "status": "0x1",
      "cumulativeGasUsed": "0x90b02",
      "logs": [],
      "logsBloom": "0x00000000000000000000000000000000000000000000000000000000000000000000000000000000000000000000000000000000000000000000000000000000000000000000000000000000000000000000000000000000000000000000000000000000000000000000000000000000000000000000000000000000000000000000000000000000000000000000000000000000000000000000000000000000000000000000000000000000000000000000000000000000000000000000000000000000000000000000000000000000000000000000000000000000000000000000000000000000000000000000000000000000000000000000000000000000",
      "type": "0x2",
      "transactionHash": "0x42f49c9de179b8899960ce690dfdd97a26b113583bcf76d7fe6f9d377c67cfb0",
      "transactionIndex": "0x0",
      "blockHash": "0x46323ca2e7ab16b3f6b277bc5c38fe5cc8a4fd97837b413a17f14755ec2dd009",
      "blockNumber": "0x696aeb",
      "gasUsed": "0x90b02",
      "effectiveGasPrice": "0x29e71bd",
      "blobGasPrice": "0x1",
      "from": "0x14137c968b4bcb48b2a244dcbb80c237a7af91b5",
      "to": null,
      "contractAddress": "0x64fd57525346daa1b32651b69acb1781ada451cd"
    },
    {
      "status": "0x1",
      "cumulativeGasUsed": "0x9bf95",
      "logs": [
        {
          "address": "0x94a9d9ac8a22534e3faca9f4e7f2e2cf85d5e4c8",
          "topics": [
            "0x8c5be1e5ebec7d5bd14f71427d1e84f3dd0314c0f7b2291e5b200ac8c7c3b925",
            "0x00000000000000000000000014137c968b4bcb48b2a244dcbb80c237a7af91b5",
            "0x00000000000000000000000064fd57525346daa1b32651b69acb1781ada451cd"
          ],
          "data": "0x00000000000000000000000000000000000000000000000000000002540be400",
          "blockHash": "0x46323ca2e7ab16b3f6b277bc5c38fe5cc8a4fd97837b413a17f14755ec2dd009",
          "blockNumber": "0x696aeb",
          "blockTimestamp": "0x6714a042",
          "transactionHash": "0xc9ad249a911048f0b9bee4b409649f9bb25f0e2aea37ead16772ea21d62ef39c",
          "transactionIndex": "0x1",
          "logIndex": "0x0",
          "removed": false
        }
      ],
      "logsBloom": "0x00400000000000000000000000000000000000000000000000000000000000000000000000000000000000000000000000000000000002000000000000200000000000000000000000000000000000000000000000000000000008000000000000000000000000000000000000000000000000000000000000000000000000000000000000000000000000000000000000000000000000000000000080000000020000000100000000004000000000000000100000000000000000000000000000000000800080000000000000000000000000000000000000000000000000000010000000000000000000000000000000000000000000000000000000000000",
      "type": "0x2",
      "transactionHash": "0xc9ad249a911048f0b9bee4b409649f9bb25f0e2aea37ead16772ea21d62ef39c",
      "transactionIndex": "0x1",
      "blockHash": "0x46323ca2e7ab16b3f6b277bc5c38fe5cc8a4fd97837b413a17f14755ec2dd009",
      "blockNumber": "0x696aeb",
      "gasUsed": "0xb493",
      "effectiveGasPrice": "0x29e71bd",
      "blobGasPrice": "0x1",
      "from": "0x14137c968b4bcb48b2a244dcbb80c237a7af91b5",
      "to": "0x94a9d9ac8a22534e3faca9f4e7f2e2cf85d5e4c8",
      "contractAddress": null
    },
    {
      "status": "0x1",
      "cumulativeGasUsed": "0xb48eb",
      "logs": [
        {
          "address": "0x94a9d9ac8a22534e3faca9f4e7f2e2cf85d5e4c8",
          "topics": [
            "0xddf252ad1be2c89b69c2b068fc378daa952ba7f163c4a11628f55a4df523b3ef",
            "0x00000000000000000000000014137c968b4bcb48b2a244dcbb80c237a7af91b5",
            "0x00000000000000000000000064fd57525346daa1b32651b69acb1781ada451cd"
          ],
          "data": "0x00000000000000000000000000000000000000000000000000000002540be400",
          "blockHash": "0x46323ca2e7ab16b3f6b277bc5c38fe5cc8a4fd97837b413a17f14755ec2dd009",
          "blockNumber": "0x696aeb",
          "blockTimestamp": "0x6714a042",
          "transactionHash": "0xd4f9fece4ba906ab02f0d8e5ef35cebe40df6e0be7d2c48059c39567ca9ec575",
          "transactionIndex": "0x2",
          "logIndex": "0x1",
          "removed": false
        },
        {
          "address": "0x94a9d9ac8a22534e3faca9f4e7f2e2cf85d5e4c8",
          "topics": [
            "0x8c5be1e5ebec7d5bd14f71427d1e84f3dd0314c0f7b2291e5b200ac8c7c3b925",
            "0x00000000000000000000000014137c968b4bcb48b2a244dcbb80c237a7af91b5",
            "0x00000000000000000000000064fd57525346daa1b32651b69acb1781ada451cd"
          ],
          "data": "0x0000000000000000000000000000000000000000000000000000000000000000",
          "blockHash": "0x46323ca2e7ab16b3f6b277bc5c38fe5cc8a4fd97837b413a17f14755ec2dd009",
          "blockNumber": "0x696aeb",
          "blockTimestamp": "0x6714a042",
          "transactionHash": "0xd4f9fece4ba906ab02f0d8e5ef35cebe40df6e0be7d2c48059c39567ca9ec575",
          "transactionIndex": "0x2",
          "logIndex": "0x2",
          "removed": false
        },
        {
          "address": "0x64fd57525346daa1b32651b69acb1781ada451cd",
          "topics": [
            "0xddf252ad1be2c89b69c2b068fc378daa952ba7f163c4a11628f55a4df523b3ef",
            "0x0000000000000000000000000000000000000000000000000000000000000000",
            "0x00000000000000000000000014137c968b4bcb48b2a244dcbb80c237a7af91b5"
          ],
          "data": "0x00000000000000000000000000000000000000000000000000000002540be400",
          "blockHash": "0x46323ca2e7ab16b3f6b277bc5c38fe5cc8a4fd97837b413a17f14755ec2dd009",
          "blockNumber": "0x696aeb",
          "blockTimestamp": "0x6714a042",
          "transactionHash": "0xd4f9fece4ba906ab02f0d8e5ef35cebe40df6e0be7d2c48059c39567ca9ec575",
          "transactionIndex": "0x2",
          "logIndex": "0x3",
          "removed": false
        }
      ],
      "logsBloom": "0x00400000000000040000000000000000000000100000000000000000000000000000000000000000000000000000000000000000000002000000000000200000000000000000000000000008000000100000000000000000000008000000000000000000020000000000000000000800000000000000000000000010000000000000000000000000000000000000000000000000000000000000000080000000020000000100000000004000000000000000100000000000000000000000000000000002800080000000000000000000000000000000000000000000000020000010000000000000000000000000000000000000000000000000000000000000",
      "type": "0x2",
      "transactionHash": "0xd4f9fece4ba906ab02f0d8e5ef35cebe40df6e0be7d2c48059c39567ca9ec575",
      "transactionIndex": "0x2",
      "blockHash": "0x46323ca2e7ab16b3f6b277bc5c38fe5cc8a4fd97837b413a17f14755ec2dd009",
      "blockNumber": "0x696aeb",
      "gasUsed": "0x18956",
      "effectiveGasPrice": "0x29e71bd",
      "blobGasPrice": "0x1",
      "from": "0x14137c968b4bcb48b2a244dcbb80c237a7af91b5",
      "to": "0x64fd57525346daa1b32651b69acb1781ada451cd",
      "contractAddress": null
    },
    {
      "status": "0x1",
      "cumulativeGasUsed": "0xbb086",
      "logs": [],
      "logsBloom": "0x00000000000000000000000000000000000000000000000000000000000000000000000000000000000000000000000000000000000000000000000000000000000000000000000000000000000000000000000000000000000000000000000000000000000000000000000000000000000000000000000000000000000000000000000000000000000000000000000000000000000000000000000000000000000000000000000000000000000000000000000000000000000000000000000000000000000000000000000000000000000000000000000000000000000000000000000000000000000000000000000000000000000000000000000000000000",
      "type": "0x2",
      "transactionHash": "0x7ba22998774d6564cb430b1fd87385105ce8a3c158c04e9734c5ee2c7155e192",
      "transactionIndex": "0x3",
      "blockHash": "0x46323ca2e7ab16b3f6b277bc5c38fe5cc8a4fd97837b413a17f14755ec2dd009",
      "blockNumber": "0x696aeb",
      "gasUsed": "0x679b",
      "effectiveGasPrice": "0x29e71bd",
      "blobGasPrice": "0x1",
      "from": "0x14137c968b4bcb48b2a244dcbb80c237a7af91b5",
      "to": "0x3b66afe4f14d8fcad40210ab263466efa03c8088",
      "contractAddress": null
    },
    {
      "status": "0x1",
      "cumulativeGasUsed": "0xc7abd",
      "logs": [
        {
          "address": "0x8c4bcbe6b9ef47855f97e675296fa3f6fafa5f1a",
          "topics": [
            "0xdd466e674ea557f56295e2d0218a125ea4b4f0f6f3307b95f85e6110838d6438",
            "0x38de98467cf81ec10e257d3d3c3f79c1a96738245935c7a20489aa4a5e355172",
            "0x00000000000000000000000064fd57525346daa1b32651b69acb1781ada451cd",
            "0x00000000000000000000000088541670e55cc00beefd87eb59edd1b7c511ac9a"
          ],
          "data": "0x0000000000000000000000000000000000000000000000000000000000000bb8000000000000000000000000000000000000000000000000000000000000003c0000000000000000000000003b66afe4f14d8fcad40210ab263466efa03c808800000000000000000000000000000000000000010000000000000000000000000000000000000000000000000000000000000000000000000000000000000000",
          "blockHash": "0x46323ca2e7ab16b3f6b277bc5c38fe5cc8a4fd97837b413a17f14755ec2dd009",
          "blockNumber": "0x696aeb",
          "blockTimestamp": "0x6714a042",
          "transactionHash": "0xc9e644a74a1df0d8c91589c1c5ba8c11511f6382adf81e4496aa6ae636587856",
          "transactionIndex": "0x4",
          "logIndex": "0x4",
          "removed": false
        }
      ],
      "logsBloom": "0x00100000000000400000000000000000000000000000000000000000000000000000000000000000000000000000000000000000000002000000000000000000000000000000000000000000000000000000000000000020000800000000000000000000000000000000000000000000000000000000000000000000000000000000000000000008200000000000000000000001000000000000000080200000000008000000000000000000000000000010000000000000000000000000000000000000800000000000000000800000000020000000000000000000000000000000000000000000000000000000000000000000000000000000000000000000",
      "type": "0x2",
      "transactionHash": "0xc9e644a74a1df0d8c91589c1c5ba8c11511f6382adf81e4496aa6ae636587856",
      "transactionIndex": "0x4",
      "blockHash": "0x46323ca2e7ab16b3f6b277bc5c38fe5cc8a4fd97837b413a17f14755ec2dd009",
      "blockNumber": "0x696aeb",
      "gasUsed": "0xca37",
      "effectiveGasPrice": "0x29e71bd",
      "blobGasPrice": "0x1",
      "from": "0x14137c968b4bcb48b2a244dcbb80c237a7af91b5",
      "to": "0x8c4bcbe6b9ef47855f97e675296fa3f6fafa5f1a",
      "contractAddress": null
    },
    {
      "status": "0x1",
      "cumulativeGasUsed": "0xd2f7a",
      "logs": [
        {
          "address": "0x64fd57525346daa1b32651b69acb1781ada451cd",
          "topics": [
            "0x8c5be1e5ebec7d5bd14f71427d1e84f3dd0314c0f7b2291e5b200ac8c7c3b925",
            "0x00000000000000000000000014137c968b4bcb48b2a244dcbb80c237a7af91b5",
            "0x000000000000000000000000496cd7097f0bdd32774da3d2f1ef0adf430b7e81"
          ],
          "data": "0xffffffffffffffffffffffffffffffffffffffffffffffffffffffffffffffff",
          "blockHash": "0x46323ca2e7ab16b3f6b277bc5c38fe5cc8a4fd97837b413a17f14755ec2dd009",
          "blockNumber": "0x696aeb",
          "blockTimestamp": "0x6714a042",
          "transactionHash": "0x9cbc1531c8c1d6dcb1975002a5e0dc72e501fa9df0e971c165af65a790d5aa07",
          "transactionIndex": "0x5",
          "logIndex": "0x5",
          "removed": false
        }
      ],
      "logsBloom": "0x00400000000000040000000000000000000000100000000000000000000000000000000000000000000000000000000000000000000000000000000000200000000000000000000000000000000000100001000000000000000000000000000000000000000000000000000000000000000000000000000000000000000000000000000000000000000000000000000000000000000008000000000000000000020000000000000000000000000000000000100000000000000000000000000000000000000080000000000000000000000000000000008000000000000000000010000000000000000000000000000000000000000000000000000000000000",
      "type": "0x2",
      "transactionHash": "0x9cbc1531c8c1d6dcb1975002a5e0dc72e501fa9df0e971c165af65a790d5aa07",
      "transactionIndex": "0x5",
      "blockHash": "0x46323ca2e7ab16b3f6b277bc5c38fe5cc8a4fd97837b413a17f14755ec2dd009",
      "blockNumber": "0x696aeb",
      "gasUsed": "0xb4bd",
      "effectiveGasPrice": "0x29e71bd",
      "blobGasPrice": "0x1",
      "from": "0x14137c968b4bcb48b2a244dcbb80c237a7af91b5",
      "to": "0x64fd57525346daa1b32651b69acb1781ada451cd",
      "contractAddress": null
    },
    {
      "status": "0x1",
      "cumulativeGasUsed": "0xde55d",
      "logs": [
        {
          "address": "0x88541670e55cc00beefd87eb59edd1b7c511ac9a",
          "topics": [
            "0x8c5be1e5ebec7d5bd14f71427d1e84f3dd0314c0f7b2291e5b200ac8c7c3b925",
            "0x00000000000000000000000014137c968b4bcb48b2a244dcbb80c237a7af91b5",
            "0x000000000000000000000000496cd7097f0bdd32774da3d2f1ef0adf430b7e81"
          ],
          "data": "0xffffffffffffffffffffffffffffffffffffffffffffffffffffffffffffffff",
          "blockHash": "0x46323ca2e7ab16b3f6b277bc5c38fe5cc8a4fd97837b413a17f14755ec2dd009",
          "blockNumber": "0x696aeb",
          "blockTimestamp": "0x6714a042",
          "transactionHash": "0x2aaeb9c59bb6413263cc5ac04544526bd31d4929f157d54b03c5d2abddb930b1",
          "transactionIndex": "0x6",
          "logIndex": "0x6",
          "removed": false
        }
      ],
      "logsBloom": "0x00400000000000000000000000000000000000000000000000000000000000000000000000000000002000000000000000000000000000000000000000200200000000000000000000000000000000000001000000000000000000000000000000000000000000000000000000000000000000000000000000000000000000000000000000000000000000000000010000000000000008000000000000000000020000000000000000000000000000000000100000000000000000000000000000000000000080000000000000000000000000000000008000000000000000000010000000000000000000000000000000000000000000000000000000000000",
      "type": "0x2",
      "transactionHash": "0x2aaeb9c59bb6413263cc5ac04544526bd31d4929f157d54b03c5d2abddb930b1",
      "transactionIndex": "0x6",
      "blockHash": "0x46323ca2e7ab16b3f6b277bc5c38fe5cc8a4fd97837b413a17f14755ec2dd009",
      "blockNumber": "0x696aeb",
      "gasUsed": "0xb5e3",
      "effectiveGasPrice": "0x29e71bd",
      "blobGasPrice": "0x1",
      "from": "0x14137c968b4bcb48b2a244dcbb80c237a7af91b5",
      "to": "0x88541670e55cc00beefd87eb59edd1b7c511ac9a",
      "contractAddress": null
    },
    {
      "status": "0x1",
      "cumulativeGasUsed": "0xb4bd",
      "logs": [
        {
          "address": "0x64fd57525346daa1b32651b69acb1781ada451cd",
          "topics": [
            "0x8c5be1e5ebec7d5bd14f71427d1e84f3dd0314c0f7b2291e5b200ac8c7c3b925",
            "0x00000000000000000000000014137c968b4bcb48b2a244dcbb80c237a7af91b5",
            "0x000000000000000000000000e49d2815c231826cab58017e214bed19fe1c2dd4"
          ],
          "data": "0xffffffffffffffffffffffffffffffffffffffffffffffffffffffffffffffff",
          "blockHash": "0x248ebd6284ec4f4b9d4322153ee33301044d7d9e04fe5ad1468525167a27f96f",
          "blockNumber": "0x696aed",
          "blockTimestamp": "0x6714a044",
          "transactionHash": "0x98e363f3468802c4130cb8b4911ec18b784a48c8693ccd750579135a9739bfd0",
          "transactionIndex": "0x0",
          "logIndex": "0x0",
          "removed": false
        }
      ],
      "logsBloom": "0x00400000000000040000000000000000000000100000000000000000000000000000000000000000000000000000000000000000000000000000000000200000000000000000000000000000000000100000000000000000000000000000000000000000000000000000000000000000000000000000000000000000000000000000000000000000000000000000000000000000000000002800000000000000020000000000000000000000000000000000100000000000000000000000000000000000000080000000000000000000000000000000000000000000000000000010000000000000000000000000000000000000000000000000400000000000",
      "type": "0x2",
      "transactionHash": "0x98e363f3468802c4130cb8b4911ec18b784a48c8693ccd750579135a9739bfd0",
      "transactionIndex": "0x0",
      "blockHash": "0x248ebd6284ec4f4b9d4322153ee33301044d7d9e04fe5ad1468525167a27f96f",
      "blockNumber": "0x696aed",
      "gasUsed": "0xb4bd",
      "effectiveGasPrice": "0x20978a9",
      "blobGasPrice": "0x1",
      "from": "0x14137c968b4bcb48b2a244dcbb80c237a7af91b5",
      "to": "0x64fd57525346daa1b32651b69acb1781ada451cd",
      "contractAddress": null
    },
    {
      "status": "0x1",
      "cumulativeGasUsed": "0xb5e3",
      "logs": [
        {
          "address": "0x88541670e55cc00beefd87eb59edd1b7c511ac9a",
          "topics": [
            "0x8c5be1e5ebec7d5bd14f71427d1e84f3dd0314c0f7b2291e5b200ac8c7c3b925",
            "0x00000000000000000000000014137c968b4bcb48b2a244dcbb80c237a7af91b5",
            "0x000000000000000000000000e49d2815c231826cab58017e214bed19fe1c2dd4"
          ],
          "data": "0xffffffffffffffffffffffffffffffffffffffffffffffffffffffffffffffff",
          "blockHash": "0xabed599b790459b07d72f6aef69db466982d2e57f42cdcba1eff4b19cf37a37e",
          "blockNumber": "0x696aee",
          "blockTimestamp": "0x6714a045",
          "transactionHash": "0x9a5f6ad15533583bddc76fd1245b8f8de166081c8291f2d66bde17398fba5972",
          "transactionIndex": "0x0",
          "logIndex": "0x0",
          "removed": false
        }
      ],
      "logsBloom": "0x00400000000000000000000000000000000000000000000000000000000000000000000000000000002000000000000000000000000000000000000000200200000000000000000000000000000000000000000000000000000000000000000000000000000000000000000000000000000000000000000000000000000000000000000000000000000000000000010000000000000000002800000000000000020000000000000000000000000000000000100000000000000000000000000000000000000080000000000000000000000000000000000000000000000000000010000000000000000000000000000000000000000000000000400000000000",
      "type": "0x2",
      "transactionHash": "0x9a5f6ad15533583bddc76fd1245b8f8de166081c8291f2d66bde17398fba5972",
      "transactionIndex": "0x0",
      "blockHash": "0xabed599b790459b07d72f6aef69db466982d2e57f42cdcba1eff4b19cf37a37e",
      "blockNumber": "0x696aee",
      "gasUsed": "0xb5e3",
      "effectiveGasPrice": "0x1ca8443",
      "blobGasPrice": "0x1",
      "from": "0x14137c968b4bcb48b2a244dcbb80c237a7af91b5",
      "to": "0x88541670e55cc00beefd87eb59edd1b7c511ac9a",
      "contractAddress": null
    },
    {
      "status": "0x1",
      "cumulativeGasUsed": "0x16a64",
      "logs": [
        {
          "address": "0x64fd57525346daa1b32651b69acb1781ada451cd",
          "topics": [
            "0x8c5be1e5ebec7d5bd14f71427d1e84f3dd0314c0f7b2291e5b200ac8c7c3b925",
            "0x00000000000000000000000014137c968b4bcb48b2a244dcbb80c237a7af91b5",
            "0x000000000000000000000000000000000022d473030f116ddee9f6b43ac78ba3"
          ],
          "data": "0xffffffffffffffffffffffffffffffffffffffffffffffffffffffffffffffff",
          "blockHash": "0xabed599b790459b07d72f6aef69db466982d2e57f42cdcba1eff4b19cf37a37e",
          "blockNumber": "0x696aee",
          "blockTimestamp": "0x6714a045",
          "transactionHash": "0xb43d49dfabb59b15c0d44660a95ad99caa774d87d17b68e18dd7979170db6259",
          "transactionIndex": "0x1",
          "logIndex": "0x1",
          "removed": false
        }
      ],
      "logsBloom": "0x00400000000000040000000000000000000000100000000000000000000000000000000000000000000000000000000000000000800000000000000000200000000000000000000000004000000000100000000000000800000000000000000000000000000000000000000000000000000000000000000000000000000000000000000000000000000000000000000000000000000000000000000000000000020000000000000000000000000000000000100000000000000000000000000000000000000080000000000000000000000000000000000000000000000000000010000000000000000000000000000000000000000000000000000000000000",
      "type": "0x2",
      "transactionHash": "0xb43d49dfabb59b15c0d44660a95ad99caa774d87d17b68e18dd7979170db6259",
      "transactionIndex": "0x1",
      "blockHash": "0xabed599b790459b07d72f6aef69db466982d2e57f42cdcba1eff4b19cf37a37e",
      "blockNumber": "0x696aee",
      "gasUsed": "0xb481",
      "effectiveGasPrice": "0x1ca8443",
      "blobGasPrice": "0x1",
      "from": "0x14137c968b4bcb48b2a244dcbb80c237a7af91b5",
      "to": "0x64fd57525346daa1b32651b69acb1781ada451cd",
      "contractAddress": null
    },
    {
      "status": "0x1",
      "cumulativeGasUsed": "0x2252e",
      "logs": [
        {
          "address": "0x000000000022d473030f116ddee9f6b43ac78ba3",
          "topics": [
            "0xda9fa7c1b00402c17d0161b249b1ab8bbec047c5a52207b9c112deffd817036b",
            "0x00000000000000000000000014137c968b4bcb48b2a244dcbb80c237a7af91b5",
            "0x00000000000000000000000064fd57525346daa1b32651b69acb1781ada451cd",
            "0x0000000000000000000000001b1c77b606d13b09c84d1c7394b96b147bc03147"
          ],
          "data": "0x000000000000000000000000ffffffffffffffffffffffffffffffffffffffff0000000000000000000000000000000000000000000000000000ffffffffffff",
          "blockHash": "0xabed599b790459b07d72f6aef69db466982d2e57f42cdcba1eff4b19cf37a37e",
          "blockNumber": "0x696aee",
          "blockTimestamp": "0x6714a045",
          "transactionHash": "0x4b50d00181f4da95131ddca285fc023109102b52f1b6d23c996b29eaa0ff251d",
          "transactionIndex": "0x2",
          "logIndex": "0x2",
          "removed": false
        }
      ],
      "logsBloom": "0x00410000000000000000000000000000000000000000000000000000000000000000000000000040000000000000000000000000000002000000000000080000000000000000000000000000000000000000000000000000000000000000000000000000000000000000000000000000000000000000000000000000000000000020000000000000000000000000000000000000000000000000000080000000000000000000000000000000000000000000100000000000000000080020000000000000800080000000000000000000000000000000000040000000000000000000000000000000000000000000000000800000000000000000000000000400",
      "type": "0x2",
      "transactionHash": "0x4b50d00181f4da95131ddca285fc023109102b52f1b6d23c996b29eaa0ff251d",
      "transactionIndex": "0x2",
      "blockHash": "0xabed599b790459b07d72f6aef69db466982d2e57f42cdcba1eff4b19cf37a37e",
      "blockNumber": "0x696aee",
      "gasUsed": "0xbaca",
      "effectiveGasPrice": "0x1ca8443",
      "blobGasPrice": "0x1",
      "from": "0x14137c968b4bcb48b2a244dcbb80c237a7af91b5",
      "to": "0x000000000022d473030f116ddee9f6b43ac78ba3",
      "contractAddress": null
    },
    {
      "status": "0x1",
      "cumulativeGasUsed": "0x2dad5",
      "logs": [
        {
          "address": "0x88541670e55cc00beefd87eb59edd1b7c511ac9a",
          "topics": [
            "0x8c5be1e5ebec7d5bd14f71427d1e84f3dd0314c0f7b2291e5b200ac8c7c3b925",
            "0x00000000000000000000000014137c968b4bcb48b2a244dcbb80c237a7af91b5",
            "0x000000000000000000000000000000000022d473030f116ddee9f6b43ac78ba3"
          ],
          "data": "0xffffffffffffffffffffffffffffffffffffffffffffffffffffffffffffffff",
          "blockHash": "0xabed599b790459b07d72f6aef69db466982d2e57f42cdcba1eff4b19cf37a37e",
          "blockNumber": "0x696aee",
          "blockTimestamp": "0x6714a045",
          "transactionHash": "0x11fd9bd8fe8b55b529ee8746066bffb4e7a4e46e6c3120d0e90324dd1f075af4",
          "transactionIndex": "0x3",
          "logIndex": "0x3",
          "removed": false
        }
      ],
      "logsBloom": "0x00400000000000000000000000000000000000000000000000000000000000000000000000000000002000000000000000000000800000000000000000200200000000000000000000004000000000000000000000000800000000000000000000000000000000000000000000000000000000000000000000000000000000000000000000000000000000000000010000000000000000000000000000000000020000000000000000000000000000000000100000000000000000000000000000000000000080000000000000000000000000000000000000000000000000000010000000000000000000000000000000000000000000000000000000000000",
      "type": "0x2",
      "transactionHash": "0x11fd9bd8fe8b55b529ee8746066bffb4e7a4e46e6c3120d0e90324dd1f075af4",
      "transactionIndex": "0x3",
      "blockHash": "0xabed599b790459b07d72f6aef69db466982d2e57f42cdcba1eff4b19cf37a37e",
      "blockNumber": "0x696aee",
      "gasUsed": "0xb5a7",
      "effectiveGasPrice": "0x1ca8443",
      "blobGasPrice": "0x1",
      "from": "0x14137c968b4bcb48b2a244dcbb80c237a7af91b5",
      "to": "0x88541670e55cc00beefd87eb59edd1b7c511ac9a",
      "contractAddress": null
    },
    {
      "status": "0x1",
      "cumulativeGasUsed": "0x3959f",
      "logs": [
        {
          "address": "0x000000000022d473030f116ddee9f6b43ac78ba3",
          "topics": [
            "0xda9fa7c1b00402c17d0161b249b1ab8bbec047c5a52207b9c112deffd817036b",
            "0x00000000000000000000000014137c968b4bcb48b2a244dcbb80c237a7af91b5",
            "0x00000000000000000000000088541670e55cc00beefd87eb59edd1b7c511ac9a",
            "0x0000000000000000000000001b1c77b606d13b09c84d1c7394b96b147bc03147"
          ],
          "data": "0x000000000000000000000000ffffffffffffffffffffffffffffffffffffffff0000000000000000000000000000000000000000000000000000ffffffffffff",
          "blockHash": "0xabed599b790459b07d72f6aef69db466982d2e57f42cdcba1eff4b19cf37a37e",
          "blockNumber": "0x696aee",
          "blockTimestamp": "0x6714a045",
          "transactionHash": "0xe1fae27296727703bba80af14bc0e766e1135a0a1952c6587c70e7f525a972b0",
          "transactionIndex": "0x4",
          "logIndex": "0x4",
          "removed": false
        }
      ],
      "logsBloom": "0x00510000000000400000000000000000000000000000000000000000000000000000000000000040000000000000000000000000000000000000000000080000000000000000000000000000000000000000000000000000000000000000000000000000000000000000000000000000000000000000000000000000000000000020000000000000000000000000000000000000000000000000000000000000000000000000000000000000000000000010100000000000000000080020000000000000000080000000000000000000000000000000000040000000000000000000000000000000000000000000000000800000000000000000000000000400",
      "type": "0x2",
      "transactionHash": "0xe1fae27296727703bba80af14bc0e766e1135a0a1952c6587c70e7f525a972b0",
      "transactionIndex": "0x4",
      "blockHash": "0xabed599b790459b07d72f6aef69db466982d2e57f42cdcba1eff4b19cf37a37e",
      "blockNumber": "0x696aee",
      "gasUsed": "0xbaca",
      "effectiveGasPrice": "0x1ca8443",
      "blobGasPrice": "0x1",
      "from": "0x14137c968b4bcb48b2a244dcbb80c237a7af91b5",
      "to": "0x000000000022d473030f116ddee9f6b43ac78ba3",
      "contractAddress": null
    },
    {
      "status": "0x1",
      "cumulativeGasUsed": "0x8299f",
      "logs": [
        {
          "address": "0x8c4bcbe6b9ef47855f97e675296fa3f6fafa5f1a",
          "topics": [
            "0xf208f4912782fd25c7f114ca3723a2d5dd6f3bcc3ac8db5af63baa85f711d5ec",
            "0x38de98467cf81ec10e257d3d3c3f79c1a96738245935c7a20489aa4a5e355172",
            "0x000000000000000000000000496cd7097f0bdd32774da3d2f1ef0adf430b7e81"
          ],
          "data": "0xfffffffffffffffffffffffffffffffffffffffffffffffffffffffffff2764c00000000000000000000000000000000000000000000000000000000000d89b400000000000000000000000000000000000000000000000000000000009896800000000000000000000000000000000000000000000000000000000000000000",
          "blockHash": "0xabed599b790459b07d72f6aef69db466982d2e57f42cdcba1eff4b19cf37a37e",
          "blockNumber": "0x696aee",
          "blockTimestamp": "0x6714a045",
          "transactionHash": "0x02e5d5b09038ccd303bfcc4a69ea1b65754f870fc17b28d6b871000ecc2ace4f",
          "transactionIndex": "0x5",
          "logIndex": "0x5",
          "removed": false
        },
        {
          "address": "0x64fd57525346daa1b32651b69acb1781ada451cd",
          "topics": [
            "0xddf252ad1be2c89b69c2b068fc378daa952ba7f163c4a11628f55a4df523b3ef",
            "0x00000000000000000000000014137c968b4bcb48b2a244dcbb80c237a7af91b5",
            "0x0000000000000000000000008c4bcbe6b9ef47855f97e675296fa3f6fafa5f1a"
          ],
          "data": "0x0000000000000000000000000000000000000000000000000000000000989680",
          "blockHash": "0xabed599b790459b07d72f6aef69db466982d2e57f42cdcba1eff4b19cf37a37e",
          "blockNumber": "0x696aee",
          "blockTimestamp": "0x6714a045",
          "transactionHash": "0x02e5d5b09038ccd303bfcc4a69ea1b65754f870fc17b28d6b871000ecc2ace4f",
          "transactionIndex": "0x5",
          "logIndex": "0x6",
          "removed": false
        },
        {
          "address": "0x88541670e55cc00beefd87eb59edd1b7c511ac9a",
          "topics": [
            "0xddf252ad1be2c89b69c2b068fc378daa952ba7f163c4a11628f55a4df523b3ef",
            "0x00000000000000000000000014137c968b4bcb48b2a244dcbb80c237a7af91b5",
            "0x0000000000000000000000008c4bcbe6b9ef47855f97e675296fa3f6fafa5f1a"
          ],
          "data": "0x0000000000000000000000000000000000000000000000000000000000989680",
          "blockHash": "0xabed599b790459b07d72f6aef69db466982d2e57f42cdcba1eff4b19cf37a37e",
          "blockNumber": "0x696aee",
          "blockTimestamp": "0x6714a045",
          "transactionHash": "0x02e5d5b09038ccd303bfcc4a69ea1b65754f870fc17b28d6b871000ecc2ace4f",
          "transactionIndex": "0x5",
          "logIndex": "0x7",
          "removed": false
        },
        {
          "address": "0x88541670e55cc00beefd87eb59edd1b7c511ac9a",
          "topics": [
            "0x8c5be1e5ebec7d5bd14f71427d1e84f3dd0314c0f7b2291e5b200ac8c7c3b925",
            "0x00000000000000000000000014137c968b4bcb48b2a244dcbb80c237a7af91b5",
            "0x000000000000000000000000496cd7097f0bdd32774da3d2f1ef0adf430b7e81"
          ],
          "data": "0xffffffffffffffffffffffffffffffffffffffffffffffffffffffffff67697f",
          "blockHash": "0xabed599b790459b07d72f6aef69db466982d2e57f42cdcba1eff4b19cf37a37e",
          "blockNumber": "0x696aee",
          "blockTimestamp": "0x6714a045",
          "transactionHash": "0x02e5d5b09038ccd303bfcc4a69ea1b65754f870fc17b28d6b871000ecc2ace4f",
          "transactionIndex": "0x5",
          "logIndex": "0x8",
          "removed": false
        }
      ],
      "logsBloom": "0x0040000000000004000000000000000000000010000000000000000000000000000000000000000000200000200000000000000000000000000000000020020000000000000000000000000800000010000100000000002000080000000000000000000000000010000000000000000000000000000000000000001000000000000000000100000030000000000001000000000000000800000000000000000002000c000000000000000000000000000000100000000000000000000000000000000002000080000000000000800000000020000000008000000000000000000010000000000000000000000000000004000000000000000000000000000000",
      "type": "0x2",
      "transactionHash": "0x02e5d5b09038ccd303bfcc4a69ea1b65754f870fc17b28d6b871000ecc2ace4f",
      "transactionIndex": "0x5",
      "blockHash": "0xabed599b790459b07d72f6aef69db466982d2e57f42cdcba1eff4b19cf37a37e",
      "blockNumber": "0x696aee",
      "gasUsed": "0x49400",
      "effectiveGasPrice": "0x1ca8443",
      "blobGasPrice": "0x1",
      "from": "0x14137c968b4bcb48b2a244dcbb80c237a7af91b5",
      "to": "0x496cd7097f0bdd32774da3d2f1ef0adf430b7e81",
      "contractAddress": null
    },
    {
      "status": "0x1",
      "cumulativeGasUsed": "0x4ccfa",
      "logs": [
        {
          "address": "0x1b1c77b606d13b09c84d1c7394b96b147bc03147",
          "topics": [
            "0xddf252ad1be2c89b69c2b068fc378daa952ba7f163c4a11628f55a4df523b3ef",
            "0x0000000000000000000000000000000000000000000000000000000000000000",
            "0x00000000000000000000000014137c968b4bcb48b2a244dcbb80c237a7af91b5",
            "0x0000000000000000000000000000000000000000000000000000000000000002"
          ],
          "data": "0x",
          "blockHash": "0x7a6a0a01ee9bc31770cec0eba1ab615562127e8fdb36924d0ac4f133c84d5a68",
          "blockNumber": "0x696aef",
          "blockTimestamp": "0x6714a046",
          "transactionHash": "0xee7e904ed80be6716f14d843ab9fa54ec42089de979524e2e365c42cd85f6af4",
          "transactionIndex": "0x0",
          "logIndex": "0x0",
          "removed": false
        },
        {
          "address": "0x8c4bcbe6b9ef47855f97e675296fa3f6fafa5f1a",
          "topics": [
            "0xf208f4912782fd25c7f114ca3723a2d5dd6f3bcc3ac8db5af63baa85f711d5ec",
            "0x38de98467cf81ec10e257d3d3c3f79c1a96738245935c7a20489aa4a5e355172",
            "0x0000000000000000000000001b1c77b606d13b09c84d1c7394b96b147bc03147"
          ],
          "data": "0xfffffffffffffffffffffffffffffffffffffffffffffffffffffffffff2764c00000000000000000000000000000000000000000000000000000000000d89b400000000000000000000000000000000000000000000000000000000009896800000000000000000000000000000000000000000000000000000000000000002",
          "blockHash": "0x7a6a0a01ee9bc31770cec0eba1ab615562127e8fdb36924d0ac4f133c84d5a68",
          "blockNumber": "0x696aef",
          "blockTimestamp": "0x6714a046",
          "transactionHash": "0xee7e904ed80be6716f14d843ab9fa54ec42089de979524e2e365c42cd85f6af4",
          "transactionIndex": "0x0",
          "logIndex": "0x1",
          "removed": false
        },
        {
          "address": "0x64fd57525346daa1b32651b69acb1781ada451cd",
          "topics": [
            "0xddf252ad1be2c89b69c2b068fc378daa952ba7f163c4a11628f55a4df523b3ef",
            "0x00000000000000000000000014137c968b4bcb48b2a244dcbb80c237a7af91b5",
            "0x0000000000000000000000008c4bcbe6b9ef47855f97e675296fa3f6fafa5f1a"
          ],
          "data": "0x0000000000000000000000000000000000000000000000000000000000989680",
          "blockHash": "0x7a6a0a01ee9bc31770cec0eba1ab615562127e8fdb36924d0ac4f133c84d5a68",
          "blockNumber": "0x696aef",
          "blockTimestamp": "0x6714a046",
          "transactionHash": "0xee7e904ed80be6716f14d843ab9fa54ec42089de979524e2e365c42cd85f6af4",
          "transactionIndex": "0x0",
          "logIndex": "0x2",
          "removed": false
        },
        {
          "address": "0x88541670e55cc00beefd87eb59edd1b7c511ac9a",
          "topics": [
            "0xddf252ad1be2c89b69c2b068fc378daa952ba7f163c4a11628f55a4df523b3ef",
            "0x00000000000000000000000014137c968b4bcb48b2a244dcbb80c237a7af91b5",
            "0x0000000000000000000000008c4bcbe6b9ef47855f97e675296fa3f6fafa5f1a"
          ],
          "data": "0x0000000000000000000000000000000000000000000000000000000000989680",
          "blockHash": "0x7a6a0a01ee9bc31770cec0eba1ab615562127e8fdb36924d0ac4f133c84d5a68",
          "blockNumber": "0x696aef",
          "blockTimestamp": "0x6714a046",
          "transactionHash": "0xee7e904ed80be6716f14d843ab9fa54ec42089de979524e2e365c42cd85f6af4",
          "transactionIndex": "0x0",
          "logIndex": "0x3",
          "removed": false
        },
        {
          "address": "0x88541670e55cc00beefd87eb59edd1b7c511ac9a",
          "topics": [
            "0x8c5be1e5ebec7d5bd14f71427d1e84f3dd0314c0f7b2291e5b200ac8c7c3b925",
            "0x00000000000000000000000014137c968b4bcb48b2a244dcbb80c237a7af91b5",
            "0x000000000000000000000000000000000022d473030f116ddee9f6b43ac78ba3"
          ],
          "data": "0xffffffffffffffffffffffffffffffffffffffffffffffffffffffffff67697f",
          "blockHash": "0x7a6a0a01ee9bc31770cec0eba1ab615562127e8fdb36924d0ac4f133c84d5a68",
          "blockNumber": "0x696aef",
          "blockTimestamp": "0x6714a046",
          "transactionHash": "0xee7e904ed80be6716f14d843ab9fa54ec42089de979524e2e365c42cd85f6af4",
          "transactionIndex": "0x0",
          "logIndex": "0x4",
          "removed": false
        }
      ],
      "logsBloom": "0x0440000000000004000000000000000000000010000000000000000000000008000000000000004000200000200000000000000080000000000000000020020000000000000000000000400800000010000000000000082000080000000000000000000002000010000000000100080000000000000000000000001000000000000000000100000030000000000001000000000000000000000000000000000002000c000000000000000100000000000000100000000000000000000020000000000002000080000000000000800000004020000000000000000000000020000010000000000000000000000000000004800000008000000000000000000000",
      "type": "0x2",
      "transactionHash": "0xee7e904ed80be6716f14d843ab9fa54ec42089de979524e2e365c42cd85f6af4",
      "transactionIndex": "0x0",
      "blockHash": "0x7a6a0a01ee9bc31770cec0eba1ab615562127e8fdb36924d0ac4f133c84d5a68",
      "blockNumber": "0x696aef",
      "gasUsed": "0x4ccfa",
      "effectiveGasPrice": "0x19535af",
      "blobGasPrice": "0x1",
      "from": "0x14137c968b4bcb48b2a244dcbb80c237a7af91b5",
      "to": "0x1b1c77b606d13b09c84d1c7394b96b147bc03147",
      "contractAddress": null
    },
    {
      "status": "0x1",
      "cumulativeGasUsed": "0x688e2",
      "logs": [
        {
          "address": "0xdd6d76262fd7bdde428dcfcd94386ebae0151603",
          "topics": [
            "0x75d30ca40c7bcd48e685894b82b864808b9cb566090efc53444a2e61742f18a3",
            "0x0000000000000000000000000dcc19657007713483a5ca76e6a7bbe5f56ea37d",
            "0x0000000000000000000000003b66afe4f14d8fcad40210ab263466efa03c8088"
          ],
          "data": "0x",
          "blockHash": "0x7a6a0a01ee9bc31770cec0eba1ab615562127e8fdb36924d0ac4f133c84d5a68",
          "blockNumber": "0x696aef",
          "blockTimestamp": "0x6714a046",
          "transactionHash": "0xddc4733996098b630b75268b42808a669347d70a8e14805782b0762233bb0d96",
          "transactionIndex": "0x1",
          "logIndex": "0x5",
          "removed": false
        },
        {
          "address": "0x0dcc19657007713483a5ca76e6a7bbe5f56ea37d",
          "topics": [
            "0x3b6e7e6ff858d016edf22112c8596ecf8f0a55591a3b84c35b993e0de85a0c84",
            "0x0000000000000000000000003b66afe4f14d8fcad40210ab263466efa03c8088",
            "0x000000000000000000000000dd6d76262fd7bdde428dcfcd94386ebae0151603",
            "0x0000000000000000000000003b66afe4f14d8fcad40210ab263466efa03c8088"
          ],
          "data": "0x",
          "blockHash": "0x7a6a0a01ee9bc31770cec0eba1ab615562127e8fdb36924d0ac4f133c84d5a68",
          "blockNumber": "0x696aef",
          "blockTimestamp": "0x6714a046",
          "transactionHash": "0xddc4733996098b630b75268b42808a669347d70a8e14805782b0762233bb0d96",
          "transactionIndex": "0x1",
          "logIndex": "0x6",
          "removed": false
        }
      ],
      "logsBloom": "0x00000000000008000000000000040000040000000000000000000000000000000000000000000000020000000000000000800000000000000000000000000000000000002000000000020000000000000000000020000000000000000000000000000080000000000000000000000000000000000000000000000000000000000001200000000000000000000000000000000000000000000000000000008000000000000080000000000000020000000000000000001000000000000000000000000000000000000000000002000000000000000000000000000000000040000000000000000000000000000000000080000040000000000200000000000080",
      "type": "0x2",
      "transactionHash": "0xddc4733996098b630b75268b42808a669347d70a8e14805782b0762233bb0d96",
      "transactionIndex": "0x1",
      "blockHash": "0x7a6a0a01ee9bc31770cec0eba1ab615562127e8fdb36924d0ac4f133c84d5a68",
      "blockNumber": "0x696aef",
      "gasUsed": "0x1bbe8",
      "effectiveGasPrice": "0x19535af",
      "blobGasPrice": "0x1",
      "from": "0x14137c968b4bcb48b2a244dcbb80c237a7af91b5",
      "to": "0x3b66afe4f14d8fcad40210ab263466efa03c8088",
      "contractAddress": null
    },
    {
      "status": "0x1",
      "cumulativeGasUsed": "0x29794",
      "logs": [
        {
          "address": "0x3b66afe4f14d8fcad40210ab263466efa03c8088",
          "topics": [
            "0xf347ee99503bf19c028bd6b18f3c676e82a9bb5b2bb5225aebe0fd62fd6a0d19"
          ],
          "data": "0x00000000000000000000000000000000000000000000008f4b281132460a0000",
          "blockHash": "0xc4c69f93b8845d63608a9bb306117923f3386972699c65f111b0c6554653806d",
          "blockNumber": "0x696af0",
          "blockTimestamp": "0x6714a047",
          "transactionHash": "0xf97967e68a54c5c3869e5308a2b3c2d07c32e42fa0e4d3f73bdb70f4028673f4",
          "transactionIndex": "0x0",
          "logIndex": "0x0",
          "removed": false
        },
        {
          "address": "0x8c4bcbe6b9ef47855f97e675296fa3f6fafa5f1a",
          "topics": [
            "0x40e9cecb9f5f1f1c5b9c97dec2917b7ee92e57ba5563708daca94dd84ad7112f",
            "0x38de98467cf81ec10e257d3d3c3f79c1a96738245935c7a20489aa4a5e355172",
            "0x000000000000000000000000e49d2815c231826cab58017e214bed19fe1c2dd4"
          ],
          "data": "0xffffffffffffffffffffffffffffffffffffffffffffffffffffffffff67698000000000000000000000000000000000000000000000000000000000006585870000000000000000000000000000000000000000aad666ac6002bbc01b5581120000000000000000000000000000000000000000000000000000000001312d00ffffffffffffffffffffffffffffffffffffffffffffffffffffffffffffe0660000000000000000000000000000000000000000000000000000000000000bb8",
          "blockHash": "0xc4c69f93b8845d63608a9bb306117923f3386972699c65f111b0c6554653806d",
          "blockNumber": "0x696af0",
          "blockTimestamp": "0x6714a047",
          "transactionHash": "0xf97967e68a54c5c3869e5308a2b3c2d07c32e42fa0e4d3f73bdb70f4028673f4",
          "transactionIndex": "0x0",
          "logIndex": "0x1",
          "removed": false
        },
        {
          "address": "0x64fd57525346daa1b32651b69acb1781ada451cd",
          "topics": [
            "0xddf252ad1be2c89b69c2b068fc378daa952ba7f163c4a11628f55a4df523b3ef",
            "0x00000000000000000000000014137c968b4bcb48b2a244dcbb80c237a7af91b5",
            "0x0000000000000000000000008c4bcbe6b9ef47855f97e675296fa3f6fafa5f1a"
          ],
          "data": "0x0000000000000000000000000000000000000000000000000000000000989680",
          "blockHash": "0xc4c69f93b8845d63608a9bb306117923f3386972699c65f111b0c6554653806d",
          "blockNumber": "0x696af0",
          "blockTimestamp": "0x6714a047",
          "transactionHash": "0xf97967e68a54c5c3869e5308a2b3c2d07c32e42fa0e4d3f73bdb70f4028673f4",
          "transactionIndex": "0x0",
          "logIndex": "0x2",
          "removed": false
        },
        {
          "address": "0x88541670e55cc00beefd87eb59edd1b7c511ac9a",
          "topics": [
            "0xddf252ad1be2c89b69c2b068fc378daa952ba7f163c4a11628f55a4df523b3ef",
            "0x0000000000000000000000008c4bcbe6b9ef47855f97e675296fa3f6fafa5f1a",
            "0x00000000000000000000000014137c968b4bcb48b2a244dcbb80c237a7af91b5"
          ],
          "data": "0x0000000000000000000000000000000000000000000000000000000000658587",
          "blockHash": "0xc4c69f93b8845d63608a9bb306117923f3386972699c65f111b0c6554653806d",
          "blockNumber": "0x696af0",
          "blockTimestamp": "0x6714a047",
          "transactionHash": "0xf97967e68a54c5c3869e5308a2b3c2d07c32e42fa0e4d3f73bdb70f4028673f4",
          "transactionIndex": "0x0",
          "logIndex": "0x3",
          "removed": false
        }
      ],
      "logsBloom": "0x00400000000000040000000000000000000000100000000000000000000000000000000000000000002000002000000000000000040000000000000000000200000800000000000000000008000000100000000000000020000800000008000000000000020000100000000000000000000000000000000000000010000000000000000000000000300000000000010000000000000000002800004000000000000008000000000000000000000000000000100000000000000000000000000000000002000080000000000200800000000020000000000000000000000000000000000000000000004000000000000000000000000000000000400100000000",
      "type": "0x2",
      "transactionHash": "0xf97967e68a54c5c3869e5308a2b3c2d07c32e42fa0e4d3f73bdb70f4028673f4",
      "transactionIndex": "0x0",
      "blockHash": "0xc4c69f93b8845d63608a9bb306117923f3386972699c65f111b0c6554653806d",
      "blockNumber": "0x696af0",
      "gasUsed": "0x29794",
      "effectiveGasPrice": "0x165fb6d",
      "blobGasPrice": "0x1",
      "from": "0x14137c968b4bcb48b2a244dcbb80c237a7af91b5",
      "to": "0xe49d2815c231826cab58017e214bed19fe1c2dd4",
      "contractAddress": null
    }
  ],
  "libraries": [],
  "pending": [],
  "returns": {},
  "timestamp": 1729405000,
  "chain": 11155111,
  "commit": "55bd007"
}