{
  "transactions": [
    {
      "hash": "0x6248eda0587099c69245175693471d3ff673dda87becc9a811caef9207cfcbf1",
      "transactionType": "CREATE2",
      "contractName": "StablePair",
      "contractAddress": "0xbd4edcbb3561252eb9a8c7d32a2faa3425778088",
      "function": null,
      "arguments": [
        "0x8C4BcBE6b9eF47855f97E675296FA3F6fafa5F1A"
      ],
      "transaction": {
        "from": "0xf39fd6e51aad88f6f4ce6ab8827279cfffb92266",
        "to": "0x4e59b44847b379578588920ca78fbf26c0b4956c",
        "gas": "0x159920",
        "value": "0x0",
        "input": "0x000000000000000000000000000000000000000000000000000000000001582c60a0604052346102a957604051601f61118e38819003918201601f19168301916001600160401b038311848410176102ad578084926020946040528339810103126102a957516001600160a01b03811681036102a9576080525f6101a06100646102c1565b8281528260208201528260408201528260608201528260808201528260a08201528260c08201528260e0820152826101008201528261012082015282610140820152826101608201528261018082015201525f6101a06100c26102c1565b8281528260208201528260408201528260608201528260808201528260a0820152600160c08201528260e0820152826101008201528261012082015260016101408201528261016082015282610180820152015261200030161580159061029c575b801561028f575b8015610282575b8015610275575b8015610268575b8015610258575b801561024c575b8015610240575b8015610234575b8015610224575b8015610218575b801561020c575b8015610200575b6101ed57600380546001600160a01b0319908116730dcc19657007713483a5ca76e6a7bbe5f56ea37d17909155600a5f55670de0b6b3a76400006001556002805490911633179055604051610eac90816102e2823960805181818161019601528181610225015281816106030152610c660152f35b630732d7b560e51b5f523060045260245ffd5b50600130161515610178565b50600230161515610171565b5060043016151561016a565b5060083016151560011415610163565b5060103016151561015c565b50602030161515610155565b5060403016151561014e565b5060803016151560011415610147565b5061010030161515610140565b5061020030161515610139565b5061040030161515610132565b506108003016151561012b565b5061100030161515610124565b5f80fd5b634e487b7160e01b5f52604160045260245ffd5b604051906101c082016001600160401b038111838210176102ad5760405256fe60806040526004361015610011575f80fd5b5f803560e01c806321d0ee7014610788578063259982e51461078857806332f929fc14610760578063544172fa14610745578063575e24b4146106c25780636c2bbe7e146105cc5780636fe7e6eb1461067a57806391dd7346146105d15780639f063efc146105cc578063a81a26771461059a578063a9b518ab146104f1578063b47b2fb114610489578063b6a8b0fa1461011f578063c4e833ce14610320578063cd8efff7146101c5578063dc4c90d314610180578063dc98354e14610141578063e185855214610124578063e1b4af691461011f5763fee9a5af146100f6575f80fd5b3461011c57602036600319011261011c576020610114600435610d8d565b604051908152f35b80fd5b6108d9565b503461011c5760a036600319011261011c57506020610114610d3c565b503461011c5760e036600319011261011c5761015b61078d565b5060a036602319011261011c576004906101736108b3565b50630a85dc2960e01b8152fd5b503461011c578060031936011261011c576040517f00000000000000000000000000000000000000000000000000000000000000006001600160a01b03168152602090f35b503461011c5760a036600319011261011c5760a06101e4366004610aa5565b20604051602081019182526006604082015260408152610205606082610a84565b519020604051631e2eaeaf60e01b815260048101919091526020816024817f00000000000000000000000000000000000000000000000000000000000000006001600160a01b03165afa9182156103145780926102d6575b60206102a56001600160a01b03610288610283606088901c6001600160401b0316610b49565b610b34565b1661029f60a0610299366004610aa5565b20610d8d565b9061092b565b7ff347ee99503bf19c028bd6b18f3c676e82a9bb5b2bb5225aebe0fd62fd6a0d1982604051838152a1604051908152f35b9091506020823d60201161030c575b816102f260209383610a84565b8101031261011c5750516102a56001600160401b0361025d565b3d91506102e5565b604051903d90823e3d90fd5b503461011c578060031936011261011c57806101c0916101a060405161034581610a54565b8281528260208201528260408201528260608201528260808201528260a08201528260c08201528260e082015282610100820152826101208201528261014082015282610160820152826101808201520152604051906103a482610a54565b808252602082019181835260408101828152606082018381526080830184815260a0840185815260c085016001815260e0860190878252610100870192888452610120880194898652610140890196600188526101608a01988b8a526101a06101808c019b8d8d52019b808d5260206040519e8f92835251151591015251151560408d015251151560608c015251151560808b015251151560a08a015251151560c089015251151560e08801525115156101008701525115156101208601525115156101408501525115156101608401525115156101808301525115156101a0820152f35b503461011c5761016036600319011261011c576104a461078d565b5060a036602319011261011c5760603660c319011261011c57610144356001600160401b0381116104ed57906104df600492369084016107b7565b5050630a85dc2960e01b8152fd5b5080fd5b5034610596576040366003190112610596576024356001600160a01b03811690819003610596576003546001600160a01b0316803b15610596575f809160246040518094819363c529a67960e01b83528760048401525af1801561058b57610576575b506004803583526020526040822080546001600160a01b031916909117905580f35b6105839192505f90610a84565b5f905f610554565b6040513d5f823e3d90fd5b5f80fd5b34610596576020366003190112610596576004355f526004602052602060018060a01b0360405f205416604051908152f35b610855565b34610596576020366003190112610596576004356001600160401b038111610596576106019036906004016107b7565b7f00000000000000000000000000000000000000000000000000000000000000006001600160a01b0316330361066b5761063f604091602093610df8565b815192839181835280519182918282860152018484015e5f828201840152601f01601f19168101030190f35b63570c108560e11b5f5260045ffd5b34610596576101003660031901126105965761069461078d565b5060a0366023190112610596576106a96108b3565b506106b26108c9565b50630a85dc2960e01b5f5260045ffd5b3461059657610140366003190112610596576106dc61078d565b5060a03660231901126105965760603660c319011261059657610124356001600160401b038111610596576107159036906004016107b7565b5050606062ffffff610725610a01565b906040939293519363ffffffff60e01b1684526020840152166040820152f35b346105965760a0366003190112610596576020610114610970565b34610596575f366003190112610596576003546040516001600160a01b039091168152602090f35b6107e4565b600435906001600160a01b038216820361059657565b35906001600160a01b038216820361059657565b9181601f84011215610596578235916001600160401b038311610596576020838186019501011161059657565b3461059657610160366003190112610596576004356001600160a01b0381168103610596575060a03660231901126105965760803660c319011261059657610144356001600160401b038111610596576108429036906004016107b7565b5050630a85dc2960e01b5f908152600490fd5b34610596576101a0366003190112610596576004356001600160a01b0381168103610596575060a03660231901126105965760803660c319011261059657610184356001600160401b038111610596576108429036906004016107b7565b60c435906001600160a01b038216820361059657565b60e435908160020b820361059657565b3461059657610120366003190112610596576004356001600160a01b0381168103610596575060a036602319011261059657610104356001600160401b038111610596576108429036906004016107b7565b8181029291811591840414171561093e57565b634e487b7160e01b5f52601160045260245ffd5b811561095c570490565b634e487b7160e01b5f52601260045260245ffd5b61097a6004610c18565b60015490818110156109f25760648102908082046064149015171561093e576109ae916109a691610952565b5f549061092b565b603281106109d2575060325b612710810290808204612710149015171561093e5790565b60640360648111156109ba57634e487b7160e01b5f52601160045260245ffd5b50505f90565b61097a90610c18565b5f60e43512156105965760c43580151581036105965715610a4a57610a266024610d84565b6101f4810180911161093e576315d7892d60e21b915f9162ffffff16624000001790565b610a2660246109f8565b6101c081019081106001600160401b03821117610a7057604052565b634e487b7160e01b5f52604160045260245ffd5b90601f801991011681019081106001600160401b03821117610a7057604052565b91908260a09103126105965760405160a081018181106001600160401b03821117610a70576040528092610ad8816107a3565b8252610ae6602082016107a3565b6020830152604081013562ffffff811681036105965760408301526060810135908160020b820361059657606083019190915260800135906001600160a01b03821682036105965760800152565b6001600160a01b0316801561095c5760010490565b5f9080156109f2578080600114610c1057600214610c095760016101338210166001600b83101617610bf2579060019060025b60018111610baf57506001600160a01b038390048211610b9b57500290565b634e487b7160e01b81526011600452602490fd5b926001600160a01b038190048111610bde5760018416610bd5575b80029260011c610b7c565b80920291610bca565b634e487b7160e01b82526011600452602482fd5b6002900a91906001600160a01b038311610b9b5750565b5050600490565b505050600190565b60a0610c243683610aa5565b20604051602081019182526006604082015260408152610c45606082610a84565b519020604051631e2eaeaf60e01b81526004810191909152906020826024817f00000000000000000000000000000000000000000000000000000000000000006001600160a01b03165afa91821561058b575f92610d06575b50610cd99161029f9060a090610299906001600160a01b0390610cd0906102839060601c6001600160401b0316610b49565b16933690610aa5565b7ff347ee99503bf19c028bd6b18f3c676e82a9bb5b2bb5225aebe0fd62fd6a0d196020604051838152a190565b91506020823d602011610d34575b81610d2160209383610a84565b810103126105965790519061029f610c9e565b3d9150610d14565b610d466004610c18565b600154808211156109f25760648202918083046064149015171561093e57610d6d91610952565b606319810190811161093e575f546109ae9161092b565b610d4690610c18565b5f5260046020526004602060018060a01b0360405f205416604051928380926315f789a960e21b82525afa90811561058b575f91610dc9575090565b90506020813d602011610df0575b81610de460209383610a84565b81010312610596575190565b3d9150610dd7565b5f9182918160405192839283378101838152039082305af1903d15610e6e573d916001600160401b038311610a705760405192610e3f601f8201601f191660200185610a84565b83523d5f602085013e5b610e6c5750805115610e5d57602081519101fd5b6314815f4760e31b5f5260045ffd5b565b606091610e4956fea2646970667358221220e2152a1faeb9150e14da8a031d70ae9f41232a3a0febd71b8b0840fd43dac9d064736f6c634300081a00330000000000000000000000008c4bcbe6b9ef47855f97e675296fa3f6fafa5f1a",
        "nonce": "0x2f1d",
        "chainId": "0xaa36a7"
      },
      "additionalContracts": [],
      "isFixedGasLimit": false
    },
    {
      "hash": "0x06684dd63aaab244bb1ccf779b30f395c744d33311b01703396a16560deea754",
      "transactionType": "CREATE",
      "contractName": null,
      "contractAddress": "0xa241cd318b6376aa186e1fbb132078e434978896",
      "function": null,
      "arguments": null,
      "transaction": {
        "from": "0xf39fd6e51aad88f6f4ce6ab8827279cfffb92266",
        "gas": "0xe1ac7",
        "value": "0x0",
        "input": "0x60e0806040523461040657610f8b803803809161001c828561040a565b83398101906060818303126104065780516001600160401b038111610406578261004791830161042d565b60208201519092906001600160401b0381116104065760409161006b91840161042d565b91015160ff811681036104065782516001600160401b038111610337576100925f54610482565b601f81116103b7575b506020601f821160011461035657819293945f9261034b575b50508160011b915f199060031b1c1916175f555b81516001600160401b038111610337576100e3600154610482565b601f81116102d4575b50602092601f821160011461027357928192935f92610268575b50508160011b915f199060031b1c1916176001555b6080524660a0526040515f905f54918161013484610482565b9182825260208201946001811690815f1461024c5750600114610202575b61015e9250038261040a565b51902060405160208101917f8b73c3c69bb8fe3d512ecc4cf759cc79239f7b179b0ffacaa9a75d522b39400f835260408201527fc89efdaa54c0f20c7adf612882df0950f5a951637e0307cdcb4c672f298b8bc660608201524660808201523060a082015260a081526101d260c08261040a565b51902060c052604051610ab090816104bb8239608051816105e3015260a051816108e3015260c051816109090152f35b505f80805290915f80516020610f6b8339815191525b81831061023057505090602061015e92820101610152565b6020919350806001915483858801015201910190918392610218565b60ff191686525061015e92151560051b82016020019050610152565b015190505f80610106565b601f1982169360015f52805f20915f5b8681106102bc57508360019596106102a4575b505050811b0160015561011b565b01515f1960f88460031b161c191690555f8080610296565b91926020600181928685015181550194019201610283565b60015f527fb10e2d527612073b26eecdfd717e6a320cf44b4afac2b0732d9fcbe2b7fa0cf6601f830160051c8101916020841061032d575b601f0160051c01905b81811061032257506100ec565b5f8155600101610315565b909150819061030c565b634e487b7160e01b5f52604160045260245ffd5b015190505f806100b4565b601f198216905f8052805f20915f5b81811061039f57509583600195969710610387575b505050811b015f556100c8565b01515f1960f88460031b161c191690555f808061037a565b9192602060018192868b015181550194019201610365565b5f80525f80516020610f6b833981519152601f830160051c810191602084106103fc575b601f0160051c01905b8181106103f1575061009b565b5f81556001016103e4565b90915081906103db565b5f80fd5b601f909101601f19168101906001600160401b0382119082101761033757604052565b81601f82011215610406578051906001600160401b0382116103375760405192610461601f8401601f19166020018561040a565b8284526020838301011161040657815f9260208093018386015e8301015290565b90600182811c921680156104b0575b602083101461049c57565b634e487b7160e01b5f52602260045260245ffd5b91607f169161049156fe60806040526004361015610011575f80fd5b5f3560e01c806306fdde031461076d578063095ea7b3146106f457806318160ddd146106d757806323b872dd14610607578063313ce567146105ca5780633644e515146105a857806340c10f191461053057806370a08231146104f85780637ecebe00146104c057806395d89b41146103e65780639dc29fac14610386578063a9059cbb14610311578063d505accf146101075763dd62ed3e146100b3575f80fd5b34610103576040366003190112610103576100cc6108a7565b6100d46108bd565b6001600160a01b039182165f908152600460209081526040808320949093168252928352819020549051908152f35b5f80fd5b346101035760e0366003190112610103576101206108a7565b6101286108bd565b6044356064359260843560ff8116809103610103574285106102cc5760805f916020936101536108e0565b9060018060a01b03169687855260058652604085209889549960018b01905560405190878201927f6e71edae12b1b97f4d1f60370fef10105fa2faae0126114a169c64845d6126c984528a604084015260018060a01b03169a8b6060840152898784015260a083015260c082015260c081526101d060e082610847565b519020604051908682019261190160f01b845260228301526042820152604281526101fc606282610847565b519020906040519182528482015260a435604082015260c435606082015282805260015afa156102c1575f516001600160a01b0316801515806102b8575b15610282577f8c5be1e5ebec7d5bd14f71427d1e84f3dd0314c0f7b2291e5b200ac8c7c3b925916020915f526004825260405f20855f5282528060405f2055604051908152a3005b60405162461bcd60e51b815260206004820152600e60248201526d24a72b20a624a22fa9a4a3a722a960911b6044820152606490fd5b5082811461023a565b6040513d5f823e3d90fd5b60405162461bcd60e51b815260206004820152601760248201527f5045524d49545f444541444c494e455f455850495245440000000000000000006044820152606490fd5b346101035760403660031901126101035761032a6108a7565b60243590335f52600360205260405f206103458382546108d3565b905560018060a01b031690815f52600360205260405f208181540190556040519081525f80516020610a5b83398151915260203392a3602060405160018152f35b34610103576040366003190112610103575f6103a06108a7565b5f80516020610a5b83398151915260206024359260018060a01b03169283855260038252604085206103d38282546108d3565b90558060025403600255604051908152a3005b34610103575f366003190112610103576040515f6001546104068161080f565b808452906001811690811561049c575060011461043e575b61043a8361042e81850382610847565b6040519182918261087d565b0390f35b60015f9081527fb10e2d527612073b26eecdfd717e6a320cf44b4afac2b0732d9fcbe2b7fa0cf6939250905b8082106104825750909150810160200161042e61041e565b91926001816020925483858801015201910190929161046a565b60ff191660208086019190915291151560051b8401909101915061042e905061041e565b34610103576020366003190112610103576001600160a01b036104e16108a7565b165f526005602052602060405f2054604051908152f35b34610103576020366003190112610103576001600160a01b036105196108a7565b165f526003602052602060405f2054604051908152f35b34610103576040366003190112610103576105496108a7565b60243590600254908282018092116105945760205f80516020610a5b833981519152915f9360025560018060a01b0316938484526003825260408420818154019055604051908152a3005b634e487b7160e01b5f52601160045260245ffd5b34610103575f3660031901126101035760206105c26108e0565b604051908152f35b34610103575f36600319011261010357602060405160ff7f0000000000000000000000000000000000000000000000000000000000000000168152f35b34610103576060366003190112610103576106206108a7565b6106286108bd565b6001600160a01b039091165f818152600460209081526040808320338452825290912054604435935f80516020610a5b833981519152929185600182016106b2575b5050835f526003825260405f206106828682546108d3565b90556001600160a01b03165f818152600383526040908190208054870190555194855293a3602060405160018152f35b6106bb916108d3565b5f8581526004845260408082203383528552902055858561066a565b34610103575f366003190112610103576020600254604051908152f35b346101035760403660031901126101035761070d6108a7565b335f8181526004602090815260408083206001600160a01b03909516808452948252918290206024359081905591519182527f8c5be1e5ebec7d5bd14f71427d1e84f3dd0314c0f7b2291e5b200ac8c7c3b92591a3602060405160018152f35b34610103575f366003190112610103576040515f805461078c8161080f565b808452906001811690811561049c57506001146107b35761043a8361042e81850382610847565b5f8080527f290decd9548b62a8d60345a988386fc84ba6bc95484008f6362f93160ef3e563939250905b8082106107f55750909150810160200161042e61041e565b9192600181602092548385880101520191019092916107dd565b90600182811c9216801561083d575b602083101461082957565b634e487b7160e01b5f52602260045260245ffd5b91607f169161081e565b90601f8019910116810190811067ffffffffffffffff82111761086957604052565b634e487b7160e01b5f52604160045260245ffd5b602060409281835280519182918282860152018484015e5f828201840152601f01601f1916010190565b600435906001600160a01b038216820361010357565b602435906001600160a01b038216820361010357565b9190820391821161059457565b467f00000000000000000000000000000000000000000000000000000000000000000361092b577f000000000000000000000000000000000000000000000000000000000000000090565b6040515f905f54918161093d8461080f565b9182825260208201946001811690815f14610a3e57506001146109e1575b61096792500382610847565b51902060405160208101917f8b73c3c69bb8fe3d512ecc4cf759cc79239f7b179b0ffacaa9a75d522b39400f835260408201527fc89efdaa54c0f20c7adf612882df0950f5a951637e0307cdcb4c672f298b8bc660608201524660808201523060a082015260a081526109db60c082610847565b51902090565b505f80805290917f290decd9548b62a8d60345a988386fc84ba6bc95484008f6362f93160ef3e5635b818310610a225750509060206109679282010161095b565b6020919350806001915483858801015201910190918392610a0a565b60ff191686525061096792151560051b8201602001905061095b56feddf252ad1be2c89b69c2b068fc378daa952ba7f163c4a11628f55a4df523b3efa264697066735822122096b781c1c62a7ad2ca8d4cd2154ec63ff16ea9e9f22d3aa35ee04bafc056a49f64736f6c634300081a0033290decd9548b62a8d60345a988386fc84ba6bc95484008f6362f93160ef3e563000000000000000000000000000000000000000000000000000000000000006000000000000000000000000000000000000000000000000000000000000000a0000000000000000000000000000000000000000000000000000000000000001200000000000000000000000000000000000000000000000000000000000000054d6f636b4100000000000000000000000000000000000000000000000000000000000000000000000000000000000000000000000000000000000000000000014100000000000000000000000000000000000000000000000000000000000000",
        "nonce": "0x2f1e",
        "chainId": "0xaa36a7"
      },
      "additionalContracts": [],
      "isFixedGasLimit": false
    },
    {
      "hash": "0x17ab1b14fe27fd42ee4abd412fbaba35a3e38b63f3ca10077dec9fef8e08e361",
      "transactionType": "CREATE",
      "contractName": null,
      "contractAddress": "0xfeff44b288aafbd39a07d44476f96659e67d10b8",
      "function": null,
      "arguments": null,
      "transaction": {
        "from": "0xf39fd6e51aad88f6f4ce6ab8827279cfffb92266",
        "gas": "0xe1ac7",
        "value": "0x0",
        "input": "0x60e0806040523461040657610f8b803803809161001c828561040a565b83398101906060818303126104065780516001600160401b038111610406578261004791830161042d565b60208201519092906001600160401b0381116104065760409161006b91840161042d565b91015160ff811681036104065782516001600160401b038111610337576100925f54610482565b601f81116103b7575b506020601f821160011461035657819293945f9261034b575b50508160011b915f199060031b1c1916175f555b81516001600160401b038111610337576100e3600154610482565b601f81116102d4575b50602092601f821160011461027357928192935f92610268575b50508160011b915f199060031b1c1916176001555b6080524660a0526040515f905f54918161013484610482565b9182825260208201946001811690815f1461024c5750600114610202575b61015e9250038261040a565b51902060405160208101917f8b73c3c69bb8fe3d512ecc4cf759cc79239f7b179b0ffacaa9a75d522b39400f835260408201527fc89efdaa54c0f20c7adf612882df0950f5a951637e0307cdcb4c672f298b8bc660608201524660808201523060a082015260a081526101d260c08261040a565b51902060c052604051610ab090816104bb8239608051816105e3015260a051816108e3015260c051816109090152f35b505f80805290915f80516020610f6b8339815191525b81831061023057505090602061015e92820101610152565b6020919350806001915483858801015201910190918392610218565b60ff191686525061015e92151560051b82016020019050610152565b015190505f80610106565b601f1982169360015f52805f20915f5b8681106102bc57508360019596106102a4575b505050811b0160015561011b565b01515f1960f88460031b161c191690555f8080610296565b91926020600181928685015181550194019201610283565b60015f527fb10e2d527612073b26eecdfd717e6a320cf44b4afac2b0732d9fcbe2b7fa0cf6601f830160051c8101916020841061032d575b601f0160051c01905b81811061032257506100ec565b5f8155600101610315565b909150819061030c565b634e487b7160e01b5f52604160045260245ffd5b015190505f806100b4565b601f198216905f8052805f20915f5b81811061039f57509583600195969710610387575b505050811b015f556100c8565b01515f1960f88460031b161c191690555f808061037a565b9192602060018192868b015181550194019201610365565b5f80525f80516020610f6b833981519152601f830160051c810191602084106103fc575b601f0160051c01905b8181106103f1575061009b565b5f81556001016103e4565b90915081906103db565b5f80fd5b601f909101601f19168101906001600160401b0382119082101761033757604052565b81601f82011215610406578051906001600160401b0382116103375760405192610461601f8401601f19166020018561040a565b8284526020838301011161040657815f9260208093018386015e8301015290565b90600182811c921680156104b0575b602083101461049c57565b634e487b7160e01b5f52602260045260245ffd5b91607f169161049156fe60806040526004361015610011575f80fd5b5f3560e01c806306fdde031461076d578063095ea7b3146106f457806318160ddd146106d757806323b872dd14610607578063313ce567146105ca5780633644e515146105a857806340c10f191461053057806370a08231146104f85780637ecebe00146104c057806395d89b41146103e65780639dc29fac14610386578063a9059cbb14610311578063d505accf146101075763dd62ed3e146100b3575f80fd5b34610103576040366003190112610103576100cc6108a7565b6100d46108bd565b6001600160a01b039182165f908152600460209081526040808320949093168252928352819020549051908152f35b5f80fd5b346101035760e0366003190112610103576101206108a7565b6101286108bd565b6044356064359260843560ff8116809103610103574285106102cc5760805f916020936101536108e0565b9060018060a01b03169687855260058652604085209889549960018b01905560405190878201927f6e71edae12b1b97f4d1f60370fef10105fa2faae0126114a169c64845d6126c984528a604084015260018060a01b03169a8b6060840152898784015260a083015260c082015260c081526101d060e082610847565b519020604051908682019261190160f01b845260228301526042820152604281526101fc606282610847565b519020906040519182528482015260a435604082015260c435606082015282805260015afa156102c1575f516001600160a01b0316801515806102b8575b15610282577f8c5be1e5ebec7d5bd14f71427d1e84f3dd0314c0f7b2291e5b200ac8c7c3b925916020915f526004825260405f20855f5282528060405f2055604051908152a3005b60405162461bcd60e51b815260206004820152600e60248201526d24a72b20a624a22fa9a4a3a722a960911b6044820152606490fd5b5082811461023a565b6040513d5f823e3d90fd5b60405162461bcd60e51b815260206004820152601760248201527f5045524d49545f444541444c494e455f455850495245440000000000000000006044820152606490fd5b346101035760403660031901126101035761032a6108a7565b60243590335f52600360205260405f206103458382546108d3565b905560018060a01b031690815f52600360205260405f208181540190556040519081525f80516020610a5b83398151915260203392a3602060405160018152f35b34610103576040366003190112610103575f6103a06108a7565b5f80516020610a5b83398151915260206024359260018060a01b03169283855260038252604085206103d38282546108d3565b90558060025403600255604051908152a3005b34610103575f366003190112610103576040515f6001546104068161080f565b808452906001811690811561049c575060011461043e575b61043a8361042e81850382610847565b6040519182918261087d565b0390f35b60015f9081527fb10e2d527612073b26eecdfd717e6a320cf44b4afac2b0732d9fcbe2b7fa0cf6939250905b8082106104825750909150810160200161042e61041e565b91926001816020925483858801015201910190929161046a565b60ff191660208086019190915291151560051b8401909101915061042e905061041e565b34610103576020366003190112610103576001600160a01b036104e16108a7565b165f526005602052602060405f2054604051908152f35b34610103576020366003190112610103576001600160a01b036105196108a7565b165f526003602052602060405f2054604051908152f35b34610103576040366003190112610103576105496108a7565b60243590600254908282018092116105945760205f80516020610a5b833981519152915f9360025560018060a01b0316938484526003825260408420818154019055604051908152a3005b634e487b7160e01b5f52601160045260245ffd5b34610103575f3660031901126101035760206105c26108e0565b604051908152f35b34610103575f36600319011261010357602060405160ff7f0000000000000000000000000000000000000000000000000000000000000000168152f35b34610103576060366003190112610103576106206108a7565b6106286108bd565b6001600160a01b039091165f818152600460209081526040808320338452825290912054604435935f80516020610a5b833981519152929185600182016106b2575b5050835f526003825260405f206106828682546108d3565b90556001600160a01b03165f818152600383526040908190208054870190555194855293a3602060405160018152f35b6106bb916108d3565b5f8581526004845260408082203383528552902055858561066a565b34610103575f366003190112610103576020600254604051908152f35b346101035760403660031901126101035761070d6108a7565b335f8181526004602090815260408083206001600160a01b03909516808452948252918290206024359081905591519182527f8c5be1e5ebec7d5bd14f71427d1e84f3dd0314c0f7b2291e5b200ac8c7c3b92591a3602060405160018152f35b34610103575f366003190112610103576040515f805461078c8161080f565b808452906001811690811561049c57506001146107b35761043a8361042e81850382610847565b5f8080527f290decd9548b62a8d60345a988386fc84ba6bc95484008f6362f93160ef3e563939250905b8082106107f55750909150810160200161042e61041e565b9192600181602092548385880101520191019092916107dd565b90600182811c9216801561083d575b602083101461082957565b634e487b7160e01b5f52602260045260245ffd5b91607f169161081e565b90601f8019910116810190811067ffffffffffffffff82111761086957604052565b634e487b7160e01b5f52604160045260245ffd5b602060409281835280519182918282860152018484015e5f828201840152601f01601f1916010190565b600435906001600160a01b038216820361010357565b602435906001600160a01b038216820361010357565b9190820391821161059457565b467f00000000000000000000000000000000000000000000000000000000000000000361092b577f000000000000000000000000000000000000000000000000000000000000000090565b6040515f905f54918161093d8461080f565b9182825260208201946001811690815f14610a3e57506001146109e1575b61096792500382610847565b51902060405160208101917f8b73c3c69bb8fe3d512ecc4cf759cc79239f7b179b0ffacaa9a75d522b39400f835260408201527fc89efdaa54c0f20c7adf612882df0950f5a951637e0307cdcb4c672f298b8bc660608201524660808201523060a082015260a081526109db60c082610847565b51902090565b505f80805290917f290decd9548b62a8d60345a988386fc84ba6bc95484008f6362f93160ef3e5635b818310610a225750509060206109679282010161095b565b6020919350806001915483858801015201910190918392610a0a565b60ff191686525061096792151560051b8201602001905061095b56feddf252ad1be2c89b69c2b068fc378daa952ba7f163c4a11628f55a4df523b3efa264697066735822122096b781c1c62a7ad2ca8d4cd2154ec63ff16ea9e9f22d3aa35ee04bafc056a49f64736f6c634300081a0033290decd9548b62a8d60345a988386fc84ba6bc95484008f6362f93160ef3e563000000000000000000000000000000000000000000000000000000000000006000000000000000000000000000000000000000000000000000000000000000a0000000000000000000000000000000000000000000000000000000000000001200000000000000000000000000000000000000000000000000000000000000054d6f636b4200000000000000000000000000000000000000000000000000000000000000000000000000000000000000000000000000000000000000000000014200000000000000000000000000000000000000000000000000000000000000",
        "nonce": "0x2f1f",
        "chainId": "0xaa36a7"
      },
      "additionalContracts": [],
      "isFixedGasLimit": false
    },
    {
      "hash": "0xaeffa614b422ce878c089b66b2f6cd3be08238f7d7728712deed2fd892dc11fd",
      "transactionType": "CALL",
      "contractName": null,
      "contractAddress": "0xa241cd318b6376aa186e1fbb132078e434978896",
      "function": "mint(address,uint256)",
      "arguments": [
        "0xf39Fd6e51aad88F6F4ce6aB8827279cffFb92266",
        "100000000000000000000000"
      ],
      "transaction": {
        "from": "0xf39fd6e51aad88f6f4ce6ab8827279cfffb92266",
        "to": "0xa241cd318b6376aa186e1fbb132078e434978896",
        "gas": "0x1855a",
        "value": "0x0",
        "input": "0x40c10f19000000000000000000000000f39fd6e51aad88f6f4ce6ab8827279cfffb9226600000000000000000000000000000000000000000000152d02c7e14af6800000",
        "nonce": "0x2f20",
        "chainId": "0xaa36a7"
      },
      "additionalContracts": [],
      "isFixedGasLimit": false
    },
    {
      "hash": "0x4d1a42c5a3ab30462eb76da18aa9adf2311107b6cc13555d7ed1ac41b2a40e02",
      "transactionType": "CALL",
      "contractName": null,
      "contractAddress": "0xfeff44b288aafbd39a07d44476f96659e67d10b8",
      "function": "mint(address,uint256)",
      "arguments": [
        "0xf39Fd6e51aad88F6F4ce6aB8827279cffFb92266",
        "100000000000000000000000"
      ],
      "transaction": {
        "from": "0xf39fd6e51aad88f6f4ce6ab8827279cfffb92266",
        "to": "0xfeff44b288aafbd39a07d44476f96659e67d10b8",
        "gas": "0x1855a",
        "value": "0x0",
        "input": "0x40c10f19000000000000000000000000f39fd6e51aad88f6f4ce6ab8827279cfffb9226600000000000000000000000000000000000000000000152d02c7e14af6800000",
        "nonce": "0x2f21",
        "chainId": "0xaa36a7"
      },
      "additionalContracts": [],
      "isFixedGasLimit": false
    },
    {
      "hash": "0xeae2d4a599a416e6b52018b053e9bf59bb1fc5d730b28bb7fcb5263d08bea530",
      "transactionType": "CALL",
      "contractName": null,
      "contractAddress": "0x8c4bcbe6b9ef47855f97e675296fa3f6fafa5f1a",
      "function": "initialize((address,address,uint24,int24,address),uint160)",
      "arguments": [
        "(0xA241CD318b6376aA186e1Fbb132078E434978896, 0xFEFF44B288aafbd39a07D44476F96659e67D10b8, 3000, 60, 0xbd4EDCbb3561252eb9a8C7d32A2FAa3425778088)",
        "79228162514264337593543950336"
      ],
      "transaction": {
        "from": "0xf39fd6e51aad88f6f4ce6ab8827279cfffb92266",
        "to": "0x8c4bcbe6b9ef47855f97e675296fa3f6fafa5f1a",
        "gas": "0x1174e",
        "value": "0x0",
        "input": "0x6276cbbe000000000000000000000000a241cd318b6376aa186e1fbb132078e434978896000000000000000000000000feff44b288aafbd39a07d44476f96659e67d10b80000000000000000000000000000000000000000000000000000000000000bb8000000000000000000000000000000000000000000000000000000000000003c000000000000000000000000bd4edcbb3561252eb9a8c7d32a2faa34257780880000000000000000000000000000000000000001000000000000000000000000",
        "nonce": "0x2f22",
        "chainId": "0xaa36a7"
      },
      "additionalContracts": [],
      "isFixedGasLimit": false
    },
    {
      "hash": "0x79c265264876dbe385bc15ed6a4e8294bce5d2da2eadd0b29cbf2d87a6be60d0",
      "transactionType": "CALL",
      "contractName": "StablePair",
      "contractAddress": "0xbd4edcbb3561252eb9a8c7d32a2faa3425778088",
      "function": "addOracle(bytes32,address)",
      "arguments": [
        "0x91799a57dee87f79549cce014f32a658ed1af40301051cd89e9ba20f6b188486",
        "0xdd6D76262Fd7BdDe428dcfCd94386EbAe0151603"
      ],
      "transaction": {
        "from": "0xf39fd6e51aad88f6f4ce6ab8827279cfffb92266",
        "to": "0xbd4edcbb3561252eb9a8c7d32a2faa3425778088",
        "gas": "0x28916",
        "value": "0x0",
        "input": "0xa9b518ab91799a57dee87f79549cce014f32a658ed1af40301051cd89e9ba20f6b188486000000000000000000000000dd6d76262fd7bdde428dcfcd94386ebae0151603",
        "nonce": "0x2f23",
        "chainId": "0xaa36a7"
      },
      "additionalContracts": [],
      "isFixedGasLimit": false
    },
    {
      "hash": "0x0cf0bd192777d26587c1dbf9259feff257f520ad6e1dc0f3306606e0ebb27176",
      "transactionType": "CALL",
      "contractName": null,
      "contractAddress": "0xa241cd318b6376aa186e1fbb132078e434978896",
      "function": "approve(address,uint256)",
      "arguments": [
        "0x496CD7097f0BDd32774dA3D2F1Ef0adF430b7e81",
        "115792089237316195423570985008687907853269984665640564039457584007913129639935"
      ],
      "transaction": {
        "from": "0xf39fd6e51aad88f6f4ce6ab8827279cfffb92266",
        "to": "0xa241cd318b6376aa186e1fbb132078e434978896",
        "gas": "0x10837",
        "value": "0x0",
        "input": "0x095ea7b3000000000000000000000000496cd7097f0bdd32774da3d2f1ef0adf430b7e81ffffffffffffffffffffffffffffffffffffffffffffffffffffffffffffffff",
        "nonce": "0x2f24",
        "chainId": "0xaa36a7"
      },
      "additionalContracts": [],
      "isFixedGasLimit": false
    },
    {
      "hash": "0xba3ee9df0708fcb33fb7fa81fcc8f4f96acb2d22dcdc0e8897f25c8078cf5c4b",
      "transactionType": "CALL",
      "contractName": null,
      "contractAddress": "0xfeff44b288aafbd39a07d44476f96659e67d10b8",
      "function": "approve(address,uint256)",
      "arguments": [
        "0x496CD7097f0BDd32774dA3D2F1Ef0adF430b7e81",
        "115792089237316195423570985008687907853269984665640564039457584007913129639935"
      ],
      "transaction": {
        "from": "0xf39fd6e51aad88f6f4ce6ab8827279cfffb92266",
        "to": "0xfeff44b288aafbd39a07d44476f96659e67d10b8",
        "gas": "0x10837",
        "value": "0x0",
        "input": "0x095ea7b3000000000000000000000000496cd7097f0bdd32774da3d2f1ef0adf430b7e81ffffffffffffffffffffffffffffffffffffffffffffffffffffffffffffffff",
        "nonce": "0x2f25",
        "chainId": "0xaa36a7"
      },
      "additionalContracts": [],
      "isFixedGasLimit": false
    },
    {
      "hash": "0x7df89b3c7f23d1007acf34b43a6661be1de62056552cfab97c43f96c5737797e",
      "transactionType": "CALL",
      "contractName": null,
      "contractAddress": "0xa241cd318b6376aa186e1fbb132078e434978896",
      "function": "approve(address,uint256)",
      "arguments": [
        "0xe49d2815C231826caB58017e214Bed19fE1c2dD4",
        "115792089237316195423570985008687907853269984665640564039457584007913129639935"
      ],
      "transaction": {
        "from": "0xf39fd6e51aad88f6f4ce6ab8827279cfffb92266",
        "to": "0xa241cd318b6376aa186e1fbb132078e434978896",
        "gas": "0x10837",
        "value": "0x0",
        "input": "0x095ea7b3000000000000000000000000e49d2815c231826cab58017e214bed19fe1c2dd4ffffffffffffffffffffffffffffffffffffffffffffffffffffffffffffffff",
        "nonce": "0x2f26",
        "chainId": "0xaa36a7"
      },
      "additionalContracts": [],
      "isFixedGasLimit": false
    },
    {
      "hash": "0x0df38f019d4ecf4e0b87814d9c0132b41e517c105e8ca83dc1e82a4d4d41d053",
      "transactionType": "CALL",
      "contractName": null,
      "contractAddress": "0xfeff44b288aafbd39a07d44476f96659e67d10b8",
      "function": "approve(address,uint256)",
      "arguments": [
        "0xe49d2815C231826caB58017e214Bed19fE1c2dD4",
        "115792089237316195423570985008687907853269984665640564039457584007913129639935"
      ],
      "transaction": {
        "from": "0xf39fd6e51aad88f6f4ce6ab8827279cfffb92266",
        "to": "0xfeff44b288aafbd39a07d44476f96659e67d10b8",
        "gas": "0x10837",
        "value": "0x0",
        "input": "0x095ea7b3000000000000000000000000e49d2815c231826cab58017e214bed19fe1c2dd4ffffffffffffffffffffffffffffffffffffffffffffffffffffffffffffffff",
        "nonce": "0x2f27",
        "chainId": "0xaa36a7"
      },
      "additionalContracts": [],
      "isFixedGasLimit": false
    },
    {
      "hash": "0x88ab860341d6cfe2638170d69c491fb7ef140f23fa57248dfe791c188db4b8ac",
      "transactionType": "CALL",
      "contractName": null,
      "contractAddress": "0xa241cd318b6376aa186e1fbb132078e434978896",
      "function": "approve(address,uint256)",
      "arguments": [
        "0x000000000022D473030F116dDEE9F6B43aC78BA3",
        "115792089237316195423570985008687907853269984665640564039457584007913129639935"
      ],
      "transaction": {
        "from": "0xf39fd6e51aad88f6f4ce6ab8827279cfffb92266",
        "to": "0xa241cd318b6376aa186e1fbb132078e434978896",
        "gas": "0xf935",
        "value": "0x0",
        "input": "0x095ea7b3000000000000000000000000000000000022d473030f116ddee9f6b43ac78ba3ffffffffffffffffffffffffffffffffffffffffffffffffffffffffffffffff",
        "nonce": "0x2f28",
        "chainId": "0xaa36a7"
      },
      "additionalContracts": [],
      "isFixedGasLimit": false
    },
    {
      "hash": "0xb26d041ad9af3a68cf5269b01cd5dd742c4b04fc094c02b6dfa9fafb968e73c3",
      "transactionType": "CALL",
      "contractName": null,
      "contractAddress": "0x000000000022d473030f116ddee9f6b43ac78ba3",
      "function": "approve(address,address,uint160,uint48)",
      "arguments": [
        "0xA241CD318b6376aA186e1Fbb132078E434978896",
        "0x1B1C77B606d13b09C84d1c7394B96b147bC03147",
        "1461501637330902918203684832716283019655932542975",
        "281474976710655"
      ],
      "transaction": {
        "from": "0xf39fd6e51aad88f6f4ce6ab8827279cfffb92266",
        "to": "0x000000000022d473030f116ddee9f6b43ac78ba3",
        "gas": "0x1112d",
        "value": "0x0",
        "input": "0x87517c45000000000000000000000000a241cd318b6376aa186e1fbb132078e4349788960000000000000000000000001b1c77b606d13b09c84d1c7394b96b147bc03147000000000000000000000000ffffffffffffffffffffffffffffffffffffffff0000000000000000000000000000000000000000000000000000ffffffffffff",
        "nonce": "0x2f29",
        "chainId": "0xaa36a7"
      },
      "additionalContracts": [],
      "isFixedGasLimit": false
    },
    {
      "hash": "0x688e7c1572d6700637bb900d7c255f05c43e7848e198cca8b5537d2eb7bf23c6",
      "transactionType": "CALL",
      "contractName": null,
      "contractAddress": "0xfeff44b288aafbd39a07d44476f96659e67d10b8",
      "function": "approve(address,uint256)",
      "arguments": [
        "0x000000000022D473030F116dDEE9F6B43aC78BA3",
        "115792089237316195423570985008687907853269984665640564039457584007913129639935"
      ],
      "transaction": {
        "from": "0xf39fd6e51aad88f6f4ce6ab8827279cfffb92266",
        "to": "0xfeff44b288aafbd39a07d44476f96659e67d10b8",
        "gas": "0xf935",
        "value": "0x0",
        "input": "0x095ea7b3000000000000000000000000000000000022d473030f116ddee9f6b43ac78ba3ffffffffffffffffffffffffffffffffffffffffffffffffffffffffffffffff",
        "nonce": "0x2f2a",
        "chainId": "0xaa36a7"
      },
      "additionalContracts": [],
      "isFixedGasLimit": false
    },
    {
      "hash": "0x5dcc67df27d978758d344dab9df6c1262f241148548efa0664c4416289dfbcdd",
      "transactionType": "CALL",
      "contractName": null,
      "contractAddress": "0x000000000022d473030f116ddee9f6b43ac78ba3",
      "function": "approve(address,address,uint160,uint48)",
      "arguments": [
        "0xFEFF44B288aafbd39a07D44476F96659e67D10b8",
        "0x1B1C77B606d13b09C84d1c7394B96b147bC03147",
        "1461501637330902918203684832716283019655932542975",
        "281474976710655"
      ],
      "transaction": {
        "from": "0xf39fd6e51aad88f6f4ce6ab8827279cfffb92266",
        "to": "0x000000000022d473030f116ddee9f6b43ac78ba3",
        "gas": "0x1112d",
        "value": "0x0",
        "input": "0x87517c45000000000000000000000000feff44b288aafbd39a07d44476f96659e67d10b80000000000000000000000001b1c77b606d13b09c84d1c7394b96b147bc03147000000000000000000000000ffffffffffffffffffffffffffffffffffffffff0000000000000000000000000000000000000000000000000000ffffffffffff",
        "nonce": "0x2f2b",
        "chainId": "0xaa36a7"
      },
      "additionalContracts": [],
      "isFixedGasLimit": false
    },
    {
      "hash": "0x88ce15cc7bfce54a31ede575018e6f0f5b92f1e741651f52941d86094d323c83",
      "transactionType": "CALL",
      "contractName": null,
      "contractAddress": "0x496cd7097f0bdd32774da3d2f1ef0adf430b7e81",
      "function": "modifyLiquidity((address,address,uint24,int24,address),(int24,int24,int256,bytes32),bytes)",
      "arguments": [
        "(0xA241CD318b6376aA186e1Fbb132078E434978896, 0xFEFF44B288aafbd39a07D44476F96659e67D10b8, 3000, 60, 0xbd4EDCbb3561252eb9a8C7d32A2FAa3425778088)",
        "(-887220, 887220, 100000000000000000000, 0x0000000000000000000000000000000000000000000000000000000000000000)",
        "0x"
      ],
      "transaction": {
        "from": "0xf39fd6e51aad88f6f4ce6ab8827279cfffb92266",
        "to": "0x496cd7097f0bdd32774da3d2f1ef0adf430b7e81",
        "gas": "0x63334",
        "value": "0x0",
        "input": "0x5a6bcfda000000000000000000000000a241cd318b6376aa186e1fbb132078e434978896000000000000000000000000feff44b288aafbd39a07d44476f96659e67d10b80000000000000000000000000000000000000000000000000000000000000bb8000000000000000000000000000000000000000000000000000000000000003c000000000000000000000000bd4edcbb3561252eb9a8c7d32a2faa3425778088fffffffffffffffffffffffffffffffffffffffffffffffffffffffffff2764c00000000000000000000000000000000000000000000000000000000000d89b40000000000000000000000000000000000000000000000056bc75e2d63100000000000000000000000000000000000000000000000000000000000000000000000000000000000000000000000000000000000000000000000000000000001400000000000000000000000000000000000000000000000000000000000000000",
        "nonce": "0x2f2c",
        "chainId": "0xaa36a7"
      },
      "additionalContracts": [],
      "isFixedGasLimit": false
    },
    {
      "hash": "0x466a898b81d50d4bafdd78d959122cb8c50d4595b7830f4d207903f3824c506a",
      "transactionType": "CALL",
      "contractName": null,
      "contractAddress": "0x1b1c77b606d13b09c84d1c7394b96b147bc03147",
      "function": "modifyLiquidities(bytes,uint256)",
      "arguments": [
        "0x000000000000000000000000000000000000000000000000000000000000004000000000000000000000000000000000000000000000000000000000000000800000000000000000000000000000000000000000000000000000000000000002021100000000000000000000000000000000000000000000000000000000000000000000000000000000000000000000000000000000000000000000000000020000000000000000000000000000000000000000000000000000000000000040000000000000000000000000000000000000000000000000000000000000020000000000000000000000000000000000000000000000000000000000000001a0000000000000000000000000a241cd318b6376aa186e1fbb132078e434978896000000000000000000000000feff44b288aafbd39a07d44476f96659e67d10b80000000000000000000000000000000000000000000000000000000000000bb8000000000000000000000000000000000000000000000000000000000000003c000000000000000000000000bd4edcbb3561252eb9a8c7d32a2faa3425778088fffffffffffffffffffffffffffffffffffffffffffffffffffffffffff2764c00000000000000000000000000000000000000000000000000000000000d89b40000000000000000000000000000000000000000000000056bc75e2d6310000000000000000000000000000000000000000000000000021e19e0c9bab240000000000000000000000000000000000000000000000000021e19e0c9bab2400000000000000000000000000000f39fd6e51aad88f6f4ce6ab8827279cfffb92266000000000000000000000000000000000000000000000000000000000000018000000000000000000000000000000000000000000000000000000000000000000000000000000000000000000000000000000000000000000000000000000040000000000000000000000000a241cd318b6376aa186e1fbb132078e434978896000000000000000000000000feff44b288aafbd39a07d44476f96659e67d10b8",
        "1729385940"
      ],
      "transaction": {
        "from": "0xf39fd6e51aad88f6f4ce6ab8827279cfffb92266",
        "to": "0x1b1c77b606d13b09c84d1c7394b96b147bc03147",
        "gas": "0x6e455",
        "value": "0x0",
        "input": "0xdd46508f000000000000000000000000000000000000000000000000000000000000004000000000000000000000000000000000000000000000000000000000671455d40000000000000000000000000000000000000000000000000000000000000300000000000000000000000000000000000000000000000000000000000000004000000000000000000000000000000000000000000000000000000000000000800000000000000000000000000000000000000000000000000000000000000002021100000000000000000000000000000000000000000000000000000000000000000000000000000000000000000000000000000000000000000000000000020000000000000000000000000000000000000000000000000000000000000040000000000000000000000000000000000000000000000000000000000000020000000000000000000000000000000000000000000000000000000000000001a0000000000000000000000000a241cd318b6376aa186e1fbb132078e434978896000000000000000000000000feff44b288aafbd39a07d44476f96659e67d10b80000000000000000000000000000000000000000000000000000000000000bb8000000000000000000000000000000000000000000000000000000000000003c000000000000000000000000bd4edcbb3561252eb9a8c7d32a2faa3425778088fffffffffffffffffffffffffffffffffffffffffffffffffffffffffff2764c00000000000000000000000000000000000000000000000000000000000d89b40000000000000000000000000000000000000000000000056bc75e2d6310000000000000000000000000000000000000000000000000021e19e0c9bab240000000000000000000000000000000000000000000000000021e19e0c9bab2400000000000000000000000000000f39fd6e51aad88f6f4ce6ab8827279cfffb92266000000000000000000000000000000000000000000000000000000000000018000000000000000000000000000000000000000000000000000000000000000000000000000000000000000000000000000000000000000000000000000000040000000000000000000000000a241cd318b6376aa186e1fbb132078e434978896000000000000000000000000feff44b288aafbd39a07d44476f96659e67d10b8",
        "nonce": "0x2f2d",
        "chainId": "0xaa36a7"
      },
      "additionalContracts": [],
      "isFixedGasLimit": false
    },
    {
      "hash": "0x98ad3888ba2b69fdaf95feb73337ca42d44dc10bb0e16a45d2ae4b2b748117f8",
      "transactionType": "CALL",
      "contractName": null,
      "contractAddress": "0xe49d2815c231826cab58017e214bed19fe1c2dd4",
      "function": "swap((address,address,uint24,int24,address),(bool,int256,uint160),(bool,bool),bytes)",
      "arguments": [
        "(0xA241CD318b6376aA186e1Fbb132078E434978896, 0xFEFF44B288aafbd39a07D44476F96659e67D10b8, 3000, 60, 0xbd4EDCbb3561252eb9a8C7d32A2FAa3425778088)",
        "(true, -1000000000000000000, 4295128740)",
        "(false, false)",
        "0x"
      ],
      "transaction": {
        "from": "0xf39fd6e51aad88f6f4ce6ab8827279cfffb92266",
        "to": "0xe49d2815c231826cab58017e214bed19fe1c2dd4",
        "gas": "0x386bb",
        "value": "0x0",
        "input": "0x2229d0b4000000000000000000000000a241cd318b6376aa186e1fbb132078e434978896000000000000000000000000feff44b288aafbd39a07d44476f96659e67d10b80000000000000000000000000000000000000000000000000000000000000bb8000000000000000000000000000000000000000000000000000000000000003c000000000000000000000000bd4edcbb3561252eb9a8c7d32a2faa34257780880000000000000000000000000000000000000000000000000000000000000001fffffffffffffffffffffffffffffffffffffffffffffffff21f494c589c000000000000000000000000000000000000000000000000000000000001000276a40000000000000000000000000000000000000000000000000000000000000000000000000000000000000000000000000000000000000000000000000000000000000000000000000000000000000000000000000000000000000000000001600000000000000000000000000000000000000000000000000000000000000000",
        "nonce": "0x2f2e",
        "chainId": "0xaa36a7"
      },
      "additionalContracts": [],
      "isFixedGasLimit": false
    }
  ],
  "receipts": [
    {
      "status": "0x1",
      "cumulativeGasUsed": "0xec49a",
      "logs": [],
      "logsBloom": "0x00000000000000000000000000000000000000000000000000000000000000000000000000000000000000000000000000000000000000000000000000000000000000000000000000000000000000000000000000000000000000000000000000000000000000000000000000000000000000000000000000000000000000000000000000000000000000000000000000000000000000000000000000000000000000000000000000000000000000000000000000000000000000000000000000000000000000000000000000000000000000000000000000000000000000000000000000000000000000000000000000000000000000000000000000000000",
      "type": "0x2",
      "transactionHash": "0x6248eda0587099c69245175693471d3ff673dda87becc9a811caef9207cfcbf1",
      "transactionIndex": "0x0",
      "blockHash": "0x88bf2d67957cfba0a409dd4525bfb7b940756b9807504bb0618a3e6476bbbfc8",
      "blockNumber": "0x6965b8",
      "gasUsed": "0xec49a",
      "effectiveGasPrice": "0x1af73e7",
      "blobGasPrice": "0x1",
      "from": "0xf39fd6e51aad88f6f4ce6ab8827279cfffb92266",
      "to": "0x4e59b44847b379578588920ca78fbf26c0b4956c",
      "contractAddress": null
    },
    {
      "status": "0x1",
      "cumulativeGasUsed": "0xad986",
      "logs": [],
      "logsBloom": "0x00000000000000000000000000000000000000000000000000000000000000000000000000000000000000000000000000000000000000000000000000000000000000000000000000000000000000000000000000000000000000000000000000000000000000000000000000000000000000000000000000000000000000000000000000000000000000000000000000000000000000000000000000000000000000000000000000000000000000000000000000000000000000000000000000000000000000000000000000000000000000000000000000000000000000000000000000000000000000000000000000000000000000000000000000000000",
      "type": "0x2",
      "transactionHash": "0x06684dd63aaab244bb1ccf779b30f395c744d33311b01703396a16560deea754",
      "transactionIndex": "0x0",
      "blockHash": "0x5aba2372a4e3fe429b42ba60d4d1d261db2bf52f4ec902facafe3b01ab9bfd41",
      "blockNumber": "0x6965b9",
      "gasUsed": "0xad986",
      "effectiveGasPrice": "0x17f3de3",
      "blobGasPrice": "0x1",
      "from": "0xf39fd6e51aad88f6f4ce6ab8827279cfffb92266",
      "to": null,
      "contractAddress": "0xa241cd318b6376aa186e1fbb132078e434978896"
    },
    {
      "status": "0x1",
      "cumulativeGasUsed": "0x15b30c",
      "logs": [],
      "logsBloom": "0x00000000000000000000000000000000000000000000000000000000000000000000000000000000000000000000000000000000000000000000000000000000000000000000000000000000000000000000000000000000000000000000000000000000000000000000000000000000000000000000000000000000000000000000000000000000000000000000000000000000000000000000000000000000000000000000000000000000000000000000000000000000000000000000000000000000000000000000000000000000000000000000000000000000000000000000000000000000000000000000000000000000000000000000000000000000",
      "type": "0x2",
      "transactionHash": "0x17ab1b14fe27fd42ee4abd412fbaba35a3e38b63f3ca10077dec9fef8e08e361",
      "transactionIndex": "0x1",
      "blockHash": "0x5aba2372a4e3fe429b42ba60d4d1d261db2bf52f4ec902facafe3b01ab9bfd41",
      "blockNumber": "0x6965b9",
      "gasUsed": "0xad986",
      "effectiveGasPrice": "0x17f3de3",
      "blobGasPrice": "0x1",
      "from": "0xf39fd6e51aad88f6f4ce6ab8827279cfffb92266",
      "to": null,
      "contractAddress": "0xfeff44b288aafbd39a07d44476f96659e67d10b8"
    },
    {
      "status": "0x1",
      "cumulativeGasUsed": "0x16bd46",
      "logs": [
        {
          "address": "0xa241cd318b6376aa186e1fbb132078e434978896",
          "topics": [
            "0xddf252ad1be2c89b69c2b068fc378daa952ba7f163c4a11628f55a4df523b3ef",
            "0x0000000000000000000000000000000000000000000000000000000000000000",
            "0x000000000000000000000000f39fd6e51aad88f6f4ce6ab8827279cfffb92266"
          ],
          "data": "0x00000000000000000000000000000000000000000000152d02c7e14af6800000",
          "blockHash": "0x5aba2372a4e3fe429b42ba60d4d1d261db2bf52f4ec902facafe3b01ab9bfd41",
          "blockNumber": "0x6965b9",
          "blockTimestamp": "0x671454c8",
          "transactionHash": "0xaeffa614b422ce878c089b66b2f6cd3be08238f7d7728712deed2fd892dc11fd",
          "transactionIndex": "0x2",
          "logIndex": "0x0",
          "removed": false
        }
      ],
      "logsBloom": "0x00000000000000000000000000000000000000000000000000000000000000000000000000000000000000000000000000000000000000000000000000000080000000000000000000000008000000000000000000000000000000000000000000000000020000000000000100000800000000000000000000000010000000000000000000000000000000000000000000000000000000008000000000000200000000000000000000000000000000000000000000000000000000000000000000000002000000200000000000000000000000002000000000000000000020000000000000000000000000000000000000000000000000000000000000000000",
      "type": "0x2",
      "transactionHash": "0xaeffa614b422ce878c089b66b2f6cd3be08238f7d7728712deed2fd892dc11fd",
      "transactionIndex": "0x2",
      "blockHash": "0x5aba2372a4e3fe429b42ba60d4d1d261db2bf52f4ec902facafe3b01ab9bfd41",
      "blockNumber": "0x6965b9",
      "gasUsed": "0x10a3a",
      "effectiveGasPrice": "0x17f3de3",
      "blobGasPrice": "0x1",
      "from": "0xf39fd6e51aad88f6f4ce6ab8827279cfffb92266",
      "to": "0xa241cd318b6376aa186e1fbb132078e434978896",
      "contractAddress": null
    },
    {
      "status": "0x1",
      "cumulativeGasUsed": "0x17c780",
      "logs": [
        {
          "address": "0xfeff44b288aafbd39a07d44476f96659e67d10b8",
          "topics": [
            "0xddf252ad1be2c89b69c2b068fc378daa952ba7f163c4a11628f55a4df523b3ef",
            "0x0000000000000000000000000000000000000000000000000000000000000000",
            "0x000000000000000000000000f39fd6e51aad88f6f4ce6ab8827279cfffb92266"
          ],
          "data": "0x00000000000000000000000000000000000000000000152d02c7e14af6800000",
          "blockHash": "0x5aba2372a4e3fe429b42ba60d4d1d261db2bf52f4ec902facafe3b01ab9bfd41",
          "blockNumber": "0x6965b9",
          "blockTimestamp": "0x671454c8",
          "transactionHash": "0x4d1a42c5a3ab30462eb76da18aa9adf2311107b6cc13555d7ed1ac41b2a40e02",
          "transactionIndex": "0x3",
          "logIndex": "0x1",
          "removed": false
        }
      ],
      "logsBloom": "0x00000000000000000000800000000000000000000080000000000000000000000000000000000000000000000000000000000000000000000000000000000000000000000000000000000008000000000000000000000000000000000000000000000000020000000000000100000800000000400000000000000010000000000000000000000000000000000000000000000000000000000000000000000000000000000000000000000000000000000000000000000000000000000000000000000002000000200000000000000000000000002000000000000000000020000000000000000000000000000000000000000000000000000000000000000000",
      "type": "0x2",
      "transactionHash": "0x4d1a42c5a3ab30462eb76da18aa9adf2311107b6cc13555d7ed1ac41b2a40e02",
      "transactionIndex": "0x3",
      "blockHash": "0x5aba2372a4e3fe429b42ba60d4d1d261db2bf52f4ec902facafe3b01ab9bfd41",
      "blockNumber": "0x6965b9",
      "gasUsed": "0x10a3a",
      "effectiveGasPrice": "0x17f3de3",
      "blobGasPrice": "0x1",
      "from": "0xf39fd6e51aad88f6f4ce6ab8827279cfffb92266",
      "to": "0xfeff44b288aafbd39a07d44476f96659e67d10b8",
      "contractAddress": null
    },
    {
      "status": "0x1",
      "cumulativeGasUsed": "0x1891b7",
      "logs": [
        {
          "address": "0x8c4bcbe6b9ef47855f97e675296fa3f6fafa5f1a",
          "topics": [
            "0xdd466e674ea557f56295e2d0218a125ea4b4f0f6f3307b95f85e6110838d6438",
            "0x91799a57dee87f79549cce014f32a658ed1af40301051cd89e9ba20f6b188486",
            "0x000000000000000000000000a241cd318b6376aa186e1fbb132078e434978896",
            "0x000000000000000000000000feff44b288aafbd39a07d44476f96659e67d10b8"
          ],
          "data": "0x0000000000000000000000000000000000000000000000000000000000000bb8000000000000000000000000000000000000000000000000000000000000003c000000000000000000000000bd4edcbb3561252eb9a8c7d32a2faa342577808800000000000000000000000000000000000000010000000000000000000000000000000000000000000000000000000000000000000000000000000000000000",
          "blockHash": "0x5aba2372a4e3fe429b42ba60d4d1d261db2bf52f4ec902facafe3b01ab9bfd41",
          "blockNumber": "0x6965b9",
          "blockTimestamp": "0x671454c8",
          "transactionHash": "0xeae2d4a599a416e6b52018b053e9bf59bb1fc5d730b28bb7fcb5263d08bea530",
          "transactionIndex": "0x4",
          "logIndex": "0x2",
          "removed": false
        }
      ],
      "logsBloom": "0x00000000000000000000000000000000000000000000000000000000000000000000000000000000000000000000000000200000000000000000000000000000000000000000000000010000000000000000000000000000000800040000000000000000000000000020000200000000000000000000000000000000000000000000000000000008000000000000000000000001000000000080000000200000000000000000000000000000000000000000000001000000000000000000000000000004000000000000000000800000000020000040000000000000000000000000000000000000000000000000000000000000000000000000000000000000",
      "type": "0x2",
      "transactionHash": "0xeae2d4a599a416e6b52018b053e9bf59bb1fc5d730b28bb7fcb5263d08bea530",
      "transactionIndex": "0x4",
      "blockHash": "0x5aba2372a4e3fe429b42ba60d4d1d261db2bf52f4ec902facafe3b01ab9bfd41",
      "blockNumber": "0x6965b9",
      "gasUsed": "0xca37",
      "effectiveGasPrice": "0x17f3de3",
      "blobGasPrice": "0x1",
      "from": "0xf39fd6e51aad88f6f4ce6ab8827279cfffb92266",
      "to": "0x8c4bcbe6b9ef47855f97e675296fa3f6fafa5f1a",
      "contractAddress": null
    },
    {
      "status": "0x1",
      "cumulativeGasUsed": "0x1a4d89",
      "logs": [
        {
          "address": "0xdd6d76262fd7bdde428dcfcd94386ebae0151603",
          "topics": [
            "0x75d30ca40c7bcd48e685894b82b864808b9cb566090efc53444a2e61742f18a3",
            "0x0000000000000000000000000dcc19657007713483a5ca76e6a7bbe5f56ea37d",
            "0x000000000000000000000000bd4edcbb3561252eb9a8c7d32a2faa3425778088"
          ],
          "data": "0x",
          "blockHash": "0x5aba2372a4e3fe429b42ba60d4d1d261db2bf52f4ec902facafe3b01ab9bfd41",
          "blockNumber": "0x6965b9",
          "blockTimestamp": "0x671454c8",
          "transactionHash": "0x79c265264876dbe385bc15ed6a4e8294bce5d2da2eadd0b29cbf2d87a6be60d0",
          "transactionIndex": "0x5",
          "logIndex": "0x3",
          "removed": false
        },
        {
          "address": "0x0dcc19657007713483a5ca76e6a7bbe5f56ea37d",
          "topics": [
            "0x3b6e7e6ff858d016edf22112c8596ecf8f0a55591a3b84c35b993e0de85a0c84",
            "0x000000000000000000000000bd4edcbb3561252eb9a8c7d32a2faa3425778088",
            "0x000000000000000000000000dd6d76262fd7bdde428dcfcd94386ebae0151603",
            "0x000000000000000000000000bd4edcbb3561252eb9a8c7d32a2faa3425778088"
          ],
          "data": "0x",
          "blockHash": "0x5aba2372a4e3fe429b42ba60d4d1d261db2bf52f4ec902facafe3b01ab9bfd41",
          "blockNumber": "0x6965b9",
          "blockTimestamp": "0x671454c8",
          "transactionHash": "0x79c265264876dbe385bc15ed6a4e8294bce5d2da2eadd0b29cbf2d87a6be60d0",
          "transactionIndex": "0x5",
          "logIndex": "0x4",
          "removed": false
        }
      ],
      "logsBloom": "0x00000000000008000000200000040000000000000000000000000000000000000000000000000000020000000000000000800000000000000000000000000000000000000000000000020000000000000000000020000000000000000000000000000080000000000000000000000000000000000000000000000000000000000001200000000000000000000000000000000000000000000000000000008000000000000080000000000000020000000000000000001000000000080000000000000000000000000000000002000000000000000002000000000000000040000000000000000000000000000000000080000040000000000200000000000000",
      "type": "0x2",
      "transactionHash": "0x79c265264876dbe385bc15ed6a4e8294bce5d2da2eadd0b29cbf2d87a6be60d0",
      "transactionIndex": "0x5",
      "blockHash": "0x5aba2372a4e3fe429b42ba60d4d1d261db2bf52f4ec902facafe3b01ab9bfd41",
      "blockNumber": "0x6965b9",
      "gasUsed": "0x1bbd2",
      "effectiveGasPrice": "0x17f3de3",
      "blobGasPrice": "0x1",
      "from": "0xf39fd6e51aad88f6f4ce6ab8827279cfffb92266",
      "to": "0xbd4edcbb3561252eb9a8c7d32a2faa3425778088",
      "contractAddress": null
    },
    {
      "status": "0x1",
      "cumulativeGasUsed": "0x1b0232",
      "logs": [
        {
          "address": "0xa241cd318b6376aa186e1fbb132078e434978896",
          "topics": [
            "0x8c5be1e5ebec7d5bd14f71427d1e84f3dd0314c0f7b2291e5b200ac8c7c3b925",
            "0x000000000000000000000000f39fd6e51aad88f6f4ce6ab8827279cfffb92266",
            "0x000000000000000000000000496cd7097f0bdd32774da3d2f1ef0adf430b7e81"
          ],
          "data": "0xffffffffffffffffffffffffffffffffffffffffffffffffffffffffffffffff",
          "blockHash": "0x5aba2372a4e3fe429b42ba60d4d1d261db2bf52f4ec902facafe3b01ab9bfd41",
          "blockNumber": "0x6965b9",
          "blockTimestamp": "0x671454c8",
          "transactionHash": "0x0cf0bd192777d26587c1dbf9259feff257f520ad6e1dc0f3306606e0ebb27176",
          "transactionIndex": "0x6",
          "logIndex": "0x5",
          "removed": false
        }
      ],
      "logsBloom": "0x00000000000000000000000000000000000000000000000000000000000000000000000000000000000000000000000000000000000000000000000000200080000000000000000000000000000000000001000000000000000000000000000000000000000000000000000100000000000000000000000000000000000000000000000000000000000000000000000000000000000008008000000000000200020000000000000000000000000000000000000000000000000000000000000000000000000000200000000000000000000000002000008000000000000000000010000000000000000000000000000000000000000000000000000000000000",
      "type": "0x2",
      "transactionHash": "0x0cf0bd192777d26587c1dbf9259feff257f520ad6e1dc0f3306606e0ebb27176",
      "transactionIndex": "0x6",
      "blockHash": "0x5aba2372a4e3fe429b42ba60d4d1d261db2bf52f4ec902facafe3b01ab9bfd41",
      "blockNumber": "0x6965b9",
      "gasUsed": "0xb4a9",
      "effectiveGasPrice": "0x17f3de3",
      "blobGasPrice": "0x1",
      "from": "0xf39fd6e51aad88f6f4ce6ab8827279cfffb92266",
      "to": "0xa241cd318b6376aa186e1fbb132078e434978896",
      "contractAddress": null
    },
    {
      "status": "0x1",
      "cumulativeGasUsed": "0xb4a9",
      "logs": [
        {
          "address": "0xfeff44b288aafbd39a07d44476f96659e67d10b8",
          "topics": [
            "0x8c5be1e5ebec7d5bd14f71427d1e84f3dd0314c0f7b2291e5b200ac8c7c3b925",
            "0x000000000000000000000000f39fd6e51aad88f6f4ce6ab8827279cfffb92266",
            "0x000000000000000000000000496cd7097f0bdd32774da3d2f1ef0adf430b7e81"
          ],
          "data": "0xffffffffffffffffffffffffffffffffffffffffffffffffffffffffffffffff",
          "blockHash": "0xdf81fa2666f0f70f4a548742515dd3ae45a9cb3b4e013cb50fdf34380243e061",
          "blockNumber": "0x6965ba",
          "blockTimestamp": "0x671454c9",
          "transactionHash": "0xba3ee9df0708fcb33fb7fa81fcc8f4f96acb2d22dcdc0e8897f25c8078cf5c4b",
          "transactionIndex": "0x0",
          "logIndex": "0x0",
          "removed": false
        }
      ],
      "logsBloom": "0x00000000000000000000800000000000000000000080000000000000000000000000000000000000000000000000000000000000000000000000000000200000000000000000000000000000000000000001000000000000000000000000000000000000000000000000000100000000000000400000000000000000000000000000000000000000000000000000000000000000000008000000000000000000020000000000000000000000000000000000000000000000000000000000000000000000000000200000000000000000000000002000008000000000000000000010000000000000000000000000000000000000000000000000000000000000",
      "type": "0x2",
      "transactionHash": "0xba3ee9df0708fcb33fb7fa81fcc8f4f96acb2d22dcdc0e8897f25c8078cf5c4b",
      "transactionIndex": "0x0",
      "blockHash": "0xdf81fa2666f0f70f4a548742515dd3ae45a9cb3b4e013cb50fdf34380243e061",
      "blockNumber": "0x6965ba",
      "gasUsed": "0xb4a9",
      "effectiveGasPrice": "0x1571a27",
      "blobGasPrice": "0x1",
      "from": "0xf39fd6e51aad88f6f4ce6ab8827279cfffb92266",
      "to": "0xfeff44b288aafbd39a07d44476f96659e67d10b8",
      "contractAddress": null
    },
    {
      "status": "0x1",
      "cumulativeGasUsed": "0x16952",
      "logs": [
        {
          "address": "0xa241cd318b6376aa186e1fbb132078e434978896",
          "topics": [
            "0x8c5be1e5ebec7d5bd14f71427d1e84f3dd0314c0f7b2291e5b200ac8c7c3b925",
            "0x000000000000000000000000f39fd6e51aad88f6f4ce6ab8827279cfffb92266",
            "0x000000000000000000000000e49d2815c231826cab58017e214bed19fe1c2dd4"
          ],
          "data": "0xffffffffffffffffffffffffffffffffffffffffffffffffffffffffffffffff",
          "blockHash": "0xdf81fa2666f0f70f4a548742515dd3ae45a9cb3b4e013cb50fdf34380243e061",
          "blockNumber": "0x6965ba",
          "blockTimestamp": "0x671454c9",
          "transactionHash": "0x7df89b3c7f23d1007acf34b43a6661be1de62056552cfab97c43f96c5737797e",
          "transactionIndex": "0x1",
          "logIndex": "0x1",
          "removed": false
        }
      ],
      "logsBloom": "0x0000000000000000000000000000000000000000000000000000000000000000000000000000000000000000000000000000000000000000000000000020008000000000000000000000000000000000000000000000000000000000000000000000000000000000000000010000000000000000000000000000000000000000000000000000000000000000000000000000000000000000a800000000000200020000000000000000000000000000000000000000000000000000000000000000000000000000200000000000000000000000002000000000000000000000000010000000000000000000000000000000000000000000000000400000000000",
      "type": "0x2",
      "transactionHash": "0x7df89b3c7f23d1007acf34b43a6661be1de62056552cfab97c43f96c5737797e",
      "transactionIndex": "0x1",
      "blockHash": "0xdf81fa2666f0f70f4a548742515dd3ae45a9cb3b4e013cb50fdf34380243e061",
      "blockNumber": "0x6965ba",
      "gasUsed": "0xb4a9",
      "effectiveGasPrice": "0x1571a27",
      "blobGasPrice": "0x1",
      "from": "0xf39fd6e51aad88f6f4ce6ab8827279cfffb92266",
      "to": "0xa241cd318b6376aa186e1fbb132078e434978896",
      "contractAddress": null
    },
    {
      "status": "0x1",
      "cumulativeGasUsed": "0x21dfb",
      "logs": [
        {
          "address": "0xfeff44b288aafbd39a07d44476f96659e67d10b8",
          "topics": [
            "0x8c5be1e5ebec7d5bd14f71427d1e84f3dd0314c0f7b2291e5b200ac8c7c3b925",
            "0x000000000000000000000000f39fd6e51aad88f6f4ce6ab8827279cfffb92266",
            "0x000000000000000000000000e49d2815c231826cab58017e214bed19fe1c2dd4"
          ],
          "data": "0xffffffffffffffffffffffffffffffffffffffffffffffffffffffffffffffff",
          "blockHash": "0xdf81fa2666f0f70f4a548742515dd3ae45a9cb3b4e013cb50fdf34380243e061",
          "blockNumber": "0x6965ba",
          "blockTimestamp": "0x671454c9",
          "transactionHash": "0x0df38f019d4ecf4e0b87814d9c0132b41e517c105e8ca83dc1e82a4d4d41d053",
          "transactionIndex": "0x2",
          "logIndex": "0x2",
          "removed": false
        }
      ],
      "logsBloom": "0x00000000000000000000800000000000000000000080000000000000000000000000000000000000000000000000000000000000000000000000000000200000000000000000000000000000000000000000000000000000000000000000000000000000000000000000000100000000000000400000000000000000000000000000000000000000000000000000000000000000000000002800000000000000020000000000000000000000000000000000000000000000000000000000000000000000000000200000000000000000000000002000000000000000000000000010000000000000000000000000000000000000000000000000400000000000",
      "type": "0x2",
      "transactionHash": "0x0df38f019d4ecf4e0b87814d9c0132b41e517c105e8ca83dc1e82a4d4d41d053",
      "transactionIndex": "0x2",
      "blockHash": "0xdf81fa2666f0f70f4a548742515dd3ae45a9cb3b4e013cb50fdf34380243e061",
      "blockNumber": "0x6965ba",
      "gasUsed": "0xb4a9",
      "effectiveGasPrice": "0x1571a27",
      "blobGasPrice": "0x1",
      "from": "0xf39fd6e51aad88f6f4ce6ab8827279cfffb92266",
      "to": "0xfeff44b288aafbd39a07d44476f96659e67d10b8",
      "contractAddress": null
    },
    {
      "status": "0x1",
      "cumulativeGasUsed": "0xb46d",
      "logs": [
        {
          "address": "0xa241cd318b6376aa186e1fbb132078e434978896",
          "topics": [
            "0x8c5be1e5ebec7d5bd14f71427d1e84f3dd0314c0f7b2291e5b200ac8c7c3b925",
            "0x000000000000000000000000f39fd6e51aad88f6f4ce6ab8827279cfffb92266",
            "0x000000000000000000000000000000000022d473030f116ddee9f6b43ac78ba3"
          ],
          "data": "0xffffffffffffffffffffffffffffffffffffffffffffffffffffffffffffffff",
          "blockHash": "0x04e09da7de84ccef92c503e812dd6031def9ae7a04f87928244a683113ea1d97",
          "blockNumber": "0x6965bb",
          "blockTimestamp": "0x671454ca",
          "transactionHash": "0x88ab860341d6cfe2638170d69c491fb7ef140f23fa57248dfe791c188db4b8ac",
          "transactionIndex": "0x0",
          "logIndex": "0x0",
          "removed": false
        }
      ],
      "logsBloom": "0x00000000000000000000000000000000000000000000000000000000000000000000000000000000000000000000000000000000800000000000000000200080000000000000000000004000000000000000000000000800000000000000000000000000000000000000000100000000000000000000000000000000000000000000000000000000000000000000000000000000000000008000000000000200020000000000000000000000000000000000000000000000000000000000000000000000000000200000000000000000000000002000000000000000000000000010000000000000000000000000000000000000000000000000000000000000",
      "type": "0x2",
      "transactionHash": "0x88ab860341d6cfe2638170d69c491fb7ef140f23fa57248dfe791c188db4b8ac",
      "transactionIndex": "0x0",
      "blockHash": "0x04e09da7de84ccef92c503e812dd6031def9ae7a04f87928244a683113ea1d97",
      "blockNumber": "0x6965bb",
      "gasUsed": "0xb46d",
      "effectiveGasPrice": "0x12efbfb",
      "blobGasPrice": "0x1",
      "from": "0xf39fd6e51aad88f6f4ce6ab8827279cfffb92266",
      "to": "0xa241cd318b6376aa186e1fbb132078e434978896",
      "contractAddress": null
    },
    {
      "status": "0x1",
      "cumulativeGasUsed": "0x16f37",
      "logs": [
        {
          "address": "0x000000000022d473030f116ddee9f6b43ac78ba3",
          "topics": [
            "0xda9fa7c1b00402c17d0161b249b1ab8bbec047c5a52207b9c112deffd817036b",
            "0x000000000000000000000000f39fd6e51aad88f6f4ce6ab8827279cfffb92266",
            "0x000000000000000000000000a241cd318b6376aa186e1fbb132078e434978896",
            "0x0000000000000000000000001b1c77b606d13b09c84d1c7394b96b147bc03147"
          ],
          "data": "0x000000000000000000000000ffffffffffffffffffffffffffffffffffffffff0000000000000000000000000000000000000000000000000000ffffffffffff",
          "blockHash": "0x04e09da7de84ccef92c503e812dd6031def9ae7a04f87928244a683113ea1d97",
          "blockNumber": "0x6965bb",
          "blockTimestamp": "0x671454ca",
          "transactionHash": "0xb26d041ad9af3a68cf5269b01cd5dd742c4b04fc094c02b6dfa9fafb968e73c3",
          "transactionIndex": "0x1",
          "logIndex": "0x1",
          "removed": false
        }
      ],
      "logsBloom": "0x00010000000000000000000000000000000000000000000000000000000000000000000000000040000000000000000000000000000000000000000000080000000000000000000000000000000000000000000000000000000000040000000000000000000000000020000100000000000000000000000000000000000000000020000000000000000000000000000000000000000000000000000000000000000000000000000000000000000000000000000001000000000000080020000000000000000000200000000000000000000000002000000040000000000000000000000000000000000000000000000000800000000000000000000000000400",
      "type": "0x2",
      "transactionHash": "0xb26d041ad9af3a68cf5269b01cd5dd742c4b04fc094c02b6dfa9fafb968e73c3",
      "transactionIndex": "0x1",
      "blockHash": "0x04e09da7de84ccef92c503e812dd6031def9ae7a04f87928244a683113ea1d97",
      "blockNumber": "0x6965bb",
      "gasUsed": "0xbaca",
      "effectiveGasPrice": "0x12efbfb",
      "blobGasPrice": "0x1",
      "from": "0xf39fd6e51aad88f6f4ce6ab8827279cfffb92266",
      "to": "0x000000000022d473030f116ddee9f6b43ac78ba3",
      "contractAddress": null
    },
    {
      "status": "0x1",
      "cumulativeGasUsed": "0xb46d",
      "logs": [
        {
          "address": "0xfeff44b288aafbd39a07d44476f96659e67d10b8",
          "topics": [
            "0x8c5be1e5ebec7d5bd14f71427d1e84f3dd0314c0f7b2291e5b200ac8c7c3b925",
            "0x000000000000000000000000f39fd6e51aad88f6f4ce6ab8827279cfffb92266",
            "0x000000000000000000000000000000000022d473030f116ddee9f6b43ac78ba3"
          ],
          "data": "0xffffffffffffffffffffffffffffffffffffffffffffffffffffffffffffffff",
          "blockHash": "0x2cd83ce69a8a1c7ed6d8572362d14def213bd01fa2d7ca82e825dd3aed203ee4",
          "blockNumber": "0x6965bc",
          "blockTimestamp": "0x671454cb",
          "transactionHash": "0x688e7c1572d6700637bb900d7c255f05c43e7848e198cca8b5537d2eb7bf23c6",
          "transactionIndex": "0x0",
          "logIndex": "0x0",
          "removed": false
        }
      ],
      "logsBloom": "0x00000000000000000000800000000000000000000080000000000000000000000000000000000000000000000000000000000000800000000000000000200000000000000000000000004000000000000000000000000800000000000000000000000000000000000000000100000000000000400000000000000000000000000000000000000000000000000000000000000000000000000000000000000000020000000000000000000000000000000000000000000000000000000000000000000000000000200000000000000000000000002000000000000000000000000010000000000000000000000000000000000000000000000000000000000000",
      "type": "0x2",
      "transactionHash": "0x688e7c1572d6700637bb900d7c255f05c43e7848e198cca8b5537d2eb7bf23c6",
      "transactionIndex": "0x0",
      "blockHash": "0x2cd83ce69a8a1c7ed6d8572362d14def213bd01fa2d7ca82e825dd3aed203ee4",
      "blockNumber": "0x6965bc",
      "gasUsed": "0xb46d",
      "effectiveGasPrice": "0x10bba9d",
      "blobGasPrice": "0x1",
      "from": "0xf39fd6e51aad88f6f4ce6ab8827279cfffb92266",
      "to": "0xfeff44b288aafbd39a07d44476f96659e67d10b8",
      "contractAddress": null
    },
    {
      "status": "0x1",
      "cumulativeGasUsed": "0x16f37",
      "logs": [
        {
          "address": "0x000000000022d473030f116ddee9f6b43ac78ba3",
          "topics": [
            "0xda9fa7c1b00402c17d0161b249b1ab8bbec047c5a52207b9c112deffd817036b",
            "0x000000000000000000000000f39fd6e51aad88f6f4ce6ab8827279cfffb92266",
            "0x000000000000000000000000feff44b288aafbd39a07d44476f96659e67d10b8",
            "0x0000000000000000000000001b1c77b606d13b09c84d1c7394b96b147bc03147"
          ],
          "data": "0x000000000000000000000000ffffffffffffffffffffffffffffffffffffffff0000000000000000000000000000000000000000000000000000ffffffffffff",
          "blockHash": "0x2cd83ce69a8a1c7ed6d8572362d14def213bd01fa2d7ca82e825dd3aed203ee4",
          "blockNumber": "0x6965bc",
          "blockTimestamp": "0x671454cb",
          "transactionHash": "0x5dcc67df27d978758d344dab9df6c1262f241148548efa0664c4416289dfbcdd",
          "transactionIndex": "0x1",
          "logIndex": "0x1",
          "removed": false
        }
      ],
      "logsBloom": "0x00010000000000000000000000000000000000000000000000000000000000000000000000000040000000000000000000200000000000000000000000080000000000000000000000000000000000000000000000000000000000000000000000000000000000000000000300000000000000000000000000000000000000000020000000000000000000000000000000000000000000000080000000000000000000000000000000000000000000000000000000000000000000080020000000000000000000200000000000000000000000002000000040000000000000000000000000000000000000000000000000800000000000000000000000000400",
      "type": "0x2",
      "transactionHash": "0x5dcc67df27d978758d344dab9df6c1262f241148548efa0664c4416289dfbcdd",
      "transactionIndex": "0x1",
      "blockHash": "0x2cd83ce69a8a1c7ed6d8572362d14def213bd01fa2d7ca82e825dd3aed203ee4",
      "blockNumber": "0x6965bc",
      "gasUsed": "0xbaca",
      "effectiveGasPrice": "0x10bba9d",
      "blobGasPrice": "0x1",
      "from": "0xf39fd6e51aad88f6f4ce6ab8827279cfffb92266",
      "to": "0x000000000022d473030f116ddee9f6b43ac78ba3",
      "contractAddress": null
    },
    {
      "status": "0x1",
      "cumulativeGasUsed": "0x47d1c",
      "logs": [
        {
          "address": "0x8c4bcbe6b9ef47855f97e675296fa3f6fafa5f1a",
          "topics": [
            "0xf208f4912782fd25c7f114ca3723a2d5dd6f3bcc3ac8db5af63baa85f711d5ec",
            "0x91799a57dee87f79549cce014f32a658ed1af40301051cd89e9ba20f6b188486",
            "0x000000000000000000000000496cd7097f0bdd32774da3d2f1ef0adf430b7e81"
          ],
          "data": "0xfffffffffffffffffffffffffffffffffffffffffffffffffffffffffff2764c00000000000000000000000000000000000000000000000000000000000d89b40000000000000000000000000000000000000000000000056bc75e2d631000000000000000000000000000000000000000000000000000000000000000000000",
          "blockHash": "0xd6eb97963b264b98a46afd4de7c820086185dbdb3966e6ff2c14534eefc390d9",
          "blockNumber": "0x6965bd",
          "blockTimestamp": "0x671454cc",
          "transactionHash": "0x88ce15cc7bfce54a31ede575018e6f0f5b92f1e741651f52941d86094d323c83",
          "transactionIndex": "0x0",
          "logIndex": "0x0",
          "removed": false
        },
        {
          "address": "0xa241cd318b6376aa186e1fbb132078e434978896",
          "topics": [
            "0xddf252ad1be2c89b69c2b068fc378daa952ba7f163c4a11628f55a4df523b3ef",
            "0x000000000000000000000000f39fd6e51aad88f6f4ce6ab8827279cfffb92266",
            "0x0000000000000000000000008c4bcbe6b9ef47855f97e675296fa3f6fafa5f1a"
          ],
          "data": "0x0000000000000000000000000000000000000000000000056bc75e2d630ffffb",
          "blockHash": "0xd6eb97963b264b98a46afd4de7c820086185dbdb3966e6ff2c14534eefc390d9",
          "blockNumber": "0x6965bd",
          "blockTimestamp": "0x671454cc",
          "transactionHash": "0x88ce15cc7bfce54a31ede575018e6f0f5b92f1e741651f52941d86094d323c83",
          "transactionIndex": "0x0",
          "logIndex": "0x1",
          "removed": false
        },
        {
          "address": "0xfeff44b288aafbd39a07d44476f96659e67d10b8",
          "topics": [
            "0xddf252ad1be2c89b69c2b068fc378daa952ba7f163c4a11628f55a4df523b3ef",
            "0x000000000000000000000000f39fd6e51aad88f6f4ce6ab8827279cfffb92266",
            "0x0000000000000000000000008c4bcbe6b9ef47855f97e675296fa3f6fafa5f1a"
          ],
          "data": "0x0000000000000000000000000000000000000000000000056bc75e2d630ffffb",
          "blockHash": "0xd6eb97963b264b98a46afd4de7c820086185dbdb3966e6ff2c14534eefc390d9",
          "blockNumber": "0x6965bd",
          "blockTimestamp": "0x671454cc",
          "transactionHash": "0x88ce15cc7bfce54a31ede575018e6f0f5b92f1e741651f52941d86094d323c83",
          "transactionIndex": "0x0",
          "logIndex": "0x2",
          "removed": false
        }
      ],
      "logsBloom": "0x00000000000000000000800000000000000000000080000000000000000000000000000000000000000000002000000000000000000000000000000000000080000000000000000000010008000000000001000000000000000800000000000000000000000000100000000100000000000000400000000000000010000000000000000001000000100000000000000000000000000008008000000000000200000004000000000000000000000000000000000000000000000000000000000000000006000000200000000000800000000020002040008000000000000000000000000000000000000000000000000004000000000000000000000000000000",
      "type": "0x2",
      "transactionHash": "0x88ce15cc7bfce54a31ede575018e6f0f5b92f1e741651f52941d86094d323c83",
      "transactionIndex": "0x0",
      "blockHash": "0xd6eb97963b264b98a46afd4de7c820086185dbdb3966e6ff2c14534eefc390d9",
      "blockNumber": "0x6965bd",
      "gasUsed": "0x47d1c",
      "effectiveGasPrice": "0xecda59",
      "blobGasPrice": "0x1",
      "from": "0xf39fd6e51aad88f6f4ce6ab8827279cfffb92266",
      "to": "0x496cd7097f0bdd32774da3d2f1ef0adf430b7e81",
      "contractAddress": null
    },
    {
      "status": "0x1",
      "cumulativeGasUsed": "0x4b662",
      "logs": [
        {
          "address": "0x1b1c77b606d13b09c84d1c7394b96b147bc03147",
          "topics": [
            "0xddf252ad1be2c89b69c2b068fc378daa952ba7f163c4a11628f55a4df523b3ef",
            "0x0000000000000000000000000000000000000000000000000000000000000000",
            "0x000000000000000000000000f39fd6e51aad88f6f4ce6ab8827279cfffb92266",
            "0x0000000000000000000000000000000000000000000000000000000000000002"
          ],
          "data": "0x",
          "blockHash": "0xec5854ca3ffdde503c5025e8b51ca98e4b58b54c9f3dc0276e48fc94b938d11c",
          "blockNumber": "0x6965be",
          "blockTimestamp": "0x671454cd",
          "transactionHash": "0x466a898b81d50d4bafdd78d959122cb8c50d4595b7830f4d207903f3824c506a",
          "transactionIndex": "0x0",
          "logIndex": "0x0",
          "removed": false
        },
        {
          "address": "0x8c4bcbe6b9ef47855f97e675296fa3f6fafa5f1a",
          "topics": [
            "0xf208f4912782fd25c7f114ca3723a2d5dd6f3bcc3ac8db5af63baa85f711d5ec",
            "0x91799a57dee87f79549cce014f32a658ed1af40301051cd89e9ba20f6b188486",
            "0x0000000000000000000000001b1c77b606d13b09c84d1c7394b96b147bc03147"
          ],
          "data": "0xfffffffffffffffffffffffffffffffffffffffffffffffffffffffffff2764c00000000000000000000000000000000000000000000000000000000000d89b40000000000000000000000000000000000000000000000056bc75e2d631000000000000000000000000000000000000000000000000000000000000000000002",
          "blockHash": "0xec5854ca3ffdde503c5025e8b51ca98e4b58b54c9f3dc0276e48fc94b938d11c",
          "blockNumber": "0x6965be",
          "blockTimestamp": "0x671454cd",
          "transactionHash": "0x466a898b81d50d4bafdd78d959122cb8c50d4595b7830f4d207903f3824c506a",
          "transactionIndex": "0x0",
          "logIndex": "0x1",
          "removed": false
        },
        {
          "address": "0xa241cd318b6376aa186e1fbb132078e434978896",
          "topics": [
            "0xddf252ad1be2c89b69c2b068fc378daa952ba7f163c4a11628f55a4df523b3ef",
            "0x000000000000000000000000f39fd6e51aad88f6f4ce6ab8827279cfffb92266",
            "0x0000000000000000000000008c4bcbe6b9ef47855f97e675296fa3f6fafa5f1a"
          ],
          "data": "0x0000000000000000000000000000000000000000000000056bc75e2d630ffffb",
          "blockHash": "0xec5854ca3ffdde503c5025e8b51ca98e4b58b54c9f3dc0276e48fc94b938d11c",
          "blockNumber": "0x6965be",
          "blockTimestamp": "0x671454cd",
          "transactionHash": "0x466a898b81d50d4bafdd78d959122cb8c50d4595b7830f4d207903f3824c506a",
          "transactionIndex": "0x0",
          "logIndex": "0x2",
          "removed": false
        },
        {
          "address": "0xfeff44b288aafbd39a07d44476f96659e67d10b8",
          "topics": [
            "0xddf252ad1be2c89b69c2b068fc378daa952ba7f163c4a11628f55a4df523b3ef",
            "0x000000000000000000000000f39fd6e51aad88f6f4ce6ab8827279cfffb92266",
            "0x0000000000000000000000008c4bcbe6b9ef47855f97e675296fa3f6fafa5f1a"
          ],
          "data": "0x0000000000000000000000000000000000000000000000056bc75e2d630ffffb",
          "blockHash": "0xec5854ca3ffdde503c5025e8b51ca98e4b58b54c9f3dc0276e48fc94b938d11c",
          "blockNumber": "0x6965be",
          "blockTimestamp": "0x671454cd",
          "transactionHash": "0x466a898b81d50d4bafdd78d959122cb8c50d4595b7830f4d207903f3824c506a",
          "transactionIndex": "0x0",
          "logIndex": "0x3",
          "removed": false
        }
      ],
      "logsBloom": "0x04000000000000000000800000000000000000000080000000000000000000080000000000000040000000002000000000000000000000000000000000000080000000000000000000010008000000000000000000000000000800000000000000000000020000100000000101000800000000400000000000000010000000000000000001000000100000000000000000000000000000008000000000000200000004000000000000000100000000000000000000000000000000000020000000000006000000200000000000800000004020002040000000000000000020000000000000000000000000000000000004800000008000000000000000000000",
      "type": "0x2",
      "transactionHash": "0x466a898b81d50d4bafdd78d959122cb8c50d4595b7830f4d207903f3824c506a",
      "transactionIndex": "0x0",
      "blockHash": "0xec5854ca3ffdde503c5025e8b51ca98e4b58b54c9f3dc0276e48fc94b938d11c",
      "blockNumber": "0x6965be",
      "gasUsed": "0x4b662",
      "effectiveGasPrice": "0xd22ce1",
      "blobGasPrice": "0x1",
      "from": "0xf39fd6e51aad88f6f4ce6ab8827279cfffb92266",
      "to": "0x1b1c77b606d13b09c84d1c7394b96b147bc03147",
      "contractAddress": null
    },
    {
      "status": "0x1",
      "cumulativeGasUsed": "0x743f2",
      "logs": [
        {
          "address": "0xbd4edcbb3561252eb9a8c7d32a2faa3425778088",
          "topics": [
            "0xf347ee99503bf19c028bd6b18f3c676e82a9bb5b2bb5225aebe0fd62fd6a0d19"
          ],
          "data": "0x00000000000000000000000000000000000000000000008fdaa57bc57b5e9800",
          "blockHash": "0xec5854ca3ffdde503c5025e8b51ca98e4b58b54c9f3dc0276e48fc94b938d11c",
          "blockNumber": "0x6965be",
          "blockTimestamp": "0x671454cd",
          "transactionHash": "0x98ad3888ba2b69fdaf95feb73337ca42d44dc10bb0e16a45d2ae4b2b748117f8",
          "transactionIndex": "0x1",
          "logIndex": "0x4",
          "removed": false
        },
        {
          "address": "0x8c4bcbe6b9ef47855f97e675296fa3f6fafa5f1a",
          "topics": [
            "0x40e9cecb9f5f1f1c5b9c97dec2917b7ee92e57ba5563708daca94dd84ad7112f",
            "0x91799a57dee87f79549cce014f32a658ed1af40301051cd89e9ba20f6b188486",
            "0x000000000000000000000000e49d2815c231826cab58017e214bed19fe1c2dd4"
          ],
          "data": "0xfffffffffffffffffffffffffffffffffffffffffffffffff21f494c589c00000000000000000000000000000000000000000000000000000dc47c68de877b490000000000000000000000000000000000000000febaec6d84c8d2fce75c793300000000000000000000000000000000000000000000000ad78ebc5ac6200000ffffffffffffffffffffffffffffffffffffffffffffffffffffffffffffff9c0000000000000000000000000000000000000000000000000000000000000bb8",
          "blockHash": "0xec5854ca3ffdde503c5025e8b51ca98e4b58b54c9f3dc0276e48fc94b938d11c",
          "blockNumber": "0x6965be",
          "blockTimestamp": "0x671454cd",
          "transactionHash": "0x98ad3888ba2b69fdaf95feb73337ca42d44dc10bb0e16a45d2ae4b2b748117f8",
          "transactionIndex": "0x1",
          "logIndex": "0x5",
          "removed": false
        },
        {
          "address": "0xa241cd318b6376aa186e1fbb132078e434978896",
          "topics": [
            "0xddf252ad1be2c89b69c2b068fc378daa952ba7f163c4a11628f55a4df523b3ef",
            "0x000000000000000000000000f39fd6e51aad88f6f4ce6ab8827279cfffb92266",
            "0x0000000000000000000000008c4bcbe6b9ef47855f97e675296fa3f6fafa5f1a"
          ],
          "data": "0x0000000000000000000000000000000000000000000000000de0b6b3a7640000",
          "blockHash": "0xec5854ca3ffdde503c5025e8b51ca98e4b58b54c9f3dc0276e48fc94b938d11c",
          "blockNumber": "0x6965be",
          "blockTimestamp": "0x671454cd",
          "transactionHash": "0x98ad3888ba2b69fdaf95feb73337ca42d44dc10bb0e16a45d2ae4b2b748117f8",
          "transactionIndex": "0x1",
          "logIndex": "0x6",
          "removed": false
        },
        {
          "address": "0xfeff44b288aafbd39a07d44476f96659e67d10b8",
          "topics": [
            "0xddf252ad1be2c89b69c2b068fc378daa952ba7f163c4a11628f55a4df523b3ef",
            "0x0000000000000000000000008c4bcbe6b9ef47855f97e675296fa3f6fafa5f1a",
            "0x000000000000000000000000f39fd6e51aad88f6f4ce6ab8827279cfffb92266"
          ],
          "data": "0x0000000000000000000000000000000000000000000000000dc47c68de877b49",
          "blockHash": "0xec5854ca3ffdde503c5025e8b51ca98e4b58b54c9f3dc0276e48fc94b938d11c",
          "blockNumber": "0x6965be",
          "blockTimestamp": "0x671454cd",
          "transactionHash": "0x98ad3888ba2b69fdaf95feb73337ca42d44dc10bb0e16a45d2ae4b2b748117f8",
          "transactionIndex": "0x1",
          "logIndex": "0x7",
          "removed": false
        }
      ],
      "logsBloom": "0x0000000000000000000080000000000000000000008000000000000000000000000000000000000000000000200000000000000004000000000000000000008000080000000000000001000800000000000000000000002000080000000000000000000000000010000000010000000000000040000000000000001000000000000000000000000010000000000000000000000000000000a800004000000200000000000000000000000000000000400000000000000000000000000000000000000006000000200000200000800000000020002040000000000000000000000000000000000000004000000000000000000000000000000080400100000000",
      "type": "0x2",
      "transactionHash": "0x98ad3888ba2b69fdaf95feb73337ca42d44dc10bb0e16a45d2ae4b2b748117f8",
      "transactionIndex": "0x1",
      "blockHash": "0xec5854ca3ffdde503c5025e8b51ca98e4b58b54c9f3dc0276e48fc94b938d11c",
      "blockNumber": "0x6965be",
      "gasUsed": "0x28d90",
      "effectiveGasPrice": "0xd22ce1",
      "blobGasPrice": "0x1",
      "from": "0xf39fd6e51aad88f6f4ce6ab8827279cfffb92266",
      "to": "0xe49d2815c231826cab58017e214bed19fe1c2dd4",
      "contractAddress": null
    }
  ],
  "libraries": [],
  "pending": [],
  "returns": {},
  "timestamp": 1729385685,
  "chain": 11155111,
  "commit": "16cf958"
}