{
  "transactions": [
    {
      "hash": "0x68b4383ac008104e87110fb294307b66f3a44fe8d01d57fde59327925d20d2ce",
      "transactionType": "CREATE2",
      "contractName": "StablePair",
      "contractAddress": "0xbd4edcbb3561252eb9a8c7d32a2faa3425778088",
      "function": null,
      "arguments": [
        "0x8C4BcBE6b9eF47855f97E675296FA3F6fafa5F1A"
      ],
      "transaction": {
        "from": "0x14137c968b4bcb48b2a244dcbb80c237a7af91b5",
        "to": "0x4e59b44847b379578588920ca78fbf26c0b4956c",
        "gas": "0x159920",
        "value": "0x0",
        "input": "0x000000000000000000000000000000000000000000000000000000000001582c60a0604052346102a957604051601f61118e38819003918201601f19168301916001600160401b038311848410176102ad578084926020946040528339810103126102a957516001600160a01b03811681036102a9576080525f6101a06100646102c1565b8281528260208201528260408201528260608201528260808201528260a08201528260c08201528260e0820152826101008201528261012082015282610140820152826101608201528261018082015201525f6101a06100c26102c1565b8281528260208201528260408201528260608201528260808201528260a0820152600160c08201528260e0820152826101008201528261012082015260016101408201528261016082015282610180820152015261200030161580159061029c575b801561028f575b8015610282575b8015610275575b8015610268575b8015610258575b801561024c575b8015610240575b8015610234575b8015610224575b8015610218575b801561020c575b8015610200575b6101ed57600380546001600160a01b0319908116730dcc19657007713483a5ca76e6a7bbe5f56ea37d17909155600a5f55670de0b6b3a76400006001556002805490911633179055604051610eac90816102e2823960805181818161019601528181610225015281816106030152610c660152f35b630732d7b560e51b5f523060045260245ffd5b50600130161515610178565b50600230161515610171565b5060043016151561016a565b5060083016151560011415610163565b5060103016151561015c565b50602030161515610155565b5060403016151561014e565b5060803016151560011415610147565b5061010030161515610140565b5061020030161515610139565b5061040030161515610132565b506108003016151561012b565b5061100030161515610124565b5f80fd5b634e487b7160e01b5f52604160045260245ffd5b604051906101c082016001600160401b038111838210176102ad5760405256fe60806040526004361015610011575f80fd5b5f803560e01c806321d0ee7014610788578063259982e51461078857806332f929fc14610760578063544172fa14610745578063575e24b4146106c25780636c2bbe7e146105cc5780636fe7e6eb1461067a57806391dd7346146105d15780639f063efc146105cc578063a81a26771461059a578063a9b518ab146104f1578063b47b2fb114610489578063b6a8b0fa1461011f578063c4e833ce14610320578063cd8efff7146101c5578063dc4c90d314610180578063dc98354e14610141578063e185855214610124578063e1b4af691461011f5763fee9a5af146100f6575f80fd5b3461011c57602036600319011261011c576020610114600435610d8d565b604051908152f35b80fd5b6108d9565b503461011c5760a036600319011261011c57506020610114610d3c565b503461011c5760e036600319011261011c5761015b61078d565b5060a036602319011261011c576004906101736108b3565b50630a85dc2960e01b8152fd5b503461011c578060031936011261011c576040517f00000000000000000000000000000000000000000000000000000000000000006001600160a01b03168152602090f35b503461011c5760a036600319011261011c5760a06101e4366004610aa5565b20604051602081019182526006604082015260408152610205606082610a84565b519020604051631e2eaeaf60e01b815260048101919091526020816024817f00000000000000000000000000000000000000000000000000000000000000006001600160a01b03165afa9182156103145780926102d6575b60206102a56001600160a01b03610288610283606088901c6001600160401b0316610b49565b610b34565b1661029f60a0610299366004610aa5565b20610d8d565b9061092b565b7ff347ee99503bf19c028bd6b18f3c676e82a9bb5b2bb5225aebe0fd62fd6a0d1982604051838152a1604051908152f35b9091506020823d60201161030c575b816102f260209383610a84565b8101031261011c5750516102a56001600160401b0361025d565b3d91506102e5565b604051903d90823e3d90fd5b503461011c578060031936011261011c57806101c0916101a060405161034581610a54565b8281528260208201528260408201528260608201528260808201528260a08201528260c08201528260e082015282610100820152826101208201528261014082015282610160820152826101808201520152604051906103a482610a54565b808252602082019181835260408101828152606082018381526080830184815260a0840185815260c085016001815260e0860190878252610100870192888452610120880194898652610140890196600188526101608a01988b8a526101a06101808c019b8d8d52019b808d5260206040519e8f92835251151591015251151560408d015251151560608c015251151560808b015251151560a08a015251151560c089015251151560e08801525115156101008701525115156101208601525115156101408501525115156101608401525115156101808301525115156101a0820152f35b503461011c5761016036600319011261011c576104a461078d565b5060a036602319011261011c5760603660c319011261011c57610144356001600160401b0381116104ed57906104df600492369084016107b7565b5050630a85dc2960e01b8152fd5b5080fd5b5034610596576040366003190112610596576024356001600160a01b03811690819003610596576003546001600160a01b0316803b15610596575f809160246040518094819363c529a67960e01b83528760048401525af1801561058b57610576575b506004803583526020526040822080546001600160a01b031916909117905580f35b6105839192505f90610a84565b5f905f610554565b6040513d5f823e3d90fd5b5f80fd5b34610596576020366003190112610596576004355f526004602052602060018060a01b0360405f205416604051908152f35b610855565b34610596576020366003190112610596576004356001600160401b038111610596576106019036906004016107b7565b7f00000000000000000000000000000000000000000000000000000000000000006001600160a01b0316330361066b5761063f604091602093610df8565b815192839181835280519182918282860152018484015e5f828201840152601f01601f19168101030190f35b63570c108560e11b5f5260045ffd5b34610596576101003660031901126105965761069461078d565b5060a0366023190112610596576106a96108b3565b506106b26108c9565b50630a85dc2960e01b5f5260045ffd5b3461059657610140366003190112610596576106dc61078d565b5060a03660231901126105965760603660c319011261059657610124356001600160401b038111610596576107159036906004016107b7565b5050606062ffffff610725610a01565b906040939293519363ffffffff60e01b1684526020840152166040820152f35b346105965760a0366003190112610596576020610114610970565b34610596575f366003190112610596576003546040516001600160a01b039091168152602090f35b6107e4565b600435906001600160a01b038216820361059657565b35906001600160a01b038216820361059657565b9181601f84011215610596578235916001600160401b038311610596576020838186019501011161059657565b3461059657610160366003190112610596576004356001600160a01b0381168103610596575060a03660231901126105965760803660c319011261059657610144356001600160401b038111610596576108429036906004016107b7565b5050630a85dc2960e01b5f908152600490fd5b34610596576101a0366003190112610596576004356001600160a01b0381168103610596575060a03660231901126105965760803660c319011261059657610184356001600160401b038111610596576108429036906004016107b7565b60c435906001600160a01b038216820361059657565b60e435908160020b820361059657565b3461059657610120366003190112610596576004356001600160a01b0381168103610596575060a036602319011261059657610104356001600160401b038111610596576108429036906004016107b7565b8181029291811591840414171561093e57565b634e487b7160e01b5f52601160045260245ffd5b811561095c570490565b634e487b7160e01b5f52601260045260245ffd5b61097a6004610c18565b60015490818110156109f25760648102908082046064149015171561093e576109ae916109a691610952565b5f549061092b565b603281106109d2575060325b612710810290808204612710149015171561093e5790565b60640360648111156109ba57634e487b7160e01b5f52601160045260245ffd5b50505f90565b61097a90610c18565b5f60e43512156105965760c43580151581036105965715610a4a57610a266024610d84565b6101f4810180911161093e576315d7892d60e21b915f9162ffffff16624000001790565b610a2660246109f8565b6101c081019081106001600160401b03821117610a7057604052565b634e487b7160e01b5f52604160045260245ffd5b90601f801991011681019081106001600160401b03821117610a7057604052565b91908260a09103126105965760405160a081018181106001600160401b03821117610a70576040528092610ad8816107a3565b8252610ae6602082016107a3565b6020830152604081013562ffffff811681036105965760408301526060810135908160020b820361059657606083019190915260800135906001600160a01b03821682036105965760800152565b6001600160a01b0316801561095c5760010490565b5f9080156109f2578080600114610c1057600214610c095760016101338210166001600b83101617610bf2579060019060025b60018111610baf57506001600160a01b038390048211610b9b57500290565b634e487b7160e01b81526011600452602490fd5b926001600160a01b038190048111610bde5760018416610bd5575b80029260011c610b7c565b80920291610bca565b634e487b7160e01b82526011600452602482fd5b6002900a91906001600160a01b038311610b9b5750565b5050600490565b505050600190565b60a0610c243683610aa5565b20604051602081019182526006604082015260408152610c45606082610a84565b519020604051631e2eaeaf60e01b81526004810191909152906020826024817f00000000000000000000000000000000000000000000000000000000000000006001600160a01b03165afa91821561058b575f92610d06575b50610cd99161029f9060a090610299906001600160a01b0390610cd0906102839060601c6001600160401b0316610b49565b16933690610aa5565b7ff347ee99503bf19c028bd6b18f3c676e82a9bb5b2bb5225aebe0fd62fd6a0d196020604051838152a190565b91506020823d602011610d34575b81610d2160209383610a84565b810103126105965790519061029f610c9e565b3d9150610d14565b610d466004610c18565b600154808211156109f25760648202918083046064149015171561093e57610d6d91610952565b606319810190811161093e575f546109ae9161092b565b610d4690610c18565b5f5260046020526004602060018060a01b0360405f205416604051928380926315f789a960e21b82525afa90811561058b575f91610dc9575090565b90506020813d602011610df0575b81610de460209383610a84565b81010312610596575190565b3d9150610dd7565b5f9182918160405192839283378101838152039082305af1903d15610e6e573d916001600160401b038311610a705760405192610e3f601f8201601f191660200185610a84565b83523d5f602085013e5b610e6c5750805115610e5d57602081519101fd5b6314815f4760e31b5f5260045ffd5b565b606091610e4956fea2646970667358221220e2152a1faeb9150e14da8a031d70ae9f41232a3a0febd71b8b0840fd43dac9d064736f6c634300081a00330000000000000000000000008c4bcbe6b9ef47855f97e675296fa3f6fafa5f1a",
        "nonce": "0xf1",
        "chainId": "0xaa36a7"
      },
      "additionalContracts": [],
      "isFixedGasLimit": false
    },
    {
      "hash": "0x9a006f554d0eb659bb5559dfedaef6f33439d17aab02531d5129831d346c1110",
      "transactionType": "CREATE",
      "contractName": "PositionManager",
      "contractAddress": "0x64fd57525346daa1b32651b69acb1781ada451cd",
      "function": null,
      "arguments": [
        "0x8C4BcBE6b9eF47855f97E675296FA3F6fafa5F1A",
        "0x000000000022D473030F116dDEE9F6B43aC78BA3",
        "300000",
        "0x0000000000000000000000000000000000000000"
      ],
      "transaction": {
        "from": "0x14137c968b4bcb48b2a244dcbb80c237a7af91b5",
        "gas": "0x42e692",
        "value": "0x0",
        "input": "0x61016080604052346104bb57608081613f6a803803809161002082856104bf565b8339810103126104bb578051906001600160a01b03821682036104bb576020810151906001600160a01b03821682036104bb576040810151606090910151926001600160a01b03841684036104bb5760405161007d6040826104bf565b6018815260208101907f556e697377617020763420506f736974696f6e73204e4654000000000000000082526040516100b76040826104bf565b600b81526a554e492d56342d504f534d60a81b602082015281516001600160401b0381116103cf575f54600181811c911680156104b1575b60208210146103b157601f811161044f575b50806020601f82116001146103ee575f916103e3575b508160011b915f199060031b1c1916175f555b8051906001600160401b0382116103cf5760015490600182811c921680156103c5575b60208310146103b15781601f849311610343575b50602090601f83116001146102dd575f926102d2575b50508160011b915f199060031b1c1916176001555b5190208060c0524660a05260405160208101917f8cad95687ba82c2ce50e74f7b754645e5117c3a5bec8151c0726d5857980a86683526040820152466060820152306080820152608081526101e260a0826104bf565b51902060805260e0526101005261012052600160085561014052604051613a8790816104e3823960805181611ce4015260a05181611cbe015260c05181611d33015260e051818181611144015281816116aa015281816117640152818161192f0152818161233601528181612a8701528181612b3a01528181612bb101528181612c9e01528181612cf20152818161349b0152818161353f015281816135af0152818161362e0152613759015261010051818181610da001526127ab01526101205181818161035d015281816108620152818161099901526135e0015261014051818181610ef201526115ca0152f35b015190505f80610177565b60015f9081528281209350601f198516905b81811061032b5750908460019594939210610313575b505050811b0160015561018c565b01515f1960f88460031b161c191690555f8080610305565b929360206001819287860151815501950193016102ef565b60015f529091507fb10e2d527612073b26eecdfd717e6a320cf44b4afac2b0732d9fcbe2b7fa0cf6601f840160051c810191602085106103a7575b90601f859493920160051c01905b8181106103995750610161565b5f815584935060010161038c565b909150819061037e565b634e487b7160e01b5f52602260045260245ffd5b91607f169161014d565b634e487b7160e01b5f52604160045260245ffd5b90508301515f610117565b5f8080528181209250601f198416905b8181106104375750908360019493921061041f575b5050811b015f5561012a565b8501515f1960f88460031b161c191690555f80610413565b9192602060018192868a0151815501940192016103fe565b5f80527f290decd9548b62a8d60345a988386fc84ba6bc95484008f6362f93160ef3e563601f830160051c810191602084106104a7575b601f0160051c01905b81811061049c5750610101565b5f815560010161048f565b9091508190610486565b90607f16906100ef565b5f80fd5b601f909101601f19168101906001600160401b038211908210176103cf5760405256fe60806040526004361015610011575f80fd5b5f3560e01c80622a3e3a1461027357806301ffc9a71461026e57806305c1ee201461026957806306fdde0314610264578063081812fc1461025f578063095ea7b31461025a5780630f5730f11461025557806312261ee71461025057806316a241311461024b5780631efeed331461024657806323b872dd146102415780632b67b5701461023c5780632b9261de146102375780633644e515146102325780633aea60f01461022d57806342842e0e146102285780634767565f146102235780634afe393c1461021e578063502e1a16146102195780635a9d7a68146102145780636352211e1461020f57806370a082311461020a57806375794a3c146102055780637ba03aad1461020057806386b6be7d146101fb57806389097a6a146101f657806391dd7346146101f157806395d89b41146101ec578063a22cb465146101e7578063ac9650d8146101e2578063ad0b27fb146101dd578063b88d4fde146101d8578063c87b56dd146101d3578063d737d0c7146101ce578063dc4c90d3146101c9578063dd46508f146101c4578063e985e9c5146101bf5763f7020405146101ba575f80fd5b611866565b611802565b6116d9565b611695565b611663565b611594565b611485565b61145e565b611380565b6112ee565b611239565b611111565b6110e7565b611063565b611031565b610fd1565b610f51565b610f21565b610edd565b610e94565b610df3565b610d89565b610cb0565b610bd9565b610ba8565b610a31565b61094e565b610937565b6108c3565b610891565b61084d565b61075a565b6106da565b6106a8565b6105c8565b61054f565b6104e1565b6102ff565b6001600160a01b0381160361028957565b5f80fd5b359061029882610278565b565b9181601f84011215610289578235916001600160401b038311610289576020838186019501011161028957565b805180835260209291819084018484015e5f828201840152601f01601f1916010190565b9060206102fc9281815201906102c7565b90565b60603660031901126102895760043561031781610278565b602435906001600160401b03821161028957813603916060600319840112610289576044356001600160401b0381116102895761035890369060040161029a565b6060947f00000000000000000000000000000000000000000000000000000000000000006001600160a01b031693909290843b1561028957604051632a2d80d160e01b81526001600160a01b039096166004808801919091526060602488015260c4870194908201359060221901811215610289578101602460048201359101946001600160401b038211610289578160071b360386136102895760606064890152819052869460e48601949392915f5b8181106104a7575050506104585f96948694889460448561044061043060248b990161028d565b6001600160a01b03166084890152565b013560a4860152848303600319016044860152611a85565b03925af1908161048d575b506104845750610480610474611aee565b604051918291826102eb565b0390f35b61048090610474565b8061049b5f6104a1936105a7565b80610569565b5f610463565b91965091929394608080826104be6001948b611a26565b019701910191889695949392610409565b6001600160e01b031981160361028957565b34610289576020366003190112610289576020600435610500816104cf565b63ffffffff60e01b166301ffc9a760e01b811490811561053e575b811561052d575b506040519015158152f35b635b5e139f60e01b1490505f610522565b6380ac58cd60e01b8114915061051b565b60203660031901126102895761056760043533611fd1565b005b5f91031261028957565b634e487b7160e01b5f52604160045260245ffd5b60a081019081106001600160401b038211176105a257604052565b610573565b90601f801991011681019081106001600160401b038211176105a257604052565b34610289575f366003190112610289576040515f80548060011c906001811690811561069e575b60208310821461068a5782855260208501919081156106715750600114610621575b61048084610474818603826105a7565b5f8080529250907f290decd9548b62a8d60345a988386fc84ba6bc95484008f6362f93160ef3e5635b81841061065d5750500161047482610611565b80548484015260209093019260010161064a565b60ff191682525090151560051b01905061047482610611565b634e487b7160e01b5f52602260045260245ffd5b91607f16916105ef565b34610289576020366003190112610289576004355f526004602052602060018060a01b0360405f205416604051908152f35b34610289576040366003190112610289576004356106f781610278565b6024355f818152600260205260409020546001600160a01b0316913383141580610737575b6107295761056792612017565b6282b42960e81b5f5260045ffd5b505f83815260056020908152604080832033845290915290205460ff161561071c565b60a03660031901126102895760043561077281610278565b60243560443591606435926084356001600160401b0381116102895761079c90369060040161029a565b9482421161083e5761083385610839936105679861082d885f80998682526002602052818960018060a01b036040832054169c8d9981604051977f49ecf333e5b8c95c40fdafc95c1ad136e8914a8fb55e9dc8bb01eaa83a2df9ad8952602089019060018060a01b031681526040890192835260608901948552608089019687528160a08a20995252525252612071565b916120f6565b82611fd1565b612017565b635a9165ff60e01b5f5260045ffd5b34610289575f366003190112610289576040517f00000000000000000000000000000000000000000000000000000000000000006001600160a01b03168152602090f35b34610289576020366003190112610289576004355f526007602052602060018060a01b0360405f205416604051908152f35b346102895760203660031901126102895760206108fa6004356108e581611e28565b919082851c60020b9260081c60020b9161228a565b6001600160801b0360405191168152f35b60609060031901126102895760043561092381610278565b9060243561093081610278565b9060443590565b34610289576105676109483661090b565b91611b1d565b6101003660031901126102895760043561096781610278565b60c03660231901126102895760e4356001600160401b0381116102895761099290369060040161029a565b60609290917f00000000000000000000000000000000000000000000000000000000000000006001600160a01b0316803b1561028957610458935f8094604051968795869485936302b67b5760e41b855260018060a01b031660048501526109fc602485016119ba565b60a435610a0881610278565b6001600160a01b031660a485015260c43560c485015261010060e4850152610104840191611a85565b606036600319011261028957602435600435610a4c82610278565b6044356001600160401b03811161028957610a6b90369060040161029a565b610a7883949294336124fa565b15610b95575f8381526007602052604090206001600160a01b0390610aa5905b546001600160a01b031690565b1680610b7257505f83815260096020526040902080546001179055610b4290610b3e905f8581526007602052604090206001600160a01b03851696610b3891610b0a9089905b80546001600160a01b0319166001600160a01b03909216919091179055565b610b2a6040519384926346abfb5960e11b60208501528960248501611ca4565b03601f1981018352826105a7565b83612590565b1590565b610b6d57507f9709492381f90bdc5938bb4e3b8e35b7e0eac8af058619e27191c5a40ce79fa95f80a3005b6125b8565b6312fdec5f60e11b5f5260048490526001600160a01b031660245260445ffd5b5ffd5b6301952d1b60e31b5f523360045260245ffd5b34610289575f366003190112610289576020610bc2611cbb565b604051908152f35b60443590811515820361028957565b60c036600319011261028957600435610bf181610278565b602435610bfd81610278565b610c05610bca565b906064359260843560a4356001600160401b03811161028957610c2c90369060040161029a565b86929192421161083e5783610cab936108339261082d885f6105679c8189818f81604051977f6673cb397ee2a50b6b8401653d3638b4ac8b3db9c28aa6870ffceb7574ec2f768952602089019060018060a01b03168152600160408a019316835260608901948552608089019687528160a08a20995252525252612071565b612657565b3461028957610cbe3661090b565b610ccb8183859495611b1d565b823b15918215610cdf575b61056783611d8d565b604051630a85bd0160e11b81523360048201526001600160a01b0391821660248201526044810192909252608060648301525f60848301819052919360209350849260a4928492165af18015610d8457610567915f91610d55575b506001600160e01b031916630a85bd0160e11b145f80610cd6565b610d77915060203d602011610d7d575b610d6f81836105a7565b810190611d78565b5f610d3a565b503d610d65565b611aa5565b34610289575f3660031901126102895760206040517f00000000000000000000000000000000000000000000000000000000000000008152f35b9181601f84011215610289578235916001600160401b038311610289576020808501948460051b01011161028957565b6040366003190112610289576004356001600160401b03811161028957610e1e90369060040161029a565b6024356001600160401b03811161028957610e3d903690600401610dc3565b915f80516020613a328339815191525c6001600160a01b0316610e8557610e7393335f80516020613a328339815191525d6126da565b5f5f80516020613a328339815191525d005b6337affdbf60e11b5f5260045ffd5b3461028957604036600319011261028957600435610eb181610278565b6024359060018060a01b03165f52600660205260405f20905f52602052602060405f2054604051908152f35b34610289575f366003190112610289576040517f00000000000000000000000000000000000000000000000000000000000000006001600160a01b03168152602090f35b34610289576020366003190112610289576020610f3f600435611e05565b6040516001600160a01b039091168152f35b3461028957602036600319011261028957600435610f6e81610278565b6001600160a01b03168015610f9d575f52600360205261048060405f2054604051918291829190602083019252565b60405162461bcd60e51b815260206004820152600c60248201526b5a45524f5f4144445245535360a01b6044820152606490fd5b34610289575f366003190112610289576020600854604051908152f35b80516001600160a01b03908116835260208083015182169084015260408083015162ffffff169084015260608083015160020b9084015260809182015116910152565b346102895760203660031901126102895760c061104f600435611e28565b61105c6040518093610fee565b60a0820152f35b346102895760203660031901126102895760043566ffffffffffffff198116809103610289575f908152600a60209081526040918290208054600182015460029283015485516001600160a01b0393841681528383169581019590955260a082811c62ffffff169686019690965260b89190911c90920b6060840152166080820152f35b34610289576020366003190112610289576004355f526009602052602060405f2054604051908152f35b34610289576020366003190112610289576004356001600160401b0381116102895761114190369060040161029a565b907f00000000000000000000000000000000000000000000000000000000000000006001600160a01b0316330361122a5760408135189063ffffffff60408201351663ffffffe0601f8201169260608401602084013518179282019260608401359483641fffffffe08760051b16805f905b888183106111fb57905060809291500101910110176111ee576060608063ffffffff6111e39616940192016126da565b610480610474611ada565b633b99b53d5f526004601cfd5b8294509263ffffffe0601f60808060209687969801013599848b1817998d0101350116010192018692916111b3565b63570c108560e11b5f5260045ffd5b34610289575f366003190112610289576040515f6001548060011c90600181169081156112e4575b60208310821461068a57828552602085019190811561067157506001146112925761048084610474818603826105a7565b60015f9081529250907fb10e2d527612073b26eecdfd717e6a320cf44b4afac2b0732d9fcbe2b7fa0cf65b8184106112d05750500161047482610611565b8054848401526020909301926001016112bd565b91607f1691611261565b346102895760403660031901126102895760043561130b81610278565b6024358015158103610289576105679133612657565b602081016020825282518091526040820191602060408360051b8301019401925f915b83831061135357505050505090565b9091929394602080611371600193603f1986820301875289516102c7565b97019301930191939290611344565b6020366003190112610289576004356001600160401b038111610289576113ab903690600401610dc3565b906113b582611edc565b916113c360405193846105a7565b808352601f196113d282611edc565b015f5b81811061144d5750505f5b8181106113f557604051806104808682611321565b5f80611402838587611f07565b9061141260405180938193611f4d565b0390305af461141f611aee565b901561144557906001916114338287611f5a565b5261143e8186611f5a565b50016113e0565b602081519101fd5b8060606020809388010152016113d5565b60203660031901126102895760043561147781336124fa565b15610b95576105679061272a565b34610289576080366003190112610289576004356114a281610278565b602435906114af82610278565b604435916064356001600160401b038111610289576114d290369060040161029a565b9190936114e0818386611b1d565b813b159384156114f4575b61056785611d8d565b602094505f9061153a60405197889687958694630a85bd0160e11b865233600487015260018060a01b031660248601526044850152608060648501526084840191611a85565b03926001600160a01b03165af18015610d8457610567915f91611575575b506001600160e01b031916630a85bd0160e11b145f8080806114eb565b61158e915060203d602011610d7d57610d6f81836105a7565b5f611558565b346102895760203660031901126102895760043560405163e9dc637560e01b815230600482015260248101919091525f816044817f00000000000000000000000000000000000000000000000000000000000000006001600160a01b03165afa8015610d84575f90611611575b61048090604051918291826102eb565b503d805f833e61162181836105a7565b810190602081830312610289578051906001600160401b038211610289570181601f82011215610289576104809181602061165e93519101611f6e565b611601565b34610289575f366003190112610289576040516001600160a01b035f80516020613a328339815191525c168152602090f35b34610289575f366003190112610289576040517f00000000000000000000000000000000000000000000000000000000000000006001600160a01b03168152602090f35b6040366003190112610289576004356001600160401b0381116102895761170490369060040161029a565b6024355f80516020613a328339815191525c6001600160a01b0316610e8557335f80516020613a328339815191525d8042116117f0576040516348c8949160e01b8152602060048201525f818061175f602482018789611a85565b0381837f00000000000000000000000000000000000000000000000000000000000000006001600160a01b03165af18015610d84576117a1575b6105676126c8565b3d805f833e6117b081836105a7565b810190602081830312610289578051906001600160401b03821161028957019080601f830112156102895781516117e992602001611f6e565b5080611799565b63bfb22adf60e01b5f5260045260245ffd5b3461028957604036600319011261028957602060ff61185a60043561182681610278565b6024359061183382610278565b60018060a01b03165f526005845260405f209060018060a01b03165f5260205260405f2090565b54166040519015158152f35b366003190160c081126102895760a0136102895760a43561188681610278565b60405163313b65df60e11b8152906004356118a081610278565b6001600160a01b031660048301526024356118ba81610278565b6001600160a01b0316602483015262ffffff6044356118d881611fc4565b1660448301526064356118ea81611fa4565b60020b606483015261191160843561190181610278565b6001600160a01b03166084840152565b6001600160a01b0390811660a4830152602090829060c49082905f907f0000000000000000000000000000000000000000000000000000000000000000165af18015610d8457610480915f91611978575b5060405160029190910b81529081906020820190565b61199a915060203d6020116119a0575b61199281836105a7565b810190611faf565b5f611962565b503d611988565b359065ffffffffffff8216820361028957565b6024356119c681610278565b6001600160a01b031681526044356119dd81610278565b6001600160a01b0316602082015260643565ffffffffffff81169081900361028957604082015260843565ffffffffffff811681036102895765ffffffffffff60609116910152565b65ffffffffffff611a7f606080938035611a3f81610278565b6001600160a01b031686526020810135611a5881610278565b6001600160a01b0316602087015283611a73604083016119a7565b166040870152016119a7565b16910152565b908060209392818452848401375f828201840152601f01601f1916010190565b6040513d5f823e3d90fd5b604051906102986080836105a7565b6001600160401b0381116105a257601f01601f191660200190565b60405190611ae96020836105a7565b5f8252565b3d15611b18573d90611aff82611abf565b91611b0d60405193846105a7565b82523d5f602084013e565b606090565b82611b42611b36610a98835f52600260205260405f2090565b6001600160a01b031690565b6001600160a01b03831690611b589082146123a7565b6001600160a01b03841690611b6e8215156123e0565b8033148015611c68575b8015611c43575b611b8890612420565b6001600160a01b038481165f90815260036020908152604080832080545f190190559288168252828220805460010190558582526002905220611bcc908690610aeb565b611bf1611be1845f52600460205260405f2090565b80546001600160a01b0319169055565b7fddf252ad1be2c89b69c2b068fc378daa952ba7f163c4a11628f55a4df523b3ef5f80a4611c31611c2a845f52600960205260405f2090565b5460ff1690565b611c3a57505050565b6102989261245d565b50611b88611c5f611b36610a98865f52600460205260405f2090565b33149050611b7f565b50611c9f611c2a33611c8a8760018060a01b03165f52600560205260405f2090565b9060018060a01b03165f5260205260405f2090565b611b78565b6040906102fc949281528160208201520191611a85565b467f000000000000000000000000000000000000000000000000000000000000000003611d06577f000000000000000000000000000000000000000000000000000000000000000090565b60405160208101907f8cad95687ba82c2ce50e74f7b754645e5117c3a5bec8151c0726d5857980a86682527f0000000000000000000000000000000000000000000000000000000000000000604082015246606082015230608082015260808152611d7260a0826105a7565b51902090565b9081602091031261028957516102fc816104cf565b15611d9457565b60405162461bcd60e51b815260206004820152601060248201526f155394d0519157d49150d2541251539560821b6044820152606490fd5b15611dd357565b60405162461bcd60e51b815260206004820152600a6024820152691393d517d3525395115160b21b6044820152606490fd5b5f908152600260205260409020546001600160a01b031690610298821515611dcc565b5f6080604051611e3781610587565b82815282602082015282604082015282606082015201525f52600960205260405f20548066ffffffffffffff19165f52600a60205260405f20611ed9611ec9600260405193611e8585610587565b80546001600160a01b0390811686526001820154908116602087015262ffffff60a082901c16604087015260b81c60020b606086015201546001600160a01b031690565b6001600160a01b03166080830152565b91565b6001600160401b0381116105a25760051b60200190565b634e487b7160e01b5f52603260045260245ffd5b9190811015611f485760051b81013590601e19813603018212156102895701908135916001600160401b038311610289576020018236038113610289579190565b611ef3565b908092918237015f815290565b8051821015611f485760209160051b010190565b929192611f7a82611abf565b91611f8860405193846105a7565b829481845281830111610289578281602093845f96015e010152565b8060020b0361028957565b9081602091031261028957516102fc81611fa4565b62ffffff81160361028957565b90600160ff82161b9160018060a01b03165f52600660205260405f209060081c5f5260205260405f2081815418809155161561200957565b623f613760e71b5f5260045ffd5b5f83815260046020526040902080546001600160a01b0319166001600160a01b038416179055906001600160a01b0390811691167f8c5be1e5ebec7d5bd14f71427d1e84f3dd0314c0f7b2291e5b200ac8c7c3b9255f80a4565b9061207a611cbb565b916040519261190160f01b8452600284015260228301525f604060428420938281528260208201520152565b9190826040910312610289576020823592013590565b634e487b7160e01b5f52601160045260245ffd5b60ff601b9116019060ff82116120e257565b6120bc565b9060401015611f485760400190565b90833b61220157604181036121b557906020926121678361213f61213961212b6121235f988801886120a6565b9490976120e7565b356001600160f81b03191690565b60f81c90565b935b604051948594859094939260ff6060936080840197845216602083015260408201520152565b838052039060015afa15610d84575f516001600160a01b03169081156121a6576001600160a01b03160361219757565b632057875960e21b5f5260045ffd5b638baa579f60e01b5f5260045ffd5b90604082036121f2576020926121d2825f946121679401906120a6565b9092906001600160ff1b038116906121ec9060ff1c6120d0565b93612141565b634be6321b60e01b5f5260045ffd5b90926122279360209360405195869485938493630b135d3f60e11b855260048501611ca4565b03916001600160a01b03165afa908115610d84575f9161226b575b506001600160e01b0319166374eca2c160e11b0161225c57565b632c19a72f60e21b5f5260045ffd5b612284915060203d602011610d7d57610d6f81836105a7565b5f612242565b929160a092604051946026860152600685015260038401523083525f603a600c8501209381604082015281602082015252206040516020810191825260066040820152604081526122dc6060826105a7565b519020600681018091116120e257604080516020818101948552918101929092526123329290916123108160608101610b2a565b51902060405180938192631e2eaeaf60e01b8352600483019190602083019252565b03817f00000000000000000000000000000000000000000000000000000000000000006001600160a01b03165afa8015610d84576001600160801b03915f9161237a57501690565b61239c915060203d6020116123a0575b61239481836105a7565b81019061282e565b1690565b503d61238a565b156123ae57565b60405162461bcd60e51b815260206004820152600a60248201526957524f4e475f46524f4d60b01b6044820152606490fd5b156123e757565b60405162461bcd60e51b81526020600482015260116024820152701253959053125117d49150d25412515395607a1b6044820152606490fd5b1561242757565b60405162461bcd60e51b815260206004820152600e60248201526d1393d517d055551213d49256915160921b6044820152606490fd5b6124bd9192815f52600760205260018060a01b0360405f205416936040519263876fda0760e01b6020850152602484015260018060a01b0316604483015260018060a01b03166064820152606481526124b76084826105a7565b82612590565b156124c55750565b3d6040519163263bc7b560e01b8352600483015260406024830152806044830152805f606484013e601f801991011660640190fd5b6001600160a01b0361250b83611e05565b6001600160a01b038316911681149290831561256f575b50821561252e57505090565b60ff925061256a91906001600160a01b039061254990611e05565b165f52600560205260405f209060018060a01b03165f5260205260405f2090565b541690565b5f828152600460205260408120546001600160a01b03169091149350612522565b803b156125a957815f92918360208194519301915af190565b637c402b2160e01b5f5260045ffd5b3d604051916363b23e9f60e01b8352600483015260406024830152806044830152805f606484013e601f801991011660640190fd5b3d60405191632c4b17e760e21b8352600483015260406024830152806044830152805f606484013e601f801991011660640190fd5b3d60405191638549db5960e01b8352600483015260406024830152806044830152805f606484013e601f801991011660640190fd5b6001600160a01b039081165f818152600560209081526040808320948616835293815292902090927f17307eab39ab6107e8899845ad3d59bd9653f200f220920489ca2b5937696c319291805460ff191695151560ff81169690961790556040519485526001600160a01b031693a3565b5f5f80516020613a328339815191525d565b9092919382840361271b575f5b848110156127135760019061270d81850161270383888b611f07565b913560f81c61284c565b016126e7565b509350505050565b63aaad13f760e01b5f5260045ffd5b5f8181526007602052604090206001600160a01b039061274990610a98565b1690811561281f575f818152600960205260409020805460ff1916905561277b611be1825f52600760205260405f2090565b813b6127a8575b7fa0ebb1de82db929a9153472f37d3a66dbede4436258311ad0f52a35a2c91d1505f80a3565b5a7f000000000000000000000000000000000000000000000000000000000000000080911061281a57823b1561028957604051632bd1774560e21b815260048101839052905f908290602490829084908890f1612806575b50612782565b8061049b5f612814936105a7565b5f612800565b61283d565b63046fcd8560e31b5f5260045ffd5b90816020910312610289575190565b6376a1e1d360e11b5f5260045ffd5b90919060098110156129035780612877575061286b90610298926132bb565b9493909392919261334f565b60018103612899575061288d90610298926132bb565b949390939291926132fd565b600281036128c857506128b26128c29161029893612f78565b9890979691959295949394612a25565b95613118565b91600383146128eb575050610b9291505b635cda29d760e01b5f52600452602490565b6102989250906128fa91612ddf565b93929092612e1b565b90506011810361291e57506102989060208101359035612db4565b60158103612950575061294a612941610298928035916040602083013592013590565b92909192612a25565b91612d99565b6009810361298e5750612982612988612976610298938035916040602083013592013590565b93829493929193612c32565b92612c4d565b91612c72565b601281036129ca57506129c46129be6129b4610298938035916040602083013592013590565b9282949291612a25565b92612b9a565b91612bae565b601781036129dd57506102989035612b33565b601881036129f657506102989060208101359035612a75565b9060198214612a0a5750610b9291506128d9565b6102989150803590612a1f9060200135612a25565b90612a57565b6001600160a01b03811660018103612a4b5750505f80516020613a328339815191525c90565b6002036102fc57503090565b90612a618261339d565b9081612a6c57505050565b61029892613403565b612a7e81613494565b918211612b09577f00000000000000000000000000000000000000000000000000000000000000006001600160a01b031691823b156102895760405163203c2d1360e21b81526001600160a01b0390921660048301526024820152905f908290604490829084905af18015610d8457612af45750565b80612b005f80936105a7565b80031261028957565b90610298915f80516020613a328339815191525c90612bae565b600160ff1b81146120e2575f0390565b612b5e81307f00000000000000000000000000000000000000000000000000000000000000006134eb565b5f80516020613a328339815191525c905f811215612b8457906129886102989392612b23565b905f8213612b9157505050565b61029892612bae565b9081612baa576102fc9150613494565b5090565b907f00000000000000000000000000000000000000000000000000000000000000006001600160a01b0316803b1561028957604051630b0d9c0960e01b81526001600160a01b03938416600482015291909216602482015260448101929092525f908290606490829084905af18015610d8457612c285750565b5f610298916105a7565b15612c49575f80516020613a328339815191525c90565b3090565b90600160ff1b8203612c63576102fc915061339d565b81612baa576102fc9150613538565b91906001600160a01b038316612cf05750604051630476982d60e21b81529150602090829060049082907f00000000000000000000000000000000000000000000000000000000000000006001600160a01b03165af18015610d8457612cd55750565b612ced9060203d6020116123a05761239481836105a7565b50565b7f00000000000000000000000000000000000000000000000000000000000000006001600160a01b031690813b1561028957604051632961046560e21b81526001600160a01b0385166004820152925f8460248183875af1918215610d84575f95602095612d6394612d85575b50613595565b600460405180948193630476982d60e21b83525af18015610d8457612cd55750565b8061049b89612d93936105a7565b5f612d5d565b91612dab61029893826129c482613494565b6129c482613494565b9061029891612dd65f80516020613a328339815191525c918261298882613538565b61298882613538565b919082359260208101359260408201359263ffffffff60608401351683019063ffffffff823516936020808401938601019101106111ee579190565b935f80516020613a328339815191525c612e3586826124fa565b15612f58575090849291612e4884611e28565b9590916001600160801b03612e6b8860201c60020b8960081c60020b868a61228a565b1691865f5260096020525f6040812055865f526002602052865f60018060a01b03604082205416612e9d811515611dcc565b80825260036020526040822082198154019055612ec5611be1845f52600260205260405f2090565b612eda611be1845f52600460205260405f2090565b7fddf252ad1be2c89b69c2b068fc378daa952ba7f163c4a11628f55a4df523b3ef8280a482612f1e575b5050505050505060ff16612f155750565b6102989061272a565b612f4c96612f4794612f3a612f35612f419661368d565b612b23565b908a613707565b906137e0565b613814565b815f8080808080612f04565b6301952d1b60e31b5f9081526001600160a01b0391909116600452602490fd5b9091819260a08301359260c08101359260e08201359261010083013592610120810135926101408201359263ffffffff6101608401351683019063ffffffff823516936020808401938601019101106111ee579190565b91908260a091031261028957604051612fe781610587565b60808082948035612ff781610278565b8452602081013561300781610278565b6020850152604081013561301a81611fc4565b6040850152606081013561302d81611fa4565b606085015201359161303e83610278565b0152565b6002608061029893613074813561305881610278565b85546001600160a01b0319166001600160a01b03909116178555565b600184016130a5602083013561308981610278565b82546001600160a01b0319166001600160a01b03909116178255565b60408201356130b381611fc4565b815460608401356130c381611fa4565b60b81b62ffffff60b81b169162ffffff60a01b9060a01b169065ffffffffffff60a01b1916171790550135916130f883610278565b0180546001600160a01b0319166001600160a01b03909216919091179055565b909194969297939597600854926001840160085560018060a01b038a16996131418b15156123e0565b5f858152600260205260409020546001600160a01b0316613285576132006132549861324e93876102989e6131a68661318d6132469860018060a01b03165f52600360205260405f2090565b80546001019055610aeb845f52600260205260405f2090565b5f7fddf252ad1be2c89b69c2b068fc378daa952ba7f163c4a11628f55a4df523b3ef8180a46131d53688612fcf565b63ffffff0066ffffff000000009160a066ffffffffffffff199120169260081b169260201b16171790565b9283613214875f52600960205260405f2090565b5566ffffffffffffff1984165f818152600a6020526040902060010154869060b81c60020b1561325a575b505061368d565b923690612fcf565b90613707565b5061389e565b61327961327e9266ffffffffffffff19165f52600a60205260405f2090565b613042565b5f8561323f565b60405162461bcd60e51b815260206004820152600e60248201526d1053149150511657d3525395115160921b6044820152606490fd5b909181359260208301359260408101359260608201359263ffffffff60808401351683019063ffffffff823516936020808401938601019101106111ee579190565b90959495939192935f80516020613a328339815191525c61331e83826124fa565b15612f58575095612f479282612f356102989899613349613341612f4197611e28565b93909261368d565b91613707565b90959495939192935f80516020613a328339815191525c61337083826124fa565b15612f5857509561339892826133496102989899613390612f4196611e28565b92909161368d565b61389e565b6001600160a01b0381166133b057504790565b6040516370a0823160e01b815230600482015290602090829060249082906001600160a01b03165afa908115610d84575f916133ea575090565b6102fc915060203d6020116123a05761239481836105a7565b9091906001600160a01b03811661343057505f80808061342494865af11590565b61342b5750565b612622565b6040805163a9059cbb60e01b81526001600160a01b039094166004850152602484019290925291905f9060208260448582885af13d15601f3d116001855114161716928281528260208201520152156134865750565b6001600160a01b03166125ed565b6134bf81307f00000000000000000000000000000000000000000000000000000000000000006134eb565b905f82126134cb575090565b634c085bf160e01b5f9081526001600160a01b0391909116600452602490fd5b6001600160a01b039182165f9081529282166020908152604093849020935163789add5560e11b815260048101949094529183916024918391165afa908115610d84575f916133ea575090565b61356381307f00000000000000000000000000000000000000000000000000000000000000006134eb565b905f821361357557506102fc90612b23565b63019a8d9360e51b5f9081526001600160a01b0391909116600452602490fd5b9091906001600160a01b03831630036135dd5761029892507f00000000000000000000000000000000000000000000000000000000000000006001600160a01b031690613403565b907f00000000000000000000000000000000000000000000000000000000000000006001600160a01b0316803b1561028957604051631b63c28b60e11b81526001600160a01b0394851660048201527f00000000000000000000000000000000000000000000000000000000000000008516602482015291841660448301529190921660648301525f908290608490829084905af18015610d845761367f5750565b8061049b5f610298936105a7565b905f821261369757565b6393dafdf160e01b5f5260045ffd5b9190826040910312610289576020825192015190565b60606102fc95936136d08361014095610fee565b805160020b60a0840152602081015160020b60c0840152604081015160e08401520151610100820152816101208201520191611a85565b959394604091613754613718611ab0565b60088a901c60020b81529260208a811c60020b90850152858585015286606085015284519889948594632d35e7ed60e11b8652600486016136bc565b03815f7f00000000000000000000000000000000000000000000000000000000000000006001600160a01b03165af1908115610d84575f945f926137ac575b5081949560ff166137a357505050565b61029892613987565b9094506137d1915060403d6040116137d9575b6137c981836105a7565b8101906136a6565b90935f613793565b503d6137bf565b613803906137f58360801d8260801d03613a0d565b92600f0b90600f0b03613a0d565b6001600160801b03169060801b1790565b929190926001600160801b038160801d948161382f87613a1b565b9116918291161061388c57506001600160801b03929350600f0b908261385483613a1b565b91169283911610613863575050565b906138756001600160801b0392613a1b565b90630940b79160e11b5f526004521660245260445ffd5b6001600160801b039061387586613a1b565b908160801d600f0b91600f0b915f811280613964575b61392d5750505f811280613908575b6138cb575050565b906138e76138db610b9293612b23565b6001600160801b031690565b63031e30ad60e41b5f526001600160801b0391821660045216602452604490565b506001600160801b038061391b83612b23565b16166001600160801b038316106138c3565b906001600160801b03613942610b9293612b23565b63031e30ad60e41b5f526001600160801b039283166004521616602452604490565b506001600160801b0361397682612b23565b166001600160801b038316106138b4565b6139d19192815f52600760205260018060a01b0360405f205416936040519263d8865c2760e01b6020850152602484015260448301526064820152606481526124b76084826105a7565b156139d95750565b3d60405191622ad16d60e61b8352600483015260406024830152806044830152805f606484013e601f801991011660640190fd5b9081600f0b91820361369757565b5f81600f0b12613697576001600160801b03169056fe0aedd6bde10e3aa2adec092b02a3e3e805795516cda41f27aa145b8f300af87aa26469706673582212200423acbaf7295a886b560242a001b7f69470acf11110bc9bcfab5320b9534edd64736f6c634300081a00330000000000000000000000008c4bcbe6b9ef47855f97e675296fa3f6fafa5f1a000000000000000000000000000000000022d473030f116ddee9f6b43ac78ba300000000000000000000000000000000000000000000000000000000000493e00000000000000000000000000000000000000000000000000000000000000000",
        "nonce": "0xf2",
        "chainId": "0xaa36a7"
      },
      "additionalContracts": [],
      "isFixedGasLimit": false
    },
    {
      "hash": "0xf916dd26851d7471bb3c140306db118bcf8bcc5ca1846db4994f3062851e2a42",
      "transactionType": "CREATE",
      "contractName": "Stablecoin",
      "contractAddress": "0x57d3f99ee65e83adf8f555760dd18a866d5fc051",
      "function": null,
      "arguments": null,
      "transaction": {
        "from": "0x14137c968b4bcb48b2a244dcbb80c237a7af91b5",
        "gas": "0xbc182",
        "value": "0x0",
        "input": "0x60806040523461033957604080519081016001600160401b0381118282101761024c5760409081526009825268556e69737461626c6560b81b602083015280519081016001600160401b0381118282101761024c576040526004815263155554d160e21b602082015281516001600160401b03811161024c57600354600181811c9116801561032f575b602082101461022e57601f81116102cc575b50602092601f821160011461026b57928192935f92610260575b50508160011b915f199060031b1c1916176003555b80516001600160401b03811161024c57600454600181811c91168015610242575b602082101461022e57601f81116101cb575b50602091601f821160011461016b579181925f92610160575b50508160011b915f199060031b1c1916176004555b600580546001600160a01b0319167394a9d9ac8a22534e3faca9f4e7f2e2cf85d5e4c817905560405161084c908161033e8239f35b015190505f80610116565b601f1982169260045f52805f20915f5b8581106101b35750836001951061019b575b505050811b0160045561012b565b01515f1960f88460031b161c191690555f808061018d565b9192602060018192868501518155019401920161017b565b60045f527f8a35acfbc15ff81a39ae7d344fd709f28e8600b4aa8c65c6b64bfe7fe36bd19b601f830160051c81019160208410610224575b601f0160051c01905b81811061021957506100fd565b5f815560010161020c565b9091508190610203565b634e487b7160e01b5f52602260045260245ffd5b90607f16906100eb565b634e487b7160e01b5f52604160045260245ffd5b015190505f806100b5565b601f1982169360035f52805f20915f5b8681106102b4575083600195961061029c575b505050811b016003556100ca565b01515f1960f88460031b161c191690555f808061028e565b9192602060018192868501518155019401920161027b565b60035f527fc2575a0e9e593c00f959f8c92f12db2869c3395a3b0502d05e2516446f71f85b601f830160051c81019160208410610325575b601f0160051c01905b81811061031a575061009b565b5f815560010161030d565b9091508190610304565b90607f1690610089565b5f80fdfe6080806040526004361015610012575f80fd5b5f3560e01c90816306fdde031461062357508063095ea7b3146105a157806318160ddd1461058457806323b872dd146104a4578063313ce567146104895780633e413bee1461046157806370a082311461042a57806395d89b4114610326578063a9059cbb146102f5578063dd62ed3e146102a5578063de0e9a3e146101ae5763ea598cb0146100a0575f80fd5b346101aa5760203660031901126101aa576004355f602060018060a01b03600554166064604051809481936323b872dd60e01b83523360048401523060248401528760448401525af1801561019f57610172575b50331561015f5760025481810180911161014b57600255335f525f60205260405f208181540190556040519081525f7fddf252ad1be2c89b69c2b068fc378daa952ba7f163c4a11628f55a4df523b3ef60203393a3005b634e487b7160e01b5f52601160045260245ffd5b63ec442f0560e01b5f525f60045260245ffd5b6101939060203d602011610198575b61018b8183610731565b810190610767565b6100f4565b503d610181565b6040513d5f823e3d90fd5b5f80fd5b346101aa5760203660031901126101aa57600435331561029257335f525f60205260405f205481811061027957815f926020923385528484520360408420558060025403600255826040518281527fddf252ad1be2c89b69c2b068fc378daa952ba7f163c4a11628f55a4df523b3ef843392a360055460405163a9059cbb60e01b815233600482015260248101929092529092839160449183916001600160a01b03165af1801561019f5761025f57005b6102779060203d6020116101985761018b8183610731565b005b63391434e360e21b5f523360045260245260445260645ffd5b634b637e8f60e11b5f525f60045260245ffd5b346101aa5760403660031901126101aa576102be610705565b6102c661071b565b6001600160a01b039182165f908152600160209081526040808320949093168252928352819020549051908152f35b346101aa5760403660031901126101aa5761031b610311610705565b602435903361077f565b602060405160018152f35b346101aa575f3660031901126101aa576040515f6004548060011c90600181168015610420575b60208310811461040c578285529081156103e8575060011461038a575b6103868361037a81850382610731565b604051918291826106db565b0390f35b91905060045f527f8a35acfbc15ff81a39ae7d344fd709f28e8600b4aa8c65c6b64bfe7fe36bd19b915f905b8082106103ce5750909150810160200161037a61036a565b9192600181602092548385880101520191019092916103b6565b60ff191660208086019190915291151560051b8401909101915061037a905061036a565b634e487b7160e01b5f52602260045260245ffd5b91607f169161034d565b346101aa5760203660031901126101aa576001600160a01b0361044b610705565b165f525f602052602060405f2054604051908152f35b346101aa575f3660031901126101aa576005546040516001600160a01b039091168152602090f35b346101aa575f3660031901126101aa57602060405160128152f35b346101aa5760603660031901126101aa576104bd610705565b6104c561071b565b6001600160a01b0382165f818152600160208181526040808420338552909152909120549193604435939290918101610504575b5061031b935061077f565b8381106105695784156105565733156105435761031b945f52600160205260405f2060018060a01b0333165f526020528360405f2091039055846104f9565b634a1406b160e11b5f525f60045260245ffd5b63e602df0560e01b5f525f60045260245ffd5b8390637dc7a0d960e11b5f523360045260245260445260645ffd5b346101aa575f3660031901126101aa576020600254604051908152f35b346101aa5760403660031901126101aa576105ba610705565b602435903315610556576001600160a01b031690811561054357335f52600160205260405f20825f526020528060405f20556040519081527f8c5be1e5ebec7d5bd14f71427d1e84f3dd0314c0f7b2291e5b200ac8c7c3b92560203392a3602060405160018152f35b346101aa575f3660031901126101aa575f6003548060011c906001811680156106d1575b60208310811461040c578285529081156103e85750600114610673576103868361037a81850382610731565b91905060035f527fc2575a0e9e593c00f959f8c92f12db2869c3395a3b0502d05e2516446f71f85b915f905b8082106106b75750909150810160200161037a61036a565b91926001816020925483858801015201910190929161069f565b91607f1691610647565b602060409281835280519182918282860152018484015e5f828201840152601f01601f1916010190565b600435906001600160a01b03821682036101aa57565b602435906001600160a01b03821682036101aa57565b90601f8019910116810190811067ffffffffffffffff82111761075357604052565b634e487b7160e01b5f52604160045260245ffd5b908160209103126101aa575180151581036101aa5790565b6001600160a01b0316908115610292576001600160a01b031691821561015f57815f525f60205260405f20548181106107fd57817fddf252ad1be2c89b69c2b068fc378daa952ba7f163c4a11628f55a4df523b3ef92602092855f525f84520360405f2055845f525f825260405f20818154019055604051908152a3565b8263391434e360e21b5f5260045260245260445260645ffdfea264697066735822122063fb9514a3127635121085d7ceaf923bfd2743523bf79d94381312fa045c7e4464736f6c634300081a0033",
        "nonce": "0xf3",
        "chainId": "0xaa36a7"
      },
      "additionalContracts": [],
      "isFixedGasLimit": false
    },
    {
      "hash": "0x3ac2c064125dd775ecb4835b6fa14af7e80a3366a7c10231120756c256d7d121",
      "transactionType": "CALL",
      "contractName": null,
      "contractAddress": "0x94a9d9ac8a22534e3faca9f4e7f2e2cf85d5e4c8",
      "function": "approve(address,uint256)",
      "arguments": [
        "0x57D3F99Ee65E83AdF8f555760dD18a866d5FC051",
        "10000000000"
      ],
      "transaction": {
        "from": "0x14137c968b4bcb48b2a244dcbb80c237a7af91b5",
        "to": "0x94a9d9ac8a22534e3faca9f4e7f2e2cf85d5e4c8",
        "gas": "0x10816",
        "value": "0x0",
        "input": "0x095ea7b300000000000000000000000057d3f99ee65e83adf8f555760dd18a866d5fc05100000000000000000000000000000000000000000000000000000002540be400",
        "nonce": "0xf4",
        "chainId": "0xaa36a7"
      },
      "additionalContracts": [],
      "isFixedGasLimit": false
    },
    {
      "hash": "0x1f4e1acdf7f0a956cd0fe8b4dda7e61bad1cdf6901243d4cfb769029417a8519",
      "transactionType": "CALL",
      "contractName": "Stablecoin",
      "contractAddress": "0x57d3f99ee65e83adf8f555760dd18a866d5fc051",
      "function": "wrap(uint256)",
      "arguments": [
        "10000000000"
      ],
      "transaction": {
        "from": "0x14137c968b4bcb48b2a244dcbb80c237a7af91b5",
        "to": "0x57d3f99ee65e83adf8f555760dd18a866d5fc051",
        "gas": "0x21f4b",
        "value": "0x0",
        "input": "0xea598cb000000000000000000000000000000000000000000000000000000002540be400",
        "nonce": "0xf5",
        "chainId": "0xaa36a7"
      },
      "additionalContracts": [],
      "isFixedGasLimit": false
    },
    {
      "hash": "0x5d7eeaae5bb0033bc38d2cea0b079407a710310c9613f4f7c1f3f6a6e5a369a4",
      "transactionType": "CALL",
      "contractName": null,
      "contractAddress": "0x8c4bcbe6b9ef47855f97e675296fa3f6fafa5f1a",
      "function": "initialize((address,address,uint24,int24,address),uint160)",
      "arguments": [
        "(0x57D3F99Ee65E83AdF8f555760dD18a866d5FC051, 0x88541670E55cC00bEEFD87eB59EDd1b7C511AC9a, 3000, 60, 0xbd4EDCbb3561252eb9a8C7d32A2FAa3425778088)",
        "79228162514264337593543950336"
      ],
      "transaction": {
        "from": "0x14137c968b4bcb48b2a244dcbb80c237a7af91b5",
        "to": "0x8c4bcbe6b9ef47855f97e675296fa3f6fafa5f1a",
        "gas": "0x1174e",
        "value": "0x0",
        "input": "0x6276cbbe00000000000000000000000057d3f99ee65e83adf8f555760dd18a866d5fc05100000000000000000000000088541670e55cc00beefd87eb59edd1b7c511ac9a0000000000000000000000000000000000000000000000000000000000000bb8000000000000000000000000000000000000000000000000000000000000003c000000000000000000000000bd4edcbb3561252eb9a8c7d32a2faa34257780880000000000000000000000000000000000000001000000000000000000000000",
        "nonce": "0xf6",
        "chainId": "0xaa36a7"
      },
      "additionalContracts": [],
      "isFixedGasLimit": false
    },
    {
      "hash": "0x9ce56f6780cd66e1dd2e352bd710b41edec9c52e656c0e3f9831ca6458a4bebb",
      "transactionType": "CALL",
      "contractName": "Stablecoin",
      "contractAddress": "0x57d3f99ee65e83adf8f555760dd18a866d5fc051",
      "function": "approve(address,uint256)",
      "arguments": [
        "0x496CD7097f0BDd32774dA3D2F1Ef0adF430b7e81",
        "115792089237316195423570985008687907853269984665640564039457584007913129639935"
      ],
      "transaction": {
        "from": "0x14137c968b4bcb48b2a244dcbb80c237a7af91b5",
        "to": "0x57d3f99ee65e83adf8f555760dd18a866d5fc051",
        "gas": "0xf9a4",
        "value": "0x0",
        "input": "0x095ea7b3000000000000000000000000496cd7097f0bdd32774da3d2f1ef0adf430b7e81ffffffffffffffffffffffffffffffffffffffffffffffffffffffffffffffff",
        "nonce": "0xf7",
        "chainId": "0xaa36a7"
      },
      "additionalContracts": [],
      "isFixedGasLimit": false
    },
    {
      "hash": "0x03edf237977d2ffa8c02d3cc1fca567744582bf22ea38d50a8c507c53017e744",
      "transactionType": "CALL",
      "contractName": null,
      "contractAddress": "0x88541670e55cc00beefd87eb59edd1b7c511ac9a",
      "function": "approve(address,uint256)",
      "arguments": [
        "0x496CD7097f0BDd32774dA3D2F1Ef0adF430b7e81",
        "115792089237316195423570985008687907853269984665640564039457584007913129639935"
      ],
      "transaction": {
        "from": "0x14137c968b4bcb48b2a244dcbb80c237a7af91b5",
        "to": "0x88541670e55cc00beefd87eb59edd1b7c511ac9a",
        "gas": "0x10a01",
        "value": "0x0",
        "input": "0x095ea7b3000000000000000000000000496cd7097f0bdd32774da3d2f1ef0adf430b7e81ffffffffffffffffffffffffffffffffffffffffffffffffffffffffffffffff",
        "nonce": "0xf8",
        "chainId": "0xaa36a7"
      },
      "additionalContracts": [],
      "isFixedGasLimit": false
    },
    {
      "hash": "0x63200331594346dc41db87b2e69db1b056d08fb279fd6819caf3f95d43b97a35",
      "transactionType": "CALL",
      "contractName": "Stablecoin",
      "contractAddress": "0x57d3f99ee65e83adf8f555760dd18a866d5fc051",
      "function": "approve(address,uint256)",
      "arguments": [
        "0xe49d2815C231826caB58017e214Bed19fE1c2dD4",
        "115792089237316195423570985008687907853269984665640564039457584007913129639935"
      ],
      "transaction": {
        "from": "0x14137c968b4bcb48b2a244dcbb80c237a7af91b5",
        "to": "0x57d3f99ee65e83adf8f555760dd18a866d5fc051",
        "gas": "0xf9a4",
        "value": "0x0",
        "input": "0x095ea7b3000000000000000000000000e49d2815c231826cab58017e214bed19fe1c2dd4ffffffffffffffffffffffffffffffffffffffffffffffffffffffffffffffff",
        "nonce": "0xf9",
        "chainId": "0xaa36a7"
      },
      "additionalContracts": [],
      "isFixedGasLimit": false
    },
    {
      "hash": "0x44d8dc8df436d1c9effd1331dca686a7531badd955248c1e1538d794834b974a",
      "transactionType": "CALL",
      "contractName": null,
      "contractAddress": "0x88541670e55cc00beefd87eb59edd1b7c511ac9a",
      "function": "approve(address,uint256)",
      "arguments": [
        "0xe49d2815C231826caB58017e214Bed19fE1c2dD4",
        "115792089237316195423570985008687907853269984665640564039457584007913129639935"
      ],
      "transaction": {
        "from": "0x14137c968b4bcb48b2a244dcbb80c237a7af91b5",
        "to": "0x88541670e55cc00beefd87eb59edd1b7c511ac9a",
        "gas": "0x10a01",
        "value": "0x0",
        "input": "0x095ea7b3000000000000000000000000e49d2815c231826cab58017e214bed19fe1c2dd4ffffffffffffffffffffffffffffffffffffffffffffffffffffffffffffffff",
        "nonce": "0xfa",
        "chainId": "0xaa36a7"
      },
      "additionalContracts": [],
      "isFixedGasLimit": false
    },
    {
      "hash": "0xb69508f5c088b74f44d710118bd0cddca45a2e14916c879834d82aa148fce3b5",
      "transactionType": "CALL",
      "contractName": "Stablecoin",
      "contractAddress": "0x57d3f99ee65e83adf8f555760dd18a866d5fc051",
      "function": "approve(address,uint256)",
      "arguments": [
        "0x000000000022D473030F116dDEE9F6B43aC78BA3",
        "115792089237316195423570985008687907853269984665640564039457584007913129639935"
      ],
      "transaction": {
        "from": "0x14137c968b4bcb48b2a244dcbb80c237a7af91b5",
        "to": "0x57d3f99ee65e83adf8f555760dd18a866d5fc051",
        "gas": "0x107fc",
        "value": "0x0",
        "input": "0x095ea7b3000000000000000000000000000000000022d473030f116ddee9f6b43ac78ba3ffffffffffffffffffffffffffffffffffffffffffffffffffffffffffffffff",
        "nonce": "0xfb",
        "chainId": "0xaa36a7"
      },
      "additionalContracts": [],
      "isFixedGasLimit": false
    },
    {
      "hash": "0x1fed6c6a3887bdab19c9c58476d588724627e50c4661ba29147847a8cba7ba41",
      "transactionType": "CALL",
      "contractName": null,
      "contractAddress": "0x000000000022d473030f116ddee9f6b43ac78ba3",
      "function": "approve(address,address,uint160,uint48)",
      "arguments": [
        "0x57D3F99Ee65E83AdF8f555760dD18a866d5FC051",
        "0x64FD57525346daa1B32651b69ACB1781ada451Cd",
        "1461501637330902918203684832716283019655932542975",
        "281474976710655"
      ],
      "transaction": {
        "from": "0x14137c968b4bcb48b2a244dcbb80c237a7af91b5",
        "to": "0x000000000022d473030f116ddee9f6b43ac78ba3",
        "gas": "0x1112d",
        "value": "0x0",
        "input": "0x87517c4500000000000000000000000057d3f99ee65e83adf8f555760dd18a866d5fc05100000000000000000000000064fd57525346daa1b32651b69acb1781ada451cd000000000000000000000000ffffffffffffffffffffffffffffffffffffffff0000000000000000000000000000000000000000000000000000ffffffffffff",
        "nonce": "0xfc",
        "chainId": "0xaa36a7"
      },
      "additionalContracts": [],
      "isFixedGasLimit": false
    },
    {
      "hash": "0x7483cdd42c345a0ee5dc4c2494e1837b62e5d029aa790f40922b14d414492deb",
      "transactionType": "CALL",
      "contractName": null,
      "contractAddress": "0x88541670e55cc00beefd87eb59edd1b7c511ac9a",
      "function": "approve(address,uint256)",
      "arguments": [
        "0x000000000022D473030F116dDEE9F6B43aC78BA3",
        "115792089237316195423570985008687907853269984665640564039457584007913129639935"
      ],
      "transaction": {
        "from": "0x14137c968b4bcb48b2a244dcbb80c237a7af91b5",
        "to": "0x88541670e55cc00beefd87eb59edd1b7c511ac9a",
        "gas": "0xfae7",
        "value": "0x0",
        "input": "0x095ea7b3000000000000000000000000000000000022d473030f116ddee9f6b43ac78ba3ffffffffffffffffffffffffffffffffffffffffffffffffffffffffffffffff",
        "nonce": "0xfd",
        "chainId": "0xaa36a7"
      },
      "additionalContracts": [],
      "isFixedGasLimit": false
    },
    {
      "hash": "0x193f73ea51c5c2baea41a8311c13a63aa160f0d6187d63642e1dd75a8860542f",
      "transactionType": "CALL",
      "contractName": null,
      "contractAddress": "0x000000000022d473030f116ddee9f6b43ac78ba3",
      "function": "approve(address,address,uint160,uint48)",
      "arguments": [
        "0x88541670E55cC00bEEFD87eB59EDd1b7C511AC9a",
        "0x64FD57525346daa1B32651b69ACB1781ada451Cd",
        "1461501637330902918203684832716283019655932542975",
        "281474976710655"
      ],
      "transaction": {
        "from": "0x14137c968b4bcb48b2a244dcbb80c237a7af91b5",
        "to": "0x000000000022d473030f116ddee9f6b43ac78ba3",
        "gas": "0x1112d",
        "value": "0x0",
        "input": "0x87517c4500000000000000000000000088541670e55cc00beefd87eb59edd1b7c511ac9a00000000000000000000000064fd57525346daa1b32651b69acb1781ada451cd000000000000000000000000ffffffffffffffffffffffffffffffffffffffff0000000000000000000000000000000000000000000000000000ffffffffffff",
        "nonce": "0xfe",
        "chainId": "0xaa36a7"
      },
      "additionalContracts": [],
      "isFixedGasLimit": false
    },
    {
      "hash": "0x50eef022657c240b0024720cef5b3d9fb5f45e335c611445052150b13bb25389",
      "transactionType": "CALL",
      "contractName": null,
      "contractAddress": "0x496cd7097f0bdd32774da3d2f1ef0adf430b7e81",
      "function": "modifyLiquidity((address,address,uint24,int24,address),(int24,int24,int256,bytes32),bytes)",
      "arguments": [
        "(0x57D3F99Ee65E83AdF8f555760dD18a866d5FC051, 0x88541670E55cC00bEEFD87eB59EDd1b7C511AC9a, 3000, 60, 0xbd4EDCbb3561252eb9a8C7d32A2FAa3425778088)",
        "(-887220, 887220, 10000000, 0x0000000000000000000000000000000000000000000000000000000000000000)",
        "0x"
      ],
      "transaction": {
        "from": "0x14137c968b4bcb48b2a244dcbb80c237a7af91b5",
        "to": "0x496cd7097f0bdd32774da3d2f1ef0adf430b7e81",
        "gas": "0x652d3",
        "value": "0x0",
        "input": "0x5a6bcfda00000000000000000000000057d3f99ee65e83adf8f555760dd18a866d5fc05100000000000000000000000088541670e55cc00beefd87eb59edd1b7c511ac9a0000000000000000000000000000000000000000000000000000000000000bb8000000000000000000000000000000000000000000000000000000000000003c000000000000000000000000bd4edcbb3561252eb9a8c7d32a2faa3425778088fffffffffffffffffffffffffffffffffffffffffffffffffffffffffff2764c00000000000000000000000000000000000000000000000000000000000d89b40000000000000000000000000000000000000000000000000000000000989680000000000000000000000000000000000000000000000000000000000000000000000000000000000000000000000000000000000000000000000000000001400000000000000000000000000000000000000000000000000000000000000000",
        "nonce": "0xff",
        "chainId": "0xaa36a7"
      },
      "additionalContracts": [],
      "isFixedGasLimit": false
    },
    {
      "hash": "0xb763fe3226001800724b3547c97d57c7b83d77b2f728fcb78ab8cfd2d361e81f",
      "transactionType": "CALL",
      "contractName": "PositionManager",
      "contractAddress": "0x64fd57525346daa1b32651b69acb1781ada451cd",
      "function": "modifyLiquidities(bytes,uint256)",
      "arguments": [
        "0x000000000000000000000000000000000000000000000000000000000000004000000000000000000000000000000000000000000000000000000000000000800000000000000000000000000000000000000000000000000000000000000002021100000000000000000000000000000000000000000000000000000000000000000000000000000000000000000000000000000000000000000000000000020000000000000000000000000000000000000000000000000000000000000040000000000000000000000000000000000000000000000000000000000000020000000000000000000000000000000000000000000000000000000000000001a000000000000000000000000057d3f99ee65e83adf8f555760dd18a866d5fc05100000000000000000000000088541670e55cc00beefd87eb59edd1b7c511ac9a0000000000000000000000000000000000000000000000000000000000000bb8000000000000000000000000000000000000000000000000000000000000003c000000000000000000000000bd4edcbb3561252eb9a8c7d32a2faa3425778088fffffffffffffffffffffffffffffffffffffffffffffffffffffffffff2764c00000000000000000000000000000000000000000000000000000000000d89b4000000000000000000000000000000000000000000000000000000000098968000000000000000000000000000000000000000000000021e19e0c9bab240000000000000000000000000000000000000000000000000021e19e0c9bab240000000000000000000000000000014137c968b4bcb48b2a244dcbb80c237a7af91b500000000000000000000000000000000000000000000000000000000000001800000000000000000000000000000000000000000000000000000000000000000000000000000000000000000000000000000000000000000000000000000004000000000000000000000000057d3f99ee65e83adf8f555760dd18a866d5fc05100000000000000000000000088541670e55cc00beefd87eb59edd1b7c511ac9a",
        "1729401600"
      ],
      "transaction": {
        "from": "0x14137c968b4bcb48b2a244dcbb80c237a7af91b5",
        "to": "0x64fd57525346daa1b32651b69acb1781ada451cd",
        "gas": "0x70c22",
        "value": "0x0",
        "input": "0xdd46508f000000000000000000000000000000000000000000000000000000000000004000000000000000000000000000000000000000000000000000000000671493000000000000000000000000000000000000000000000000000000000000000300000000000000000000000000000000000000000000000000000000000000004000000000000000000000000000000000000000000000000000000000000000800000000000000000000000000000000000000000000000000000000000000002021100000000000000000000000000000000000000000000000000000000000000000000000000000000000000000000000000000000000000000000000000020000000000000000000000000000000000000000000000000000000000000040000000000000000000000000000000000000000000000000000000000000020000000000000000000000000000000000000000000000000000000000000001a000000000000000000000000057d3f99ee65e83adf8f555760dd18a866d5fc05100000000000000000000000088541670e55cc00beefd87eb59edd1b7c511ac9a0000000000000000000000000000000000000000000000000000000000000bb8000000000000000000000000000000000000000000000000000000000000003c000000000000000000000000bd4edcbb3561252eb9a8c7d32a2faa3425778088fffffffffffffffffffffffffffffffffffffffffffffffffffffffffff2764c00000000000000000000000000000000000000000000000000000000000d89b4000000000000000000000000000000000000000000000000000000000098968000000000000000000000000000000000000000000000021e19e0c9bab240000000000000000000000000000000000000000000000000021e19e0c9bab240000000000000000000000000000014137c968b4bcb48b2a244dcbb80c237a7af91b500000000000000000000000000000000000000000000000000000000000001800000000000000000000000000000000000000000000000000000000000000000000000000000000000000000000000000000000000000000000000000000004000000000000000000000000057d3f99ee65e83adf8f555760dd18a866d5fc05100000000000000000000000088541670e55cc00beefd87eb59edd1b7c511ac9a",
        "nonce": "0x100",
        "chainId": "0xaa36a7"
      },
      "additionalContracts": [],
      "isFixedGasLimit": false
    },
    {
      "hash": "0x36878b8ece95fe131a59db3d59527e09da49603081d2a96ccd32ca4a1f41ec5a",
      "transactionType": "CALL",
      "contractName": "StablePair",
      "contractAddress": "0xbd4edcbb3561252eb9a8c7d32a2faa3425778088",
      "function": "addOracle(bytes32,address)",
      "arguments": [
        "0x607410124633908672b1c515f3b7da92ec227c584d5669a0690b48f20d024883",
        "0xdd6D76262Fd7BdDe428dcfCd94386EbAe0151603"
      ],
      "transaction": {
        "from": "0x14137c968b4bcb48b2a244dcbb80c237a7af91b5",
        "to": "0xbd4edcbb3561252eb9a8c7d32a2faa3425778088",
        "gas": "0x28916",
        "value": "0x0",
        "input": "0xa9b518ab607410124633908672b1c515f3b7da92ec227c584d5669a0690b48f20d024883000000000000000000000000dd6d76262fd7bdde428dcfcd94386ebae0151603",
        "nonce": "0x101",
        "chainId": "0xaa36a7"
      },
      "additionalContracts": [],
      "isFixedGasLimit": false
    },
    {
      "hash": "0x0f571a19dbe59b7cc306d856e0e7aa42e729a5435003f475e1c701b44a0d571e",
      "transactionType": "CALL",
      "contractName": null,
      "contractAddress": "0xe49d2815c231826cab58017e214bed19fe1c2dd4",
      "function": "swap((address,address,uint24,int24,address),(bool,int256,uint160),(bool,bool),bytes)",
      "arguments": [
        "(0x57D3F99Ee65E83AdF8f555760dD18a866d5FC051, 0x88541670E55cC00bEEFD87eB59EDd1b7C511AC9a, 3000, 60, 0xbd4EDCbb3561252eb9a8C7d32A2FAa3425778088)",
        "(true, -10000000, 4295128740)",
        "(false, false)",
        "0x"
      ],
      "transaction": {
        "from": "0x14137c968b4bcb48b2a244dcbb80c237a7af91b5",
        "to": "0xe49d2815c231826cab58017e214bed19fe1c2dd4",
        "gas": "0x38900",
        "value": "0x0",
        "input": "0x2229d0b400000000000000000000000057d3f99ee65e83adf8f555760dd18a866d5fc05100000000000000000000000088541670e55cc00beefd87eb59edd1b7c511ac9a0000000000000000000000000000000000000000000000000000000000000bb8000000000000000000000000000000000000000000000000000000000000003c000000000000000000000000bd4edcbb3561252eb9a8c7d32a2faa34257780880000000000000000000000000000000000000000000000000000000000000001ffffffffffffffffffffffffffffffffffffffffffffffffffffffffff67698000000000000000000000000000000000000000000000000000000001000276a40000000000000000000000000000000000000000000000000000000000000000000000000000000000000000000000000000000000000000000000000000000000000000000000000000000000000000000000000000000000000000000001600000000000000000000000000000000000000000000000000000000000000000",
        "nonce": "0x102",
        "chainId": "0xaa36a7"
      },
      "additionalContracts": [],
      "isFixedGasLimit": false
    }
  ],
  "receipts": [
    {
      "status": "0x1",
      "cumulativeGasUsed": "0xec49a",
      "logs": [],
      "logsBloom": "0x00000000000000000000000000000000000000000000000000000000000000000000000000000000000000000000000000000000000000000000000000000000000000000000000000000000000000000000000000000000000000000000000000000000000000000000000000000000000000000000000000000000000000000000000000000000000000000000000000000000000000000000000000000000000000000000000000000000000000000000000000000000000000000000000000000000000000000000000000000000000000000000000000000000000000000000000000000000000000000000000000000000000000000000000000000000",
      "type": "0x2",
      "transactionHash": "0x68b4383ac008104e87110fb294307b66f3a44fe8d01d57fde59327925d20d2ce",
      "transactionIndex": "0x0",
      "blockHash": "0x5d4de6161be462e7edc3fd778f37dc5e41293af245aeaa4da837003629b659be",
      "blockNumber": "0x6969f3",
      "gasUsed": "0xec49a",
      "effectiveGasPrice": "0x36ba0ca",
      "blobGasPrice": "0x1",
      "from": "0x14137c968b4bcb48b2a244dcbb80c237a7af91b5",
      "to": "0x4e59b44847b379578588920ca78fbf26c0b4956c",
      "contractAddress": null
    },
    {
      "status": "0x1",
      "cumulativeGasUsed": "0x337649",
      "logs": [],
      "logsBloom": "0x00000000000000000000000000000000000000000000000000000000000000000000000000000000000000000000000000000000000000000000000000000000000000000000000000000000000000000000000000000000000000000000000000000000000000000000000000000000000000000000000000000000000000000000000000000000000000000000000000000000000000000000000000000000000000000000000000000000000000000000000000000000000000000000000000000000000000000000000000000000000000000000000000000000000000000000000000000000000000000000000000000000000000000000000000000000",
      "type": "0x2",
      "transactionHash": "0x9a006f554d0eb659bb5559dfedaef6f33439d17aab02531d5129831d346c1110",
      "transactionIndex": "0x0",
      "blockHash": "0x7b55baf8ae9cc9de1cc370b73c78b4fd98edb65baa605c8d0c4f908282ebc792",
      "blockNumber": "0x6969f4",
      "gasUsed": "0x337649",
      "effectiveGasPrice": "0x30723c7",
      "blobGasPrice": "0x1",
      "from": "0x14137c968b4bcb48b2a244dcbb80c237a7af91b5",
      "to": null,
      "contractAddress": "0x64fd57525346daa1b32651b69acb1781ada451cd"
    },
    {
      "status": "0x1",
      "cumulativeGasUsed": "0x3c814b",
      "logs": [],
      "logsBloom": "0x00000000000000000000000000000000000000000000000000000000000000000000000000000000000000000000000000000000000000000000000000000000000000000000000000000000000000000000000000000000000000000000000000000000000000000000000000000000000000000000000000000000000000000000000000000000000000000000000000000000000000000000000000000000000000000000000000000000000000000000000000000000000000000000000000000000000000000000000000000000000000000000000000000000000000000000000000000000000000000000000000000000000000000000000000000000",
      "type": "0x2",
      "transactionHash": "0xf916dd26851d7471bb3c140306db118bcf8bcc5ca1846db4994f3062851e2a42",
      "transactionIndex": "0x1",
      "blockHash": "0x7b55baf8ae9cc9de1cc370b73c78b4fd98edb65baa605c8d0c4f908282ebc792",
      "blockNumber": "0x6969f4",
      "gasUsed": "0x90b02",
      "effectiveGasPrice": "0x30723c7",
      "blobGasPrice": "0x1",
      "from": "0x14137c968b4bcb48b2a244dcbb80c237a7af91b5",
      "to": null,
      "contractAddress": "0x57d3f99ee65e83adf8f555760dd18a866d5fc051"
    },
    {
      "status": "0x1",
      "cumulativeGasUsed": "0x3d35de",
      "logs": [
        {
          "address": "0x94a9d9ac8a22534e3faca9f4e7f2e2cf85d5e4c8",
          "topics": [
            "0x8c5be1e5ebec7d5bd14f71427d1e84f3dd0314c0f7b2291e5b200ac8c7c3b925",
            "0x00000000000000000000000014137c968b4bcb48b2a244dcbb80c237a7af91b5",
            "0x00000000000000000000000057d3f99ee65e83adf8f555760dd18a866d5fc051"
          ],
          "data": "0x00000000000000000000000000000000000000000000000000000002540be400",
          "blockHash": "0x7b55baf8ae9cc9de1cc370b73c78b4fd98edb65baa605c8d0c4f908282ebc792",
          "blockNumber": "0x6969f4",
          "blockTimestamp": "0x67149419",
          "transactionHash": "0x3ac2c064125dd775ecb4835b6fa14af7e80a3366a7c10231120756c256d7d121",
          "transactionIndex": "0x2",
          "logIndex": "0x0",
          "removed": false
        }
      ],
      "logsBloom": "0x00400000000000000000000000000000000000000000000000000000000000000000000000008000000000000000000000000000000000000000000000200000000000000000000000000000000000000000000004000000000008000000000000000000000000000000000000000000000000000000000000000000000000000000000000000000000000000000000000000000000000000000000000000000020000000100000000004000000000000000100000000000000000000000000000000000000080000000000000000000001000000000000000000000000000000010000000000000000000000000000000000000000000000000000000000000",
      "type": "0x2",
      "transactionHash": "0x3ac2c064125dd775ecb4835b6fa14af7e80a3366a7c10231120756c256d7d121",
      "transactionIndex": "0x2",
      "blockHash": "0x7b55baf8ae9cc9de1cc370b73c78b4fd98edb65baa605c8d0c4f908282ebc792",
      "blockNumber": "0x6969f4",
      "gasUsed": "0xb493",
      "effectiveGasPrice": "0x30723c7",
      "blobGasPrice": "0x1",
      "from": "0x14137c968b4bcb48b2a244dcbb80c237a7af91b5",
      "to": "0x94a9d9ac8a22534e3faca9f4e7f2e2cf85d5e4c8",
      "contractAddress": null
    },
    {
      "status": "0x1",
      "cumulativeGasUsed": "0x3ebf34",
      "logs": [
        {
          "address": "0x94a9d9ac8a22534e3faca9f4e7f2e2cf85d5e4c8",
          "topics": [
            "0xddf252ad1be2c89b69c2b068fc378daa952ba7f163c4a11628f55a4df523b3ef",
            "0x00000000000000000000000014137c968b4bcb48b2a244dcbb80c237a7af91b5",
            "0x00000000000000000000000057d3f99ee65e83adf8f555760dd18a866d5fc051"
          ],
          "data": "0x00000000000000000000000000000000000000000000000000000002540be400",
          "blockHash": "0x7b55baf8ae9cc9de1cc370b73c78b4fd98edb65baa605c8d0c4f908282ebc792",
          "blockNumber": "0x6969f4",
          "blockTimestamp": "0x67149419",
          "transactionHash": "0x1f4e1acdf7f0a956cd0fe8b4dda7e61bad1cdf6901243d4cfb769029417a8519",
          "transactionIndex": "0x3",
          "logIndex": "0x1",
          "removed": false
        },
        {
          "address": "0x94a9d9ac8a22534e3faca9f4e7f2e2cf85d5e4c8",
          "topics": [
            "0x8c5be1e5ebec7d5bd14f71427d1e84f3dd0314c0f7b2291e5b200ac8c7c3b925",
            "0x00000000000000000000000014137c968b4bcb48b2a244dcbb80c237a7af91b5",
            "0x00000000000000000000000057d3f99ee65e83adf8f555760dd18a866d5fc051"
          ],
          "data": "0x0000000000000000000000000000000000000000000000000000000000000000",
          "blockHash": "0x7b55baf8ae9cc9de1cc370b73c78b4fd98edb65baa605c8d0c4f908282ebc792",
          "blockNumber": "0x6969f4",
          "blockTimestamp": "0x67149419",
          "transactionHash": "0x1f4e1acdf7f0a956cd0fe8b4dda7e61bad1cdf6901243d4cfb769029417a8519",
          "transactionIndex": "0x3",
          "logIndex": "0x2",
          "removed": false
        },
        {
          "address": "0x57d3f99ee65e83adf8f555760dd18a866d5fc051",
          "topics": [
            "0xddf252ad1be2c89b69c2b068fc378daa952ba7f163c4a11628f55a4df523b3ef",
            "0x0000000000000000000000000000000000000000000000000000000000000000",
            "0x00000000000000000000000014137c968b4bcb48b2a244dcbb80c237a7af91b5"
          ],
          "data": "0x00000000000000000000000000000000000000000000000000000002540be400",
          "blockHash": "0x7b55baf8ae9cc9de1cc370b73c78b4fd98edb65baa605c8d0c4f908282ebc792",
          "blockNumber": "0x6969f4",
          "blockTimestamp": "0x67149419",
          "transactionHash": "0x1f4e1acdf7f0a956cd0fe8b4dda7e61bad1cdf6901243d4cfb769029417a8519",
          "transactionIndex": "0x3",
          "logIndex": "0x3",
          "removed": false
        }
      ],
      "logsBloom": "0x00400000000000000000000000000000000000000000000000000000000000000000000000008000000000000000000000000000000000000000000000200000000000000000040000000008000000000008000004000000000008000000000000000000020000000000000000000800000000000000000020000010000000000000000000000000000000000000000000000000000000000000000000000000020000000100000000004000000000000000100000000000000000000000000000000002000080000000000000000000001000000000000000000000000020000010000000000000000000000000000000000000000000000000000000000000",
      "type": "0x2",
      "transactionHash": "0x1f4e1acdf7f0a956cd0fe8b4dda7e61bad1cdf6901243d4cfb769029417a8519",
      "transactionIndex": "0x3",
      "blockHash": "0x7b55baf8ae9cc9de1cc370b73c78b4fd98edb65baa605c8d0c4f908282ebc792",
      "blockNumber": "0x6969f4",
      "gasUsed": "0x18956",
      "effectiveGasPrice": "0x30723c7",
      "blobGasPrice": "0x1",
      "from": "0x14137c968b4bcb48b2a244dcbb80c237a7af91b5",
      "to": "0x57d3f99ee65e83adf8f555760dd18a866d5fc051",
      "contractAddress": null
    },
    {
      "status": "0x1",
      "cumulativeGasUsed": "0x3f896b",
      "logs": [
        {
          "address": "0x8c4bcbe6b9ef47855f97e675296fa3f6fafa5f1a",
          "topics": [
            "0xdd466e674ea557f56295e2d0218a125ea4b4f0f6f3307b95f85e6110838d6438",
            "0x607410124633908672b1c515f3b7da92ec227c584d5669a0690b48f20d024883",
            "0x00000000000000000000000057d3f99ee65e83adf8f555760dd18a866d5fc051",
            "0x00000000000000000000000088541670e55cc00beefd87eb59edd1b7c511ac9a"
          ],
          "data": "0x0000000000000000000000000000000000000000000000000000000000000bb8000000000000000000000000000000000000000000000000000000000000003c000000000000000000000000bd4edcbb3561252eb9a8c7d32a2faa342577808800000000000000000000000000000000000000010000000000000000000000000000000000000000000000000000000000000000000000000000000000000000",
          "blockHash": "0x7b55baf8ae9cc9de1cc370b73c78b4fd98edb65baa605c8d0c4f908282ebc792",
          "blockNumber": "0x6969f4",
          "blockTimestamp": "0x67149419",
          "transactionHash": "0x5d7eeaae5bb0033bc38d2cea0b079407a710310c9613f4f7c1f3f6a6e5a369a4",
          "transactionIndex": "0x4",
          "logIndex": "0x4",
          "removed": false
        }
      ],
      "logsBloom": "0x00100000000000400000000000000000000000000000000000000000000000000000000000008000000000000000000000800000000000000000000000000000000000000000000000000000000000000000000004000000000800000000000000000000000000000000000000000000000000000000000000000000000000000000000000000008000000000000000000000001000000000000000000200000000000000000080000000000000000000010000000000000200000000000000000000000000000000000000000800000001020000000000000000000000000000000000000000000000000000000000000000000000000000000000000000000",
      "type": "0x2",
      "transactionHash": "0x5d7eeaae5bb0033bc38d2cea0b079407a710310c9613f4f7c1f3f6a6e5a369a4",
      "transactionIndex": "0x4",
      "blockHash": "0x7b55baf8ae9cc9de1cc370b73c78b4fd98edb65baa605c8d0c4f908282ebc792",
      "blockNumber": "0x6969f4",
      "gasUsed": "0xca37",
      "effectiveGasPrice": "0x30723c7",
      "blobGasPrice": "0x1",
      "from": "0x14137c968b4bcb48b2a244dcbb80c237a7af91b5",
      "to": "0x8c4bcbe6b9ef47855f97e675296fa3f6fafa5f1a",
      "contractAddress": null
    },
    {
      "status": "0x1",
      "cumulativeGasUsed": "0x403e28",
      "logs": [
        {
          "address": "0x57d3f99ee65e83adf8f555760dd18a866d5fc051",
          "topics": [
            "0x8c5be1e5ebec7d5bd14f71427d1e84f3dd0314c0f7b2291e5b200ac8c7c3b925",
            "0x00000000000000000000000014137c968b4bcb48b2a244dcbb80c237a7af91b5",
            "0x000000000000000000000000496cd7097f0bdd32774da3d2f1ef0adf430b7e81"
          ],
          "data": "0xffffffffffffffffffffffffffffffffffffffffffffffffffffffffffffffff",
          "blockHash": "0x7b55baf8ae9cc9de1cc370b73c78b4fd98edb65baa605c8d0c4f908282ebc792",
          "blockNumber": "0x6969f4",
          "blockTimestamp": "0x67149419",
          "transactionHash": "0x9ce56f6780cd66e1dd2e352bd710b41edec9c52e656c0e3f9831ca6458a4bebb",
          "transactionIndex": "0x5",
          "logIndex": "0x5",
          "removed": false
        }
      ],
      "logsBloom": "0x00400000000000000000000000000000000000000000000000000000000000000000000000000000000000000000000000000000000000000000000000200000000000000000040000000000000000000009000000000000000000000000000000000000000000000000000000000000000000000000000020000000000000000000000000000000000000000000000000000000000008000000000000000000020000000000000000000000000000000000100000000000000000000000000000000000000080000000000000000000000000000000008000000000000000000010000000000000000000000000000000000000000000000000000000000000",
      "type": "0x2",
      "transactionHash": "0x9ce56f6780cd66e1dd2e352bd710b41edec9c52e656c0e3f9831ca6458a4bebb",
      "transactionIndex": "0x5",
      "blockHash": "0x7b55baf8ae9cc9de1cc370b73c78b4fd98edb65baa605c8d0c4f908282ebc792",
      "blockNumber": "0x6969f4",
      "gasUsed": "0xb4bd",
      "effectiveGasPrice": "0x30723c7",
      "blobGasPrice": "0x1",
      "from": "0x14137c968b4bcb48b2a244dcbb80c237a7af91b5",
      "to": "0x57d3f99ee65e83adf8f555760dd18a866d5fc051",
      "contractAddress": null
    },
    {
      "status": "0x1",
      "cumulativeGasUsed": "0x40f40b",
      "logs": [
        {
          "address": "0x88541670e55cc00beefd87eb59edd1b7c511ac9a",
          "topics": [
            "0x8c5be1e5ebec7d5bd14f71427d1e84f3dd0314c0f7b2291e5b200ac8c7c3b925",
            "0x00000000000000000000000014137c968b4bcb48b2a244dcbb80c237a7af91b5",
            "0x000000000000000000000000496cd7097f0bdd32774da3d2f1ef0adf430b7e81"
          ],
          "data": "0xffffffffffffffffffffffffffffffffffffffffffffffffffffffffffffffff",
          "blockHash": "0x7b55baf8ae9cc9de1cc370b73c78b4fd98edb65baa605c8d0c4f908282ebc792",
          "blockNumber": "0x6969f4",
          "blockTimestamp": "0x67149419",
          "transactionHash": "0x03edf237977d2ffa8c02d3cc1fca567744582bf22ea38d50a8c507c53017e744",
          "transactionIndex": "0x6",
          "logIndex": "0x6",
          "removed": false
        }
      ],
      "logsBloom": "0x00400000000000000000000000000000000000000000000000000000000000000000000000000000002000000000000000000000000000000000000000200200000000000000000000000000000000000001000000000000000000000000000000000000000000000000000000000000000000000000000000000000000000000000000000000000000000000000010000000000000008000000000000000000020000000000000000000000000000000000100000000000000000000000000000000000000080000000000000000000000000000000008000000000000000000010000000000000000000000000000000000000000000000000000000000000",
      "type": "0x2",
      "transactionHash": "0x03edf237977d2ffa8c02d3cc1fca567744582bf22ea38d50a8c507c53017e744",
      "transactionIndex": "0x6",
      "blockHash": "0x7b55baf8ae9cc9de1cc370b73c78b4fd98edb65baa605c8d0c4f908282ebc792",
      "blockNumber": "0x6969f4",
      "gasUsed": "0xb5e3",
      "effectiveGasPrice": "0x30723c7",
      "blobGasPrice": "0x1",
      "from": "0x14137c968b4bcb48b2a244dcbb80c237a7af91b5",
      "to": "0x88541670e55cc00beefd87eb59edd1b7c511ac9a",
      "contractAddress": null
    },
    {
      "status": "0x1",
      "cumulativeGasUsed": "0xb4bd",
      "logs": [
        {
          "address": "0x57d3f99ee65e83adf8f555760dd18a866d5fc051",
          "topics": [
            "0x8c5be1e5ebec7d5bd14f71427d1e84f3dd0314c0f7b2291e5b200ac8c7c3b925",
            "0x00000000000000000000000014137c968b4bcb48b2a244dcbb80c237a7af91b5",
            "0x000000000000000000000000e49d2815c231826cab58017e214bed19fe1c2dd4"
          ],
          "data": "0xffffffffffffffffffffffffffffffffffffffffffffffffffffffffffffffff",
          "blockHash": "0x16d99e3f66bd96c6eb61f86c3e19d4374f6eaf9f647f9c0733aaf6889607e745",
          "blockNumber": "0x6969f5",
          "blockTimestamp": "0x6714941a",
          "transactionHash": "0x63200331594346dc41db87b2e69db1b056d08fb279fd6819caf3f95d43b97a35",
          "transactionIndex": "0x0",
          "logIndex": "0x0",
          "removed": false
        }
      ],
      "logsBloom": "0x00400000000000000000000000000000000000000000000000000000000000000000000000000000000000000000000000000000000000000000000000200000000000000000040000000000000000000008000000000000000000000000000000000000000000000000000000000000000000000000000020000000000000000000000000000000000000000000000000000000000000002800000000000000020000000000000000000000000000000000100000000000000000000000000000000000000080000000000000000000000000000000000000000000000000000010000000000000000000000000000000000000000000000000400000000000",
      "type": "0x2",
      "transactionHash": "0x63200331594346dc41db87b2e69db1b056d08fb279fd6819caf3f95d43b97a35",
      "transactionIndex": "0x0",
      "blockHash": "0x16d99e3f66bd96c6eb61f86c3e19d4374f6eaf9f647f9c0733aaf6889607e745",
      "blockNumber": "0x6969f5",
      "gasUsed": "0xb4bd",
      "effectiveGasPrice": "0x2c3336e",
      "blobGasPrice": "0x1",
      "from": "0x14137c968b4bcb48b2a244dcbb80c237a7af91b5",
      "to": "0x57d3f99ee65e83adf8f555760dd18a866d5fc051",
      "contractAddress": null
    },
    {
      "status": "0x1",
      "cumulativeGasUsed": "0xb5e3",
      "logs": [
        {
          "address": "0x88541670e55cc00beefd87eb59edd1b7c511ac9a",
          "topics": [
            "0x8c5be1e5ebec7d5bd14f71427d1e84f3dd0314c0f7b2291e5b200ac8c7c3b925",
            "0x00000000000000000000000014137c968b4bcb48b2a244dcbb80c237a7af91b5",
            "0x000000000000000000000000e49d2815c231826cab58017e214bed19fe1c2dd4"
          ],
          "data": "0xffffffffffffffffffffffffffffffffffffffffffffffffffffffffffffffff",
          "blockHash": "0x672724a1c318c711a7f1b73e72e0953bb84dbe00962825bcd649f071619bc5b1",
          "blockNumber": "0x6969f6",
          "blockTimestamp": "0x6714941b",
          "transactionHash": "0x44d8dc8df436d1c9effd1331dca686a7531badd955248c1e1538d794834b974a",
          "transactionIndex": "0x0",
          "logIndex": "0x0",
          "removed": false
        }
      ],
      "logsBloom": "0x00400000000000000000000000000000000000000000000000000000000000000000000000000000002000000000000000000000000000000000000000200200000000000000000000000000000000000000000000000000000000000000000000000000000000000000000000000000000000000000000000000000000000000000000000000000000000000000010000000000000000002800000000000000020000000000000000000000000000000000100000000000000000000000000000000000000080000000000000000000000000000000000000000000000000000010000000000000000000000000000000000000000000000000400000000000",
      "type": "0x2",
      "transactionHash": "0x44d8dc8df436d1c9effd1331dca686a7531badd955248c1e1538d794834b974a",
      "transactionIndex": "0x0",
      "blockHash": "0x672724a1c318c711a7f1b73e72e0953bb84dbe00962825bcd649f071619bc5b1",
      "blockNumber": "0x6969f6",
      "gasUsed": "0xb5e3",
      "effectiveGasPrice": "0x26d19f8",
      "blobGasPrice": "0x1",
      "from": "0x14137c968b4bcb48b2a244dcbb80c237a7af91b5",
      "to": "0x88541670e55cc00beefd87eb59edd1b7c511ac9a",
      "contractAddress": null
    },
    {
      "status": "0x1",
      "cumulativeGasUsed": "0x16a64",
      "logs": [
        {
          "address": "0x57d3f99ee65e83adf8f555760dd18a866d5fc051",
          "topics": [
            "0x8c5be1e5ebec7d5bd14f71427d1e84f3dd0314c0f7b2291e5b200ac8c7c3b925",
            "0x00000000000000000000000014137c968b4bcb48b2a244dcbb80c237a7af91b5",
            "0x000000000000000000000000000000000022d473030f116ddee9f6b43ac78ba3"
          ],
          "data": "0xffffffffffffffffffffffffffffffffffffffffffffffffffffffffffffffff",
          "blockHash": "0x672724a1c318c711a7f1b73e72e0953bb84dbe00962825bcd649f071619bc5b1",
          "blockNumber": "0x6969f6",
          "blockTimestamp": "0x6714941b",
          "transactionHash": "0xb69508f5c088b74f44d710118bd0cddca45a2e14916c879834d82aa148fce3b5",
          "transactionIndex": "0x1",
          "logIndex": "0x1",
          "removed": false
        }
      ],
      "logsBloom": "0x00400000000000000000000000000000000000000000000000000000000000000000000000000000000000000000000000000000800000000000000000200000000000000000040000004000000000000008000000000800000000000000000000000000000000000000000000000000000000000000000020000000000000000000000000000000000000000000000000000000000000000000000000000000020000000000000000000000000000000000100000000000000000000000000000000000000080000000000000000000000000000000000000000000000000000010000000000000000000000000000000000000000000000000000000000000",
      "type": "0x2",
      "transactionHash": "0xb69508f5c088b74f44d710118bd0cddca45a2e14916c879834d82aa148fce3b5",
      "transactionIndex": "0x1",
      "blockHash": "0x672724a1c318c711a7f1b73e72e0953bb84dbe00962825bcd649f071619bc5b1",
      "blockNumber": "0x6969f6",
      "gasUsed": "0xb481",
      "effectiveGasPrice": "0x26d19f8",
      "blobGasPrice": "0x1",
      "from": "0x14137c968b4bcb48b2a244dcbb80c237a7af91b5",
      "to": "0x57d3f99ee65e83adf8f555760dd18a866d5fc051",
      "contractAddress": null
    },
    {
      "status": "0x1",
      "cumulativeGasUsed": "0xbaca",
      "logs": [
        {
          "address": "0x000000000022d473030f116ddee9f6b43ac78ba3",
          "topics": [
            "0xda9fa7c1b00402c17d0161b249b1ab8bbec047c5a52207b9c112deffd817036b",
            "0x00000000000000000000000014137c968b4bcb48b2a244dcbb80c237a7af91b5",
            "0x00000000000000000000000057d3f99ee65e83adf8f555760dd18a866d5fc051",
            "0x00000000000000000000000064fd57525346daa1b32651b69acb1781ada451cd"
          ],
          "data": "0x000000000000000000000000ffffffffffffffffffffffffffffffffffffffff0000000000000000000000000000000000000000000000000000ffffffffffff",
          "blockHash": "0x9d53c696abd4a337d99743f3a1a50ba3b8d9912980f594e8bfc3f14029e66b96",
          "blockNumber": "0x6969f7",
          "blockTimestamp": "0x6714941c",
          "transactionHash": "0x1fed6c6a3887bdab19c9c58476d588724627e50c4661ba29147847a8cba7ba41",
          "transactionIndex": "0x0",
          "logIndex": "0x0",
          "removed": false
        }
      ],
      "logsBloom": "0x00410000000000000000000000000000000000000000000000000000000000000000000000008000000000000000000000000000000002000000000000080000000000000000000000000000000000000000000004000000000000000000000000000000000000000000000000000000000000000000000000000000000000000020000000000000000000000000000000000000000000000000000080000000000000000000000000000000000000000000100000000000000000080000000000000000800080000000000000000000001000000000000040000000000000000000000000000000000000000000000000000000000000000000000000000400",
      "type": "0x2",
      "transactionHash": "0x1fed6c6a3887bdab19c9c58476d588724627e50c4661ba29147847a8cba7ba41",
      "transactionIndex": "0x0",
      "blockHash": "0x9d53c696abd4a337d99743f3a1a50ba3b8d9912980f594e8bfc3f14029e66b96",
      "blockNumber": "0x6969f7",
      "gasUsed": "0xbaca",
      "effectiveGasPrice": "0x221f732",
      "blobGasPrice": "0x1",
      "from": "0x14137c968b4bcb48b2a244dcbb80c237a7af91b5",
      "to": "0x000000000022d473030f116ddee9f6b43ac78ba3",
      "contractAddress": null
    },
    {
      "status": "0x1",
      "cumulativeGasUsed": "0x17071",
      "logs": [
        {
          "address": "0x88541670e55cc00beefd87eb59edd1b7c511ac9a",
          "topics": [
            "0x8c5be1e5ebec7d5bd14f71427d1e84f3dd0314c0f7b2291e5b200ac8c7c3b925",
            "0x00000000000000000000000014137c968b4bcb48b2a244dcbb80c237a7af91b5",
            "0x000000000000000000000000000000000022d473030f116ddee9f6b43ac78ba3"
          ],
          "data": "0xffffffffffffffffffffffffffffffffffffffffffffffffffffffffffffffff",
          "blockHash": "0x9d53c696abd4a337d99743f3a1a50ba3b8d9912980f594e8bfc3f14029e66b96",
          "blockNumber": "0x6969f7",
          "blockTimestamp": "0x6714941c",
          "transactionHash": "0x7483cdd42c345a0ee5dc4c2494e1837b62e5d029aa790f40922b14d414492deb",
          "transactionIndex": "0x1",
          "logIndex": "0x1",
          "removed": false
        }
      ],
      "logsBloom": "0x00400000000000000000000000000000000000000000000000000000000000000000000000000000002000000000000000000000800000000000000000200200000000000000000000004000000000000000000000000800000000000000000000000000000000000000000000000000000000000000000000000000000000000000000000000000000000000000010000000000000000000000000000000000020000000000000000000000000000000000100000000000000000000000000000000000000080000000000000000000000000000000000000000000000000000010000000000000000000000000000000000000000000000000000000000000",
      "type": "0x2",
      "transactionHash": "0x7483cdd42c345a0ee5dc4c2494e1837b62e5d029aa790f40922b14d414492deb",
      "transactionIndex": "0x1",
      "blockHash": "0x9d53c696abd4a337d99743f3a1a50ba3b8d9912980f594e8bfc3f14029e66b96",
      "blockNumber": "0x6969f7",
      "gasUsed": "0xb5a7",
      "effectiveGasPrice": "0x221f732",
      "blobGasPrice": "0x1",
      "from": "0x14137c968b4bcb48b2a244dcbb80c237a7af91b5",
      "to": "0x88541670e55cc00beefd87eb59edd1b7c511ac9a",
      "contractAddress": null
    },
    {
      "status": "0x1",
      "cumulativeGasUsed": "0x22b3b",
      "logs": [
        {
          "address": "0x000000000022d473030f116ddee9f6b43ac78ba3",
          "topics": [
            "0xda9fa7c1b00402c17d0161b249b1ab8bbec047c5a52207b9c112deffd817036b",
            "0x00000000000000000000000014137c968b4bcb48b2a244dcbb80c237a7af91b5",
            "0x00000000000000000000000088541670e55cc00beefd87eb59edd1b7c511ac9a",
            "0x00000000000000000000000064fd57525346daa1b32651b69acb1781ada451cd"
          ],
          "data": "0x000000000000000000000000ffffffffffffffffffffffffffffffffffffffff0000000000000000000000000000000000000000000000000000ffffffffffff",
          "blockHash": "0x9d53c696abd4a337d99743f3a1a50ba3b8d9912980f594e8bfc3f14029e66b96",
          "blockNumber": "0x6969f7",
          "blockTimestamp": "0x6714941c",
          "transactionHash": "0x193f73ea51c5c2baea41a8311c13a63aa160f0d6187d63642e1dd75a8860542f",
          "transactionIndex": "0x2",
          "logIndex": "0x2",
          "removed": false
        }
      ],
      "logsBloom": "0x00510000000000400000000000000000000000000000000000000000000000000000000000000000000000000000000000000000000002000000000000080000000000000000000000000000000000000000000000000000000000000000000000000000000000000000000000000000000000000000000000000000000000000020000000000000000000000000000000000000000000000000000080000000000000000000000000000000000000000010100000000000000000080000000000000000800080000000000000000000000000000000000040000000000000000000000000000000000000000000000000000000000000000000000000000400",
      "type": "0x2",
      "transactionHash": "0x193f73ea51c5c2baea41a8311c13a63aa160f0d6187d63642e1dd75a8860542f",
      "transactionIndex": "0x2",
      "blockHash": "0x9d53c696abd4a337d99743f3a1a50ba3b8d9912980f594e8bfc3f14029e66b96",
      "blockNumber": "0x6969f7",
      "gasUsed": "0xbaca",
      "effectiveGasPrice": "0x221f732",
      "blobGasPrice": "0x1",
      "from": "0x14137c968b4bcb48b2a244dcbb80c237a7af91b5",
      "to": "0x000000000022d473030f116ddee9f6b43ac78ba3",
      "contractAddress": null
    },
    {
      "status": "0x1",
      "cumulativeGasUsed": "0x6bf3b",
      "logs": [
        {
          "address": "0x8c4bcbe6b9ef47855f97e675296fa3f6fafa5f1a",
          "topics": [
            "0xf208f4912782fd25c7f114ca3723a2d5dd6f3bcc3ac8db5af63baa85f711d5ec",
            "0x607410124633908672b1c515f3b7da92ec227c584d5669a0690b48f20d024883",
            "0x000000000000000000000000496cd7097f0bdd32774da3d2f1ef0adf430b7e81"
          ],
          "data": "0xfffffffffffffffffffffffffffffffffffffffffffffffffffffffffff2764c00000000000000000000000000000000000000000000000000000000000d89b400000000000000000000000000000000000000000000000000000000009896800000000000000000000000000000000000000000000000000000000000000000",
          "blockHash": "0x9d53c696abd4a337d99743f3a1a50ba3b8d9912980f594e8bfc3f14029e66b96",
          "blockNumber": "0x6969f7",
          "blockTimestamp": "0x6714941c",
          "transactionHash": "0x50eef022657c240b0024720cef5b3d9fb5f45e335c611445052150b13bb25389",
          "transactionIndex": "0x3",
          "logIndex": "0x3",
          "removed": false
        },
        {
          "address": "0x57d3f99ee65e83adf8f555760dd18a866d5fc051",
          "topics": [
            "0xddf252ad1be2c89b69c2b068fc378daa952ba7f163c4a11628f55a4df523b3ef",
            "0x00000000000000000000000014137c968b4bcb48b2a244dcbb80c237a7af91b5",
            "0x0000000000000000000000008c4bcbe6b9ef47855f97e675296fa3f6fafa5f1a"
          ],
          "data": "0x0000000000000000000000000000000000000000000000000000000000989680",
          "blockHash": "0x9d53c696abd4a337d99743f3a1a50ba3b8d9912980f594e8bfc3f14029e66b96",
          "blockNumber": "0x6969f7",
          "blockTimestamp": "0x6714941c",
          "transactionHash": "0x50eef022657c240b0024720cef5b3d9fb5f45e335c611445052150b13bb25389",
          "transactionIndex": "0x3",
          "logIndex": "0x4",
          "removed": false
        },
        {
          "address": "0x88541670e55cc00beefd87eb59edd1b7c511ac9a",
          "topics": [
            "0xddf252ad1be2c89b69c2b068fc378daa952ba7f163c4a11628f55a4df523b3ef",
            "0x00000000000000000000000014137c968b4bcb48b2a244dcbb80c237a7af91b5",
            "0x0000000000000000000000008c4bcbe6b9ef47855f97e675296fa3f6fafa5f1a"
          ],
          "data": "0x0000000000000000000000000000000000000000000000000000000000989680",
          "blockHash": "0x9d53c696abd4a337d99743f3a1a50ba3b8d9912980f594e8bfc3f14029e66b96",
          "blockNumber": "0x6969f7",
          "blockTimestamp": "0x6714941c",
          "transactionHash": "0x50eef022657c240b0024720cef5b3d9fb5f45e335c611445052150b13bb25389",
          "transactionIndex": "0x3",
          "logIndex": "0x5",
          "removed": false
        },
        {
          "address": "0x88541670e55cc00beefd87eb59edd1b7c511ac9a",
          "topics": [
            "0x8c5be1e5ebec7d5bd14f71427d1e84f3dd0314c0f7b2291e5b200ac8c7c3b925",
            "0x00000000000000000000000014137c968b4bcb48b2a244dcbb80c237a7af91b5",
            "0x000000000000000000000000496cd7097f0bdd32774da3d2f1ef0adf430b7e81"
          ],
          "data": "0xffffffffffffffffffffffffffffffffffffffffffffffffffffffffff67697f",
          "blockHash": "0x9d53c696abd4a337d99743f3a1a50ba3b8d9912980f594e8bfc3f14029e66b96",
          "blockNumber": "0x6969f7",
          "blockTimestamp": "0x6714941c",
          "transactionHash": "0x50eef022657c240b0024720cef5b3d9fb5f45e335c611445052150b13bb25389",
          "transactionIndex": "0x3",
          "logIndex": "0x6",
          "removed": false
        }
      ],
      "logsBloom": "0x00400000000000000000000000000000000000000000000000000000000000000000000000000000002000002000000000800000000000000000000000200200000000000000040000000008000000000009000000000000000800000000000000000000000000100000000000000000000000000000000020000010000000000000000001000000100000000000010000000000000008000000000000000000020004000000080000000000000000000000100000000000200000000000000000000002000080000000000000800000000020000000008000000000000000000010000000000000000000000000000004000000000000000000000000000000",
      "type": "0x2",
      "transactionHash": "0x50eef022657c240b0024720cef5b3d9fb5f45e335c611445052150b13bb25389",
      "transactionIndex": "0x3",
      "blockHash": "0x9d53c696abd4a337d99743f3a1a50ba3b8d9912980f594e8bfc3f14029e66b96",
      "blockNumber": "0x6969f7",
      "gasUsed": "0x49400",
      "effectiveGasPrice": "0x221f732",
      "blobGasPrice": "0x1",
      "from": "0x14137c968b4bcb48b2a244dcbb80c237a7af91b5",
      "to": "0x496cd7097f0bdd32774da3d2f1ef0adf430b7e81",
      "contractAddress": null
    },
    {
      "status": "0x1",
      "cumulativeGasUsed": "0x1bbd2",
      "logs": [
        {
          "address": "0xdd6d76262fd7bdde428dcfcd94386ebae0151603",
          "topics": [
            "0x75d30ca40c7bcd48e685894b82b864808b9cb566090efc53444a2e61742f18a3",
            "0x0000000000000000000000000dcc19657007713483a5ca76e6a7bbe5f56ea37d",
            "0x000000000000000000000000bd4edcbb3561252eb9a8c7d32a2faa3425778088"
          ],
          "data": "0x",
          "blockHash": "0xfb32c15253127f5920734807cc2f8049d7d00ba33b02803a7b24d9b18ce4fbd5",
          "blockNumber": "0x6969f9",
          "blockTimestamp": "0x6714941e",
          "transactionHash": "0x36878b8ece95fe131a59db3d59527e09da49603081d2a96ccd32ca4a1f41ec5a",
          "transactionIndex": "0x0",
          "logIndex": "0x0",
          "removed": false
        },
        {
          "address": "0x0dcc19657007713483a5ca76e6a7bbe5f56ea37d",
          "topics": [
            "0x3b6e7e6ff858d016edf22112c8596ecf8f0a55591a3b84c35b993e0de85a0c84",
            "0x000000000000000000000000bd4edcbb3561252eb9a8c7d32a2faa3425778088",
            "0x000000000000000000000000dd6d76262fd7bdde428dcfcd94386ebae0151603",
            "0x000000000000000000000000bd4edcbb3561252eb9a8c7d32a2faa3425778088"
          ],
          "data": "0x",
          "blockHash": "0xfb32c15253127f5920734807cc2f8049d7d00ba33b02803a7b24d9b18ce4fbd5",
          "blockNumber": "0x6969f9",
          "blockTimestamp": "0x6714941e",
          "transactionHash": "0x36878b8ece95fe131a59db3d59527e09da49603081d2a96ccd32ca4a1f41ec5a",
          "transactionIndex": "0x0",
          "logIndex": "0x1",
          "removed": false
        }
      ],
      "logsBloom": "0x00000000000008000000200000040000000000000000000000000000000000000000000000000000020000000000000000800000000000000000000000000000000000000000000000020000000000000000000020000000000000000000000000000080000000000000000000000000000000000000000000000000000000000001200000000000000000000000000000000000000000000000000000008000000000000080000000000000020000000000000000001000000000080000000000000000000000000000000002000000000000000002000000000000000040000000000000000000000000000000000080000040000000000200000000000000",
      "type": "0x2",
      "transactionHash": "0x36878b8ece95fe131a59db3d59527e09da49603081d2a96ccd32ca4a1f41ec5a",
      "transactionIndex": "0x0",
      "blockHash": "0xfb32c15253127f5920734807cc2f8049d7d00ba33b02803a7b24d9b18ce4fbd5",
      "blockNumber": "0x6969f9",
      "gasUsed": "0x1bbd2",
      "effectiveGasPrice": "0x1a7a2ff",
      "blobGasPrice": "0x1",
      "from": "0x14137c968b4bcb48b2a244dcbb80c237a7af91b5",
      "to": "0xbd4edcbb3561252eb9a8c7d32a2faa3425778088",
      "contractAddress": null
    },
    {
      "status": "0x1",
      "cumulativeGasUsed": "0x44aa7",
      "logs": [
        {
          "address": "0xbd4edcbb3561252eb9a8c7d32a2faa3425778088",
          "topics": [
            "0xf347ee99503bf19c028bd6b18f3c676e82a9bb5b2bb5225aebe0fd62fd6a0d19"
          ],
          "data": "0x00000000000000000000000000000000000000000000008f4b281132460a0000",
          "blockHash": "0xfb32c15253127f5920734807cc2f8049d7d00ba33b02803a7b24d9b18ce4fbd5",
          "blockNumber": "0x6969f9",
          "blockTimestamp": "0x6714941e",
          "transactionHash": "0x0f571a19dbe59b7cc306d856e0e7aa42e729a5435003f475e1c701b44a0d571e",
          "transactionIndex": "0x1",
          "logIndex": "0x2",
          "removed": false
        },
        {
          "address": "0x8c4bcbe6b9ef47855f97e675296fa3f6fafa5f1a",
          "topics": [
            "0x40e9cecb9f5f1f1c5b9c97dec2917b7ee92e57ba5563708daca94dd84ad7112f",
            "0x607410124633908672b1c515f3b7da92ec227c584d5669a0690b48f20d024883",
            "0x000000000000000000000000e49d2815c231826cab58017e214bed19fe1c2dd4"
          ],
          "data": "0xffffffffffffffffffffffffffffffffffffffffffffffffffffffffff67698000000000000000000000000000000000000000000000000000000000004c2de80000000000000000000000000000000000000000803139d091a05e597a6c73600000000000000000000000000000000000000000000000000000000000989680ffffffffffffffffffffffffffffffffffffffffffffffffffffffffffffc9f60000000000000000000000000000000000000000000000000000000000000bb8",
          "blockHash": "0xfb32c15253127f5920734807cc2f8049d7d00ba33b02803a7b24d9b18ce4fbd5",
          "blockNumber": "0x6969f9",
          "blockTimestamp": "0x6714941e",
          "transactionHash": "0x0f571a19dbe59b7cc306d856e0e7aa42e729a5435003f475e1c701b44a0d571e",
          "transactionIndex": "0x1",
          "logIndex": "0x3",
          "removed": false
        },
        {
          "address": "0x57d3f99ee65e83adf8f555760dd18a866d5fc051",
          "topics": [
            "0xddf252ad1be2c89b69c2b068fc378daa952ba7f163c4a11628f55a4df523b3ef",
            "0x00000000000000000000000014137c968b4bcb48b2a244dcbb80c237a7af91b5",
            "0x0000000000000000000000008c4bcbe6b9ef47855f97e675296fa3f6fafa5f1a"
          ],
          "data": "0x0000000000000000000000000000000000000000000000000000000000989680",
          "blockHash": "0xfb32c15253127f5920734807cc2f8049d7d00ba33b02803a7b24d9b18ce4fbd5",
          "blockNumber": "0x6969f9",
          "blockTimestamp": "0x6714941e",
          "transactionHash": "0x0f571a19dbe59b7cc306d856e0e7aa42e729a5435003f475e1c701b44a0d571e",
          "transactionIndex": "0x1",
          "logIndex": "0x4",
          "removed": false
        },
        {
          "address": "0x88541670e55cc00beefd87eb59edd1b7c511ac9a",
          "topics": [
            "0xddf252ad1be2c89b69c2b068fc378daa952ba7f163c4a11628f55a4df523b3ef",
            "0x0000000000000000000000008c4bcbe6b9ef47855f97e675296fa3f6fafa5f1a",
            "0x00000000000000000000000014137c968b4bcb48b2a244dcbb80c237a7af91b5"
          ],
          "data": "0x00000000000000000000000000000000000000000000000000000000004c2de8",
          "blockHash": "0xfb32c15253127f5920734807cc2f8049d7d00ba33b02803a7b24d9b18ce4fbd5",
          "blockNumber": "0x6969f9",
          "blockTimestamp": "0x6714941e",
          "transactionHash": "0x0f571a19dbe59b7cc306d856e0e7aa42e729a5435003f475e1c701b44a0d571e",
          "transactionIndex": "0x1",
          "logIndex": "0x5",
          "removed": false
        }
      ],
      "logsBloom": "0x00400000000000000000000000000000000000000000000000000000000000000000000000000000002000002000000000800000040000000000000000000200000800000000040000000008000000000008000000000020000800000000000000000000000000100000000000000000000000000000000020000010000000000000000000000000100000000000010000000000000000002800004000000000000000000000080000000000000000400000100000000000200000000000000000000002000080000000200000800000000020000000000000000000000000000000000000000000004000000000000000000000000000000080400100000000",
      "type": "0x2",
      "transactionHash": "0x0f571a19dbe59b7cc306d856e0e7aa42e729a5435003f475e1c701b44a0d571e",
      "transactionIndex": "0x1",
      "blockHash": "0xfb32c15253127f5920734807cc2f8049d7d00ba33b02803a7b24d9b18ce4fbd5",
      "blockNumber": "0x6969f9",
      "gasUsed": "0x28ed5",
      "effectiveGasPrice": "0x1a7a2ff",
      "blobGasPrice": "0x1",
      "from": "0x14137c968b4bcb48b2a244dcbb80c237a7af91b5",
      "to": "0xe49d2815c231826cab58017e214bed19fe1c2dd4",
      "contractAddress": null
    }
  ],
  "libraries": [],
  "pending": [],
  "returns": {},
  "timestamp": 1729401898,
  "chain": 11155111,
  "commit": "69af61c"
}