{
  "transactions": [
    {
      "hash": "0xbe9466a9f5ba90ec6598928e6a8ecbaa3485ac8a2205c7f464e0ade3f48b9f61",
      "transactionType": "CREATE2",
      "contractName": "StablePair",
      "contractAddress": "0xbd4edcbb3561252eb9a8c7d32a2faa3425778088",
      "function": null,
      "arguments": [
        "0x8C4BcBE6b9eF47855f97E675296FA3F6fafa5F1A"
      ],
      "transaction": {
        "from": "0x14137c968b4bcb48b2a244dcbb80c237a7af91b5",
        "to": "0x4e59b44847b379578588920ca78fbf26c0b4956c",
        "gas": "0x159920",
        "value": "0x0",
        "input": "0x000000000000000000000000000000000000000000000000000000000001582c60a0604052346102a957604051601f61118e38819003918201601f19168301916001600160401b038311848410176102ad578084926020946040528339810103126102a957516001600160a01b03811681036102a9576080525f6101a06100646102c1565b8281528260208201528260408201528260608201528260808201528260a08201528260c08201528260e0820152826101008201528261012082015282610140820152826101608201528261018082015201525f6101a06100c26102c1565b8281528260208201528260408201528260608201528260808201528260a0820152600160c08201528260e0820152826101008201528261012082015260016101408201528261016082015282610180820152015261200030161580159061029c575b801561028f575b8015610282575b8015610275575b8015610268575b8015610258575b801561024c575b8015610240575b8015610234575b8015610224575b8015610218575b801561020c575b8015610200575b6101ed57600380546001600160a01b0319908116730dcc19657007713483a5ca76e6a7bbe5f56ea37d17909155600a5f55670de0b6b3a76400006001556002805490911633179055604051610eac90816102e2823960805181818161019601528181610225015281816106030152610c660152f35b630732d7b560e51b5f523060045260245ffd5b50600130161515610178565b50600230161515610171565b5060043016151561016a565b5060083016151560011415610163565b5060103016151561015c565b50602030161515610155565b5060403016151561014e565b5060803016151560011415610147565b5061010030161515610140565b5061020030161515610139565b5061040030161515610132565b506108003016151561012b565b5061100030161515610124565b5f80fd5b634e487b7160e01b5f52604160045260245ffd5b604051906101c082016001600160401b038111838210176102ad5760405256fe60806040526004361015610011575f80fd5b5f803560e01c806321d0ee7014610788578063259982e51461078857806332f929fc14610760578063544172fa14610745578063575e24b4146106c25780636c2bbe7e146105cc5780636fe7e6eb1461067a57806391dd7346146105d15780639f063efc146105cc578063a81a26771461059a578063a9b518ab146104f1578063b47b2fb114610489578063b6a8b0fa1461011f578063c4e833ce14610320578063cd8efff7146101c5578063dc4c90d314610180578063dc98354e14610141578063e185855214610124578063e1b4af691461011f5763fee9a5af146100f6575f80fd5b3461011c57602036600319011261011c576020610114600435610d8d565b604051908152f35b80fd5b6108d9565b503461011c5760a036600319011261011c57506020610114610d3c565b503461011c5760e036600319011261011c5761015b61078d565b5060a036602319011261011c576004906101736108b3565b50630a85dc2960e01b8152fd5b503461011c578060031936011261011c576040517f00000000000000000000000000000000000000000000000000000000000000006001600160a01b03168152602090f35b503461011c5760a036600319011261011c5760a06101e4366004610aa5565b20604051602081019182526006604082015260408152610205606082610a84565b519020604051631e2eaeaf60e01b815260048101919091526020816024817f00000000000000000000000000000000000000000000000000000000000000006001600160a01b03165afa9182156103145780926102d6575b60206102a56001600160a01b03610288610283606088901c6001600160401b0316610b49565b610b34565b1661029f60a0610299366004610aa5565b20610d8d565b9061092b565b7ff347ee99503bf19c028bd6b18f3c676e82a9bb5b2bb5225aebe0fd62fd6a0d1982604051838152a1604051908152f35b9091506020823d60201161030c575b816102f260209383610a84565b8101031261011c5750516102a56001600160401b0361025d565b3d91506102e5565b604051903d90823e3d90fd5b503461011c578060031936011261011c57806101c0916101a060405161034581610a54565b8281528260208201528260408201528260608201528260808201528260a08201528260c08201528260e082015282610100820152826101208201528261014082015282610160820152826101808201520152604051906103a482610a54565b808252602082019181835260408101828152606082018381526080830184815260a0840185815260c085016001815260e0860190878252610100870192888452610120880194898652610140890196600188526101608a01988b8a526101a06101808c019b8d8d52019b808d5260206040519e8f92835251151591015251151560408d015251151560608c015251151560808b015251151560a08a015251151560c089015251151560e08801525115156101008701525115156101208601525115156101408501525115156101608401525115156101808301525115156101a0820152f35b503461011c5761016036600319011261011c576104a461078d565b5060a036602319011261011c5760603660c319011261011c57610144356001600160401b0381116104ed57906104df600492369084016107b7565b5050630a85dc2960e01b8152fd5b5080fd5b5034610596576040366003190112610596576024356001600160a01b03811690819003610596576003546001600160a01b0316803b15610596575f809160246040518094819363c529a67960e01b83528760048401525af1801561058b57610576575b506004803583526020526040822080546001600160a01b031916909117905580f35b6105839192505f90610a84565b5f905f610554565b6040513d5f823e3d90fd5b5f80fd5b34610596576020366003190112610596576004355f526004602052602060018060a01b0360405f205416604051908152f35b610855565b34610596576020366003190112610596576004356001600160401b038111610596576106019036906004016107b7565b7f00000000000000000000000000000000000000000000000000000000000000006001600160a01b0316330361066b5761063f604091602093610df8565b815192839181835280519182918282860152018484015e5f828201840152601f01601f19168101030190f35b63570c108560e11b5f5260045ffd5b34610596576101003660031901126105965761069461078d565b5060a0366023190112610596576106a96108b3565b506106b26108c9565b50630a85dc2960e01b5f5260045ffd5b3461059657610140366003190112610596576106dc61078d565b5060a03660231901126105965760603660c319011261059657610124356001600160401b038111610596576107159036906004016107b7565b5050606062ffffff610725610a01565b906040939293519363ffffffff60e01b1684526020840152166040820152f35b346105965760a0366003190112610596576020610114610970565b34610596575f366003190112610596576003546040516001600160a01b039091168152602090f35b6107e4565b600435906001600160a01b038216820361059657565b35906001600160a01b038216820361059657565b9181601f84011215610596578235916001600160401b038311610596576020838186019501011161059657565b3461059657610160366003190112610596576004356001600160a01b0381168103610596575060a03660231901126105965760803660c319011261059657610144356001600160401b038111610596576108429036906004016107b7565b5050630a85dc2960e01b5f908152600490fd5b34610596576101a0366003190112610596576004356001600160a01b0381168103610596575060a03660231901126105965760803660c319011261059657610184356001600160401b038111610596576108429036906004016107b7565b60c435906001600160a01b038216820361059657565b60e435908160020b820361059657565b3461059657610120366003190112610596576004356001600160a01b0381168103610596575060a036602319011261059657610104356001600160401b038111610596576108429036906004016107b7565b8181029291811591840414171561093e57565b634e487b7160e01b5f52601160045260245ffd5b811561095c570490565b634e487b7160e01b5f52601260045260245ffd5b61097a6004610c18565b60015490818110156109f25760648102908082046064149015171561093e576109ae916109a691610952565b5f549061092b565b603281106109d2575060325b612710810290808204612710149015171561093e5790565b60640360648111156109ba57634e487b7160e01b5f52601160045260245ffd5b50505f90565b61097a90610c18565b5f60e43512156105965760c43580151581036105965715610a4a57610a266024610d84565b6101f4810180911161093e576315d7892d60e21b915f9162ffffff16624000001790565b610a2660246109f8565b6101c081019081106001600160401b03821117610a7057604052565b634e487b7160e01b5f52604160045260245ffd5b90601f801991011681019081106001600160401b03821117610a7057604052565b91908260a09103126105965760405160a081018181106001600160401b03821117610a70576040528092610ad8816107a3565b8252610ae6602082016107a3565b6020830152604081013562ffffff811681036105965760408301526060810135908160020b820361059657606083019190915260800135906001600160a01b03821682036105965760800152565b6001600160a01b0316801561095c5760010490565b5f9080156109f2578080600114610c1057600214610c095760016101338210166001600b83101617610bf2579060019060025b60018111610baf57506001600160a01b038390048211610b9b57500290565b634e487b7160e01b81526011600452602490fd5b926001600160a01b038190048111610bde5760018416610bd5575b80029260011c610b7c565b80920291610bca565b634e487b7160e01b82526011600452602482fd5b6002900a91906001600160a01b038311610b9b5750565b5050600490565b505050600190565b60a0610c243683610aa5565b20604051602081019182526006604082015260408152610c45606082610a84565b519020604051631e2eaeaf60e01b81526004810191909152906020826024817f00000000000000000000000000000000000000000000000000000000000000006001600160a01b03165afa91821561058b575f92610d06575b50610cd99161029f9060a090610299906001600160a01b0390610cd0906102839060601c6001600160401b0316610b49565b16933690610aa5565b7ff347ee99503bf19c028bd6b18f3c676e82a9bb5b2bb5225aebe0fd62fd6a0d196020604051838152a190565b91506020823d602011610d34575b81610d2160209383610a84565b810103126105965790519061029f610c9e565b3d9150610d14565b610d466004610c18565b600154808211156109f25760648202918083046064149015171561093e57610d6d91610952565b606319810190811161093e575f546109ae9161092b565b610d4690610c18565b5f5260046020526004602060018060a01b0360405f205416604051928380926315f789a960e21b82525afa90811561058b575f91610dc9575090565b90506020813d602011610df0575b81610de460209383610a84565b81010312610596575190565b3d9150610dd7565b5f9182918160405192839283378101838152039082305af1903d15610e6e573d916001600160401b038311610a705760405192610e3f601f8201601f191660200185610a84565b83523d5f602085013e5b610e6c5750805115610e5d57602081519101fd5b6314815f4760e31b5f5260045ffd5b565b606091610e4956fea2646970667358221220e2152a1faeb9150e14da8a031d70ae9f41232a3a0febd71b8b0840fd43dac9d064736f6c634300081a00330000000000000000000000008c4bcbe6b9ef47855f97e675296fa3f6fafa5f1a",
        "nonce": "0xf1",
        "chainId": "0xaa36a7"
      },
      "additionalContracts": [],
      "isFixedGasLimit": false
    },
    {
      "hash": "0xe45367c270addc4fa218187db1488dd49e473785db366feb8b347a82a2cbf431",
      "transactionType": "CREATE",
      "contractName": "Stablecoin",
      "contractAddress": "0x64fd57525346daa1b32651b69acb1781ada451cd",
      "function": null,
      "arguments": null,
      "transaction": {
        "from": "0x14137c968b4bcb48b2a244dcbb80c237a7af91b5",
        "gas": "0xbc182",
        "value": "0x0",
        "input": "0x60806040523461033957604080519081016001600160401b0381118282101761024c5760409081526009825268556e69737461626c6560b81b602083015280519081016001600160401b0381118282101761024c576040526004815263155554d160e21b602082015281516001600160401b03811161024c57600354600181811c9116801561032f575b602082101461022e57601f81116102cc575b50602092601f821160011461026b57928192935f92610260575b50508160011b915f199060031b1c1916176003555b80516001600160401b03811161024c57600454600181811c91168015610242575b602082101461022e57601f81116101cb575b50602091601f821160011461016b579181925f92610160575b50508160011b915f199060031b1c1916176004555b600580546001600160a01b0319167394a9d9ac8a22534e3faca9f4e7f2e2cf85d5e4c817905560405161084c908161033e8239f35b015190505f80610116565b601f1982169260045f52805f20915f5b8581106101b35750836001951061019b575b505050811b0160045561012b565b01515f1960f88460031b161c191690555f808061018d565b9192602060018192868501518155019401920161017b565b60045f527f8a35acfbc15ff81a39ae7d344fd709f28e8600b4aa8c65c6b64bfe7fe36bd19b601f830160051c81019160208410610224575b601f0160051c01905b81811061021957506100fd565b5f815560010161020c565b9091508190610203565b634e487b7160e01b5f52602260045260245ffd5b90607f16906100eb565b634e487b7160e01b5f52604160045260245ffd5b015190505f806100b5565b601f1982169360035f52805f20915f5b8681106102b4575083600195961061029c575b505050811b016003556100ca565b01515f1960f88460031b161c191690555f808061028e565b9192602060018192868501518155019401920161027b565b60035f527fc2575a0e9e593c00f959f8c92f12db2869c3395a3b0502d05e2516446f71f85b601f830160051c81019160208410610325575b601f0160051c01905b81811061031a575061009b565b5f815560010161030d565b9091508190610304565b90607f1690610089565b5f80fdfe6080806040526004361015610012575f80fd5b5f3560e01c90816306fdde031461062357508063095ea7b3146105a157806318160ddd1461058457806323b872dd146104a4578063313ce567146104895780633e413bee1461046157806370a082311461042a57806395d89b4114610326578063a9059cbb146102f5578063dd62ed3e146102a5578063de0e9a3e146101ae5763ea598cb0146100a0575f80fd5b346101aa5760203660031901126101aa576004355f602060018060a01b03600554166064604051809481936323b872dd60e01b83523360048401523060248401528760448401525af1801561019f57610172575b50331561015f5760025481810180911161014b57600255335f525f60205260405f208181540190556040519081525f7fddf252ad1be2c89b69c2b068fc378daa952ba7f163c4a11628f55a4df523b3ef60203393a3005b634e487b7160e01b5f52601160045260245ffd5b63ec442f0560e01b5f525f60045260245ffd5b6101939060203d602011610198575b61018b8183610731565b810190610767565b6100f4565b503d610181565b6040513d5f823e3d90fd5b5f80fd5b346101aa5760203660031901126101aa57600435331561029257335f525f60205260405f205481811061027957815f926020923385528484520360408420558060025403600255826040518281527fddf252ad1be2c89b69c2b068fc378daa952ba7f163c4a11628f55a4df523b3ef843392a360055460405163a9059cbb60e01b815233600482015260248101929092529092839160449183916001600160a01b03165af1801561019f5761025f57005b6102779060203d6020116101985761018b8183610731565b005b63391434e360e21b5f523360045260245260445260645ffd5b634b637e8f60e11b5f525f60045260245ffd5b346101aa5760403660031901126101aa576102be610705565b6102c661071b565b6001600160a01b039182165f908152600160209081526040808320949093168252928352819020549051908152f35b346101aa5760403660031901126101aa5761031b610311610705565b602435903361077f565b602060405160018152f35b346101aa575f3660031901126101aa576040515f6004548060011c90600181168015610420575b60208310811461040c578285529081156103e8575060011461038a575b6103868361037a81850382610731565b604051918291826106db565b0390f35b91905060045f527f8a35acfbc15ff81a39ae7d344fd709f28e8600b4aa8c65c6b64bfe7fe36bd19b915f905b8082106103ce5750909150810160200161037a61036a565b9192600181602092548385880101520191019092916103b6565b60ff191660208086019190915291151560051b8401909101915061037a905061036a565b634e487b7160e01b5f52602260045260245ffd5b91607f169161034d565b346101aa5760203660031901126101aa576001600160a01b0361044b610705565b165f525f602052602060405f2054604051908152f35b346101aa575f3660031901126101aa576005546040516001600160a01b039091168152602090f35b346101aa575f3660031901126101aa57602060405160128152f35b346101aa5760603660031901126101aa576104bd610705565b6104c561071b565b6001600160a01b0382165f818152600160208181526040808420338552909152909120549193604435939290918101610504575b5061031b935061077f565b8381106105695784156105565733156105435761031b945f52600160205260405f2060018060a01b0333165f526020528360405f2091039055846104f9565b634a1406b160e11b5f525f60045260245ffd5b63e602df0560e01b5f525f60045260245ffd5b8390637dc7a0d960e11b5f523360045260245260445260645ffd5b346101aa575f3660031901126101aa576020600254604051908152f35b346101aa5760403660031901126101aa576105ba610705565b602435903315610556576001600160a01b031690811561054357335f52600160205260405f20825f526020528060405f20556040519081527f8c5be1e5ebec7d5bd14f71427d1e84f3dd0314c0f7b2291e5b200ac8c7c3b92560203392a3602060405160018152f35b346101aa575f3660031901126101aa575f6003548060011c906001811680156106d1575b60208310811461040c578285529081156103e85750600114610673576103868361037a81850382610731565b91905060035f527fc2575a0e9e593c00f959f8c92f12db2869c3395a3b0502d05e2516446f71f85b915f905b8082106106b75750909150810160200161037a61036a565b91926001816020925483858801015201910190929161069f565b91607f1691610647565b602060409281835280519182918282860152018484015e5f828201840152601f01601f1916010190565b600435906001600160a01b03821682036101aa57565b602435906001600160a01b03821682036101aa57565b90601f8019910116810190811067ffffffffffffffff82111761075357604052565b634e487b7160e01b5f52604160045260245ffd5b908160209103126101aa575180151581036101aa5790565b6001600160a01b0316908115610292576001600160a01b031691821561015f57815f525f60205260405f20548181106107fd57817fddf252ad1be2c89b69c2b068fc378daa952ba7f163c4a11628f55a4df523b3ef92602092855f525f84520360405f2055845f525f825260405f20818154019055604051908152a3565b8263391434e360e21b5f5260045260245260445260645ffdfea264697066735822122063fb9514a3127635121085d7ceaf923bfd2743523bf79d94381312fa045c7e4464736f6c634300081a0033",
        "nonce": "0xf2",
        "chainId": "0xaa36a7"
      },
      "additionalContracts": [],
      "isFixedGasLimit": false
    },
    {
      "hash": "0xfee7200557022ec3b6c9d8686409cbefdcbfe73fa127819d2f7ac5d3826fb229",
      "transactionType": "CALL",
      "contractName": null,
      "contractAddress": "0x94a9d9ac8a22534e3faca9f4e7f2e2cf85d5e4c8",
      "function": "approve(address,uint256)",
      "arguments": [
        "0x64FD57525346daa1B32651b69ACB1781ada451Cd",
        "10000000000"
      ],
      "transaction": {
        "from": "0x14137c968b4bcb48b2a244dcbb80c237a7af91b5",
        "to": "0x94a9d9ac8a22534e3faca9f4e7f2e2cf85d5e4c8",
        "gas": "0x10816",
        "value": "0x0",
        "input": "0x095ea7b300000000000000000000000064fd57525346daa1b32651b69acb1781ada451cd00000000000000000000000000000000000000000000000000000002540be400",
        "nonce": "0xf3",
        "chainId": "0xaa36a7"
      },
      "additionalContracts": [],
      "isFixedGasLimit": false
    },
    {
      "hash": "0xfae684456dfde2d9d1d805e372305ec7dea2348cfce6022859e937592a0041e6",
      "transactionType": "CALL",
      "contractName": "Stablecoin",
      "contractAddress": "0x64fd57525346daa1b32651b69acb1781ada451cd",
      "function": "wrap(uint256)",
      "arguments": [
        "10000000000"
      ],
      "transaction": {
        "from": "0x14137c968b4bcb48b2a244dcbb80c237a7af91b5",
        "to": "0x64fd57525346daa1b32651b69acb1781ada451cd",
        "gas": "0x21f4b",
        "value": "0x0",
        "input": "0xea598cb000000000000000000000000000000000000000000000000000000002540be400",
        "nonce": "0xf4",
        "chainId": "0xaa36a7"
      },
      "additionalContracts": [],
      "isFixedGasLimit": false
    },
    {
      "hash": "0x62438115bf3985403bc039718daf28791154a2c8f929f42f0118ae74a59af67a",
      "transactionType": "CALL",
      "contractName": null,
      "contractAddress": "0x8c4bcbe6b9ef47855f97e675296fa3f6fafa5f1a",
      "function": "initialize((address,address,uint24,int24,address),uint160)",
      "arguments": [
        "(0x64FD57525346daa1B32651b69ACB1781ada451Cd, 0x88541670E55cC00bEEFD87eB59EDd1b7C511AC9a, 3000, 60, 0xbd4EDCbb3561252eb9a8C7d32A2FAa3425778088)",
        "79228162514264337593543950336"
      ],
      "transaction": {
        "from": "0x14137c968b4bcb48b2a244dcbb80c237a7af91b5",
        "to": "0x8c4bcbe6b9ef47855f97e675296fa3f6fafa5f1a",
        "gas": "0x1174e",
        "value": "0x0",
        "input": "0x6276cbbe00000000000000000000000064fd57525346daa1b32651b69acb1781ada451cd00000000000000000000000088541670e55cc00beefd87eb59edd1b7c511ac9a0000000000000000000000000000000000000000000000000000000000000bb8000000000000000000000000000000000000000000000000000000000000003c000000000000000000000000bd4edcbb3561252eb9a8c7d32a2faa34257780880000000000000000000000000000000000000001000000000000000000000000",
        "nonce": "0xf5",
        "chainId": "0xaa36a7"
      },
      "additionalContracts": [],
      "isFixedGasLimit": false
    },
    {
      "hash": "0xe5bc332da27f8a2681caebbe09b86ba97be099381cdc0f4b506df4e29d1f2d1a",
      "transactionType": "CALL",
      "contractName": "Stablecoin",
      "contractAddress": "0x64fd57525346daa1b32651b69acb1781ada451cd",
      "function": "approve(address,uint256)",
      "arguments": [
        "0x496CD7097f0BDd32774dA3D2F1Ef0adF430b7e81",
        "115792089237316195423570985008687907853269984665640564039457584007913129639935"
      ],
      "transaction": {
        "from": "0x14137c968b4bcb48b2a244dcbb80c237a7af91b5",
        "to": "0x64fd57525346daa1b32651b69acb1781ada451cd",
        "gas": "0xf9a4",
        "value": "0x0",
        "input": "0x095ea7b3000000000000000000000000496cd7097f0bdd32774da3d2f1ef0adf430b7e81ffffffffffffffffffffffffffffffffffffffffffffffffffffffffffffffff",
        "nonce": "0xf6",
        "chainId": "0xaa36a7"
      },
      "additionalContracts": [],
      "isFixedGasLimit": false
    },
    {
      "hash": "0x8c38d632a9fee432000a10b683dd03ef7e287ab7ba797276016c1b83f97eebf9",
      "transactionType": "CALL",
      "contractName": null,
      "contractAddress": "0x88541670e55cc00beefd87eb59edd1b7c511ac9a",
      "function": "approve(address,uint256)",
      "arguments": [
        "0x496CD7097f0BDd32774dA3D2F1Ef0adF430b7e81",
        "115792089237316195423570985008687907853269984665640564039457584007913129639935"
      ],
      "transaction": {
        "from": "0x14137c968b4bcb48b2a244dcbb80c237a7af91b5",
        "to": "0x88541670e55cc00beefd87eb59edd1b7c511ac9a",
        "gas": "0x10a01",
        "value": "0x0",
        "input": "0x095ea7b3000000000000000000000000496cd7097f0bdd32774da3d2f1ef0adf430b7e81ffffffffffffffffffffffffffffffffffffffffffffffffffffffffffffffff",
        "nonce": "0xf7",
        "chainId": "0xaa36a7"
      },
      "additionalContracts": [],
      "isFixedGasLimit": false
    },
    {
      "hash": "0x71fb56ae8645fab9b525b6fc390c216a3666326b7ea6c6e4ad48dbb05eacb149",
      "transactionType": "CALL",
      "contractName": "Stablecoin",
      "contractAddress": "0x64fd57525346daa1b32651b69acb1781ada451cd",
      "function": "approve(address,uint256)",
      "arguments": [
        "0xe49d2815C231826caB58017e214Bed19fE1c2dD4",
        "115792089237316195423570985008687907853269984665640564039457584007913129639935"
      ],
      "transaction": {
        "from": "0x14137c968b4bcb48b2a244dcbb80c237a7af91b5",
        "to": "0x64fd57525346daa1b32651b69acb1781ada451cd",
        "gas": "0xf9a4",
        "value": "0x0",
        "input": "0x095ea7b3000000000000000000000000e49d2815c231826cab58017e214bed19fe1c2dd4ffffffffffffffffffffffffffffffffffffffffffffffffffffffffffffffff",
        "nonce": "0xf8",
        "chainId": "0xaa36a7"
      },
      "additionalContracts": [],
      "isFixedGasLimit": false
    },
    {
      "hash": "0x53e6ac514d387a4eb18ee5bbc67d9e36fffd340b66b598faf6eedc2d7bc9cba9",
      "transactionType": "CALL",
      "contractName": null,
      "contractAddress": "0x88541670e55cc00beefd87eb59edd1b7c511ac9a",
      "function": "approve(address,uint256)",
      "arguments": [
        "0xe49d2815C231826caB58017e214Bed19fE1c2dD4",
        "115792089237316195423570985008687907853269984665640564039457584007913129639935"
      ],
      "transaction": {
        "from": "0x14137c968b4bcb48b2a244dcbb80c237a7af91b5",
        "to": "0x88541670e55cc00beefd87eb59edd1b7c511ac9a",
        "gas": "0x10a01",
        "value": "0x0",
        "input": "0x095ea7b3000000000000000000000000e49d2815c231826cab58017e214bed19fe1c2dd4ffffffffffffffffffffffffffffffffffffffffffffffffffffffffffffffff",
        "nonce": "0xf9",
        "chainId": "0xaa36a7"
      },
      "additionalContracts": [],
      "isFixedGasLimit": false
    },
    {
      "hash": "0x01b85f950d5cbf338fceabcc418a8a0ab53de9d782ea14670d8ca4e0962edf36",
      "transactionType": "CALL",
      "contractName": "Stablecoin",
      "contractAddress": "0x64fd57525346daa1b32651b69acb1781ada451cd",
      "function": "approve(address,uint256)",
      "arguments": [
        "0x000000000022D473030F116dDEE9F6B43aC78BA3",
        "115792089237316195423570985008687907853269984665640564039457584007913129639935"
      ],
      "transaction": {
        "from": "0x14137c968b4bcb48b2a244dcbb80c237a7af91b5",
        "to": "0x64fd57525346daa1b32651b69acb1781ada451cd",
        "gas": "0x107fc",
        "value": "0x0",
        "input": "0x095ea7b3000000000000000000000000000000000022d473030f116ddee9f6b43ac78ba3ffffffffffffffffffffffffffffffffffffffffffffffffffffffffffffffff",
        "nonce": "0xfa",
        "chainId": "0xaa36a7"
      },
      "additionalContracts": [],
      "isFixedGasLimit": false
    },
    {
      "hash": "0x29be3922a34976661a57d2f71a101e7f0659700039913b4a86e4934a9c52aa6b",
      "transactionType": "CALL",
      "contractName": null,
      "contractAddress": "0x000000000022d473030f116ddee9f6b43ac78ba3",
      "function": "approve(address,address,uint160,uint48)",
      "arguments": [
        "0x64FD57525346daa1B32651b69ACB1781ada451Cd",
        "0x1B1C77B606d13b09C84d1c7394B96b147bC03147",
        "1461501637330902918203684832716283019655932542975",
        "281474976710655"
      ],
      "transaction": {
        "from": "0x14137c968b4bcb48b2a244dcbb80c237a7af91b5",
        "to": "0x000000000022d473030f116ddee9f6b43ac78ba3",
        "gas": "0x1112d",
        "value": "0x0",
        "input": "0x87517c4500000000000000000000000064fd57525346daa1b32651b69acb1781ada451cd0000000000000000000000001b1c77b606d13b09c84d1c7394b96b147bc03147000000000000000000000000ffffffffffffffffffffffffffffffffffffffff0000000000000000000000000000000000000000000000000000ffffffffffff",
        "nonce": "0xfb",
        "chainId": "0xaa36a7"
      },
      "additionalContracts": [],
      "isFixedGasLimit": false
    },
    {
      "hash": "0x91c542443dad468eec8d1e32e163743f2366388338d7e07dcbf0c61a3168e819",
      "transactionType": "CALL",
      "contractName": null,
      "contractAddress": "0x88541670e55cc00beefd87eb59edd1b7c511ac9a",
      "function": "approve(address,uint256)",
      "arguments": [
        "0x000000000022D473030F116dDEE9F6B43aC78BA3",
        "115792089237316195423570985008687907853269984665640564039457584007913129639935"
      ],
      "transaction": {
        "from": "0x14137c968b4bcb48b2a244dcbb80c237a7af91b5",
        "to": "0x88541670e55cc00beefd87eb59edd1b7c511ac9a",
        "gas": "0xfae7",
        "value": "0x0",
        "input": "0x095ea7b3000000000000000000000000000000000022d473030f116ddee9f6b43ac78ba3ffffffffffffffffffffffffffffffffffffffffffffffffffffffffffffffff",
        "nonce": "0xfc",
        "chainId": "0xaa36a7"
      },
      "additionalContracts": [],
      "isFixedGasLimit": false
    },
    {
      "hash": "0xa9dfef199dc9b8812d1e1f86f4128e18fd991e81cce22c584831db60b4b99a93",
      "transactionType": "CALL",
      "contractName": null,
      "contractAddress": "0x000000000022d473030f116ddee9f6b43ac78ba3",
      "function": "approve(address,address,uint160,uint48)",
      "arguments": [
        "0x88541670E55cC00bEEFD87eB59EDd1b7C511AC9a",
        "0x1B1C77B606d13b09C84d1c7394B96b147bC03147",
        "1461501637330902918203684832716283019655932542975",
        "281474976710655"
      ],
      "transaction": {
        "from": "0x14137c968b4bcb48b2a244dcbb80c237a7af91b5",
        "to": "0x000000000022d473030f116ddee9f6b43ac78ba3",
        "gas": "0x1112d",
        "value": "0x0",
        "input": "0x87517c4500000000000000000000000088541670e55cc00beefd87eb59edd1b7c511ac9a0000000000000000000000001b1c77b606d13b09c84d1c7394b96b147bc03147000000000000000000000000ffffffffffffffffffffffffffffffffffffffff0000000000000000000000000000000000000000000000000000ffffffffffff",
        "nonce": "0xfd",
        "chainId": "0xaa36a7"
      },
      "additionalContracts": [],
      "isFixedGasLimit": false
    },
    {
      "hash": "0x311e55991b69acb152cbb717c197ff65e14414d2b3edb635e31013a2d6b3d562",
      "transactionType": "CALL",
      "contractName": null,
      "contractAddress": "0x496cd7097f0bdd32774da3d2f1ef0adf430b7e81",
      "function": "modifyLiquidity((address,address,uint24,int24,address),(int24,int24,int256,bytes32),bytes)",
      "arguments": [
        "(0x64FD57525346daa1B32651b69ACB1781ada451Cd, 0x88541670E55cC00bEEFD87eB59EDd1b7C511AC9a, 3000, 60, 0xbd4EDCbb3561252eb9a8C7d32A2FAa3425778088)",
        "(-887220, 887220, 10000000, 0x0000000000000000000000000000000000000000000000000000000000000000)",
        "0x"
      ],
      "transaction": {
        "from": "0x14137c968b4bcb48b2a244dcbb80c237a7af91b5",
        "to": "0x496cd7097f0bdd32774da3d2f1ef0adf430b7e81",
        "gas": "0x652d3",
        "value": "0x0",
        "input": "0x5a6bcfda00000000000000000000000064fd57525346daa1b32651b69acb1781ada451cd00000000000000000000000088541670e55cc00beefd87eb59edd1b7c511ac9a0000000000000000000000000000000000000000000000000000000000000bb8000000000000000000000000000000000000000000000000000000000000003c000000000000000000000000bd4edcbb3561252eb9a8c7d32a2faa3425778088fffffffffffffffffffffffffffffffffffffffffffffffffffffffffff2764c00000000000000000000000000000000000000000000000000000000000d89b40000000000000000000000000000000000000000000000000000000000989680000000000000000000000000000000000000000000000000000000000000000000000000000000000000000000000000000000000000000000000000000001400000000000000000000000000000000000000000000000000000000000000000",
        "nonce": "0xfe",
        "chainId": "0xaa36a7"
      },
      "additionalContracts": [],
      "isFixedGasLimit": false
    },
    {
      "hash": "0xd7369e1f56ed585284cfcc7fce21f9fb3110ab83f713ab14960090ddcfa3dd20",
      "transactionType": "CALL",
      "contractName": null,
      "contractAddress": "0x1b1c77b606d13b09c84d1c7394b96b147bc03147",
      "function": "modifyLiquidities(bytes,uint256)",
      "arguments": [
        "0x000000000000000000000000000000000000000000000000000000000000004000000000000000000000000000000000000000000000000000000000000000800000000000000000000000000000000000000000000000000000000000000002021100000000000000000000000000000000000000000000000000000000000000000000000000000000000000000000000000000000000000000000000000020000000000000000000000000000000000000000000000000000000000000040000000000000000000000000000000000000000000000000000000000000020000000000000000000000000000000000000000000000000000000000000001a000000000000000000000000064fd57525346daa1b32651b69acb1781ada451cd00000000000000000000000088541670e55cc00beefd87eb59edd1b7c511ac9a0000000000000000000000000000000000000000000000000000000000000bb8000000000000000000000000000000000000000000000000000000000000003c000000000000000000000000bd4edcbb3561252eb9a8c7d32a2faa3425778088fffffffffffffffffffffffffffffffffffffffffffffffffffffffffff2764c00000000000000000000000000000000000000000000000000000000000d89b4000000000000000000000000000000000000000000000000000000000098968000000000000000000000000000000000000000000000021e19e0c9bab240000000000000000000000000000000000000000000000000021e19e0c9bab240000000000000000000000000000014137c968b4bcb48b2a244dcbb80c237a7af91b500000000000000000000000000000000000000000000000000000000000001800000000000000000000000000000000000000000000000000000000000000000000000000000000000000000000000000000000000000000000000000000004000000000000000000000000064fd57525346daa1b32651b69acb1781ada451cd00000000000000000000000088541670e55cc00beefd87eb59edd1b7c511ac9a",
        "1729402368"
      ],
      "transaction": {
        "from": "0x14137c968b4bcb48b2a244dcbb80c237a7af91b5",
        "to": "0x1b1c77b606d13b09c84d1c7394b96b147bc03147",
        "gas": "0x6a174",
        "value": "0x0",
        "input": "0xdd46508f000000000000000000000000000000000000000000000000000000000000004000000000000000000000000000000000000000000000000000000000671496000000000000000000000000000000000000000000000000000000000000000300000000000000000000000000000000000000000000000000000000000000004000000000000000000000000000000000000000000000000000000000000000800000000000000000000000000000000000000000000000000000000000000002021100000000000000000000000000000000000000000000000000000000000000000000000000000000000000000000000000000000000000000000000000020000000000000000000000000000000000000000000000000000000000000040000000000000000000000000000000000000000000000000000000000000020000000000000000000000000000000000000000000000000000000000000001a000000000000000000000000064fd57525346daa1b32651b69acb1781ada451cd00000000000000000000000088541670e55cc00beefd87eb59edd1b7c511ac9a0000000000000000000000000000000000000000000000000000000000000bb8000000000000000000000000000000000000000000000000000000000000003c000000000000000000000000bd4edcbb3561252eb9a8c7d32a2faa3425778088fffffffffffffffffffffffffffffffffffffffffffffffffffffffffff2764c00000000000000000000000000000000000000000000000000000000000d89b4000000000000000000000000000000000000000000000000000000000098968000000000000000000000000000000000000000000000021e19e0c9bab240000000000000000000000000000000000000000000000000021e19e0c9bab240000000000000000000000000000014137c968b4bcb48b2a244dcbb80c237a7af91b500000000000000000000000000000000000000000000000000000000000001800000000000000000000000000000000000000000000000000000000000000000000000000000000000000000000000000000000000000000000000000000004000000000000000000000000064fd57525346daa1b32651b69acb1781ada451cd00000000000000000000000088541670e55cc00beefd87eb59edd1b7c511ac9a",
        "nonce": "0xff",
        "chainId": "0xaa36a7"
      },
      "additionalContracts": [],
      "isFixedGasLimit": false
    },
    {
      "hash": "0xaa86e6ed4d2f38c91ea9c81444f5bf5b51c0c6d6617999f1864edfe96c0baa18",
      "transactionType": "CALL",
      "contractName": "StablePair",
      "contractAddress": "0xbd4edcbb3561252eb9a8c7d32a2faa3425778088",
      "function": "addOracle(bytes32,address)",
      "arguments": [
        "0x33c20c57f373b411c6576a786da0fc55c8bb2623a6a27e707c399d072755564c",
        "0xdd6D76262Fd7BdDe428dcfCd94386EbAe0151603"
      ],
      "transaction": {
        "from": "0x14137c968b4bcb48b2a244dcbb80c237a7af91b5",
        "to": "0xbd4edcbb3561252eb9a8c7d32a2faa3425778088",
        "gas": "0x28916",
        "value": "0x0",
        "input": "0xa9b518ab33c20c57f373b411c6576a786da0fc55c8bb2623a6a27e707c399d072755564c000000000000000000000000dd6d76262fd7bdde428dcfcd94386ebae0151603",
        "nonce": "0x100",
        "chainId": "0xaa36a7"
      },
      "additionalContracts": [],
      "isFixedGasLimit": false
    },
    {
      "hash": "0x87a93d12ad4b0f732ffa2ff653b9a8908509aad05239cf130e59ee481bb4e37f",
      "transactionType": "CALL",
      "contractName": null,
      "contractAddress": "0xe49d2815c231826cab58017e214bed19fe1c2dd4",
      "function": "swap((address,address,uint24,int24,address),(bool,int256,uint160),(bool,bool),bytes)",
      "arguments": [
        "(0x64FD57525346daa1B32651b69ACB1781ada451Cd, 0x88541670E55cC00bEEFD87eB59EDd1b7C511AC9a, 3000, 60, 0xbd4EDCbb3561252eb9a8C7d32A2FAa3425778088)",
        "(true, -10000000, 4295128740)",
        "(false, false)",
        "0x"
      ],
      "transaction": {
        "from": "0x14137c968b4bcb48b2a244dcbb80c237a7af91b5",
        "to": "0xe49d2815c231826cab58017e214bed19fe1c2dd4",
        "gas": "0x38900",
        "value": "0x0",
        "input": "0x2229d0b400000000000000000000000064fd57525346daa1b32651b69acb1781ada451cd00000000000000000000000088541670e55cc00beefd87eb59edd1b7c511ac9a0000000000000000000000000000000000000000000000000000000000000bb8000000000000000000000000000000000000000000000000000000000000003c000000000000000000000000bd4edcbb3561252eb9a8c7d32a2faa34257780880000000000000000000000000000000000000000000000000000000000000001ffffffffffffffffffffffffffffffffffffffffffffffffffffffffff67698000000000000000000000000000000000000000000000000000000001000276a40000000000000000000000000000000000000000000000000000000000000000000000000000000000000000000000000000000000000000000000000000000000000000000000000000000000000000000000000000000000000000000001600000000000000000000000000000000000000000000000000000000000000000",
        "nonce": "0x101",
        "chainId": "0xaa36a7"
      },
      "additionalContracts": [],
      "isFixedGasLimit": false
    }
  ],
  "receipts": [
    {
      "status": "0x1",
      "cumulativeGasUsed": "0xec49a",
      "logs": [],
      "logsBloom": "0x00000000000000000000000000000000000000000000000000000000000000000000000000000000000000000000000000000000000000000000000000000000000000000000000000000000000000000000000000000000000000000000000000000000000000000000000000000000000000000000000000000000000000000000000000000000000000000000000000000000000000000000000000000000000000000000000000000000000000000000000000000000000000000000000000000000000000000000000000000000000000000000000000000000000000000000000000000000000000000000000000000000000000000000000000000000",
      "type": "0x2",
      "transactionHash": "0xbe9466a9f5ba90ec6598928e6a8ecbaa3485ac8a2205c7f464e0ade3f48b9f61",
      "transactionIndex": "0x0",
      "blockHash": "0x08990e16a62fe8091d35c8ed8c79721b30c46752f26931ee09880d88b8862649",
      "blockNumber": "0x696a27",
      "gasUsed": "0xec49a",
      "effectiveGasPrice": "0x589b3f9",
      "blobGasPrice": "0x1",
      "from": "0x14137c968b4bcb48b2a244dcbb80c237a7af91b5",
      "to": "0x4e59b44847b379578588920ca78fbf26c0b4956c",
      "contractAddress": null
    },
    {
      "status": "0x1",
      "cumulativeGasUsed": "0x90b02",
      "logs": [],
      "logsBloom": "0x00000000000000000000000000000000000000000000000000000000000000000000000000000000000000000000000000000000000000000000000000000000000000000000000000000000000000000000000000000000000000000000000000000000000000000000000000000000000000000000000000000000000000000000000000000000000000000000000000000000000000000000000000000000000000000000000000000000000000000000000000000000000000000000000000000000000000000000000000000000000000000000000000000000000000000000000000000000000000000000000000000000000000000000000000000000",
      "type": "0x2",
      "transactionHash": "0xe45367c270addc4fa218187db1488dd49e473785db366feb8b347a82a2cbf431",
      "transactionIndex": "0x0",
      "blockHash": "0xd4494ed2f8a10dca5d8ee0e6bc82268dc1eecb2456ac34007d75e56949166223",
      "blockNumber": "0x696a28",
      "gasUsed": "0x90b02",
      "effectiveGasPrice": "0x4e5d3cb",
      "blobGasPrice": "0x1",
      "from": "0x14137c968b4bcb48b2a244dcbb80c237a7af91b5",
      "to": null,
      "contractAddress": "0x64fd57525346daa1b32651b69acb1781ada451cd"
    },
    {
      "status": "0x1",
      "cumulativeGasUsed": "0x9bf95",
      "logs": [
        {
          "address": "0x94a9d9ac8a22534e3faca9f4e7f2e2cf85d5e4c8",
          "topics": [
            "0x8c5be1e5ebec7d5bd14f71427d1e84f3dd0314c0f7b2291e5b200ac8c7c3b925",
            "0x00000000000000000000000014137c968b4bcb48b2a244dcbb80c237a7af91b5",
            "0x00000000000000000000000064fd57525346daa1b32651b69acb1781ada451cd"
          ],
          "data": "0x00000000000000000000000000000000000000000000000000000002540be400",
          "blockHash": "0xd4494ed2f8a10dca5d8ee0e6bc82268dc1eecb2456ac34007d75e56949166223",
          "blockNumber": "0x696a28",
          "blockTimestamp": "0x671494f5",
          "transactionHash": "0xfee7200557022ec3b6c9d8686409cbefdcbfe73fa127819d2f7ac5d3826fb229",
          "transactionIndex": "0x1",
          "logIndex": "0x0",
          "removed": false
        }
      ],
      "logsBloom": "0x00400000000000000000000000000000000000000000000000000000000000000000000000000000000000000000000000000000000002000000000000200000000000000000000000000000000000000000000000000000000008000000000000000000000000000000000000000000000000000000000000000000000000000000000000000000000000000000000000000000000000000000000080000000020000000100000000004000000000000000100000000000000000000000000000000000800080000000000000000000000000000000000000000000000000000010000000000000000000000000000000000000000000000000000000000000",
      "type": "0x2",
      "transactionHash": "0xfee7200557022ec3b6c9d8686409cbefdcbfe73fa127819d2f7ac5d3826fb229",
      "transactionIndex": "0x1",
      "blockHash": "0xd4494ed2f8a10dca5d8ee0e6bc82268dc1eecb2456ac34007d75e56949166223",
      "blockNumber": "0x696a28",
      "gasUsed": "0xb493",
      "effectiveGasPrice": "0x4e5d3cb",
      "blobGasPrice": "0x1",
      "from": "0x14137c968b4bcb48b2a244dcbb80c237a7af91b5",
      "to": "0x94a9d9ac8a22534e3faca9f4e7f2e2cf85d5e4c8",
      "contractAddress": null
    },
    {
      "status": "0x1",
      "cumulativeGasUsed": "0xb48eb",
      "logs": [
        {
          "address": "0x94a9d9ac8a22534e3faca9f4e7f2e2cf85d5e4c8",
          "topics": [
            "0xddf252ad1be2c89b69c2b068fc378daa952ba7f163c4a11628f55a4df523b3ef",
            "0x00000000000000000000000014137c968b4bcb48b2a244dcbb80c237a7af91b5",
            "0x00000000000000000000000064fd57525346daa1b32651b69acb1781ada451cd"
          ],
          "data": "0x00000000000000000000000000000000000000000000000000000002540be400",
          "blockHash": "0xd4494ed2f8a10dca5d8ee0e6bc82268dc1eecb2456ac34007d75e56949166223",
          "blockNumber": "0x696a28",
          "blockTimestamp": "0x671494f5",
          "transactionHash": "0xfae684456dfde2d9d1d805e372305ec7dea2348cfce6022859e937592a0041e6",
          "transactionIndex": "0x2",
          "logIndex": "0x1",
          "removed": false
        },
        {
          "address": "0x94a9d9ac8a22534e3faca9f4e7f2e2cf85d5e4c8",
          "topics": [
            "0x8c5be1e5ebec7d5bd14f71427d1e84f3dd0314c0f7b2291e5b200ac8c7c3b925",
            "0x00000000000000000000000014137c968b4bcb48b2a244dcbb80c237a7af91b5",
            "0x00000000000000000000000064fd57525346daa1b32651b69acb1781ada451cd"
          ],
          "data": "0x0000000000000000000000000000000000000000000000000000000000000000",
          "blockHash": "0xd4494ed2f8a10dca5d8ee0e6bc82268dc1eecb2456ac34007d75e56949166223",
          "blockNumber": "0x696a28",
          "blockTimestamp": "0x671494f5",
          "transactionHash": "0xfae684456dfde2d9d1d805e372305ec7dea2348cfce6022859e937592a0041e6",
          "transactionIndex": "0x2",
          "logIndex": "0x2",
          "removed": false
        },
        {
          "address": "0x64fd57525346daa1b32651b69acb1781ada451cd",
          "topics": [
            "0xddf252ad1be2c89b69c2b068fc378daa952ba7f163c4a11628f55a4df523b3ef",
            "0x0000000000000000000000000000000000000000000000000000000000000000",
            "0x00000000000000000000000014137c968b4bcb48b2a244dcbb80c237a7af91b5"
          ],
          "data": "0x00000000000000000000000000000000000000000000000000000002540be400",
          "blockHash": "0xd4494ed2f8a10dca5d8ee0e6bc82268dc1eecb2456ac34007d75e56949166223",
          "blockNumber": "0x696a28",
          "blockTimestamp": "0x671494f5",
          "transactionHash": "0xfae684456dfde2d9d1d805e372305ec7dea2348cfce6022859e937592a0041e6",
          "transactionIndex": "0x2",
          "logIndex": "0x3",
          "removed": false
        }
      ],
      "logsBloom": "0x00400000000000040000000000000000000000100000000000000000000000000000000000000000000000000000000000000000000002000000000000200000000000000000000000000008000000100000000000000000000008000000000000000000020000000000000000000800000000000000000000000010000000000000000000000000000000000000000000000000000000000000000080000000020000000100000000004000000000000000100000000000000000000000000000000002800080000000000000000000000000000000000000000000000020000010000000000000000000000000000000000000000000000000000000000000",
      "type": "0x2",
      "transactionHash": "0xfae684456dfde2d9d1d805e372305ec7dea2348cfce6022859e937592a0041e6",
      "transactionIndex": "0x2",
      "blockHash": "0xd4494ed2f8a10dca5d8ee0e6bc82268dc1eecb2456ac34007d75e56949166223",
      "blockNumber": "0x696a28",
      "gasUsed": "0x18956",
      "effectiveGasPrice": "0x4e5d3cb",
      "blobGasPrice": "0x1",
      "from": "0x14137c968b4bcb48b2a244dcbb80c237a7af91b5",
      "to": "0x64fd57525346daa1b32651b69acb1781ada451cd",
      "contractAddress": null
    },
    {
      "status": "0x1",
      "cumulativeGasUsed": "0xca37",
      "logs": [
        {
          "address": "0x8c4bcbe6b9ef47855f97e675296fa3f6fafa5f1a",
          "topics": [
            "0xdd466e674ea557f56295e2d0218a125ea4b4f0f6f3307b95f85e6110838d6438",
            "0x33c20c57f373b411c6576a786da0fc55c8bb2623a6a27e707c399d072755564c",
            "0x00000000000000000000000064fd57525346daa1b32651b69acb1781ada451cd",
            "0x00000000000000000000000088541670e55cc00beefd87eb59edd1b7c511ac9a"
          ],
          "data": "0x0000000000000000000000000000000000000000000000000000000000000bb8000000000000000000000000000000000000000000000000000000000000003c000000000000000000000000bd4edcbb3561252eb9a8c7d32a2faa342577808800000000000000000000000000000000000000010000000000000000000000000000000000000000000000000000000000000000000000000000000000000000",
          "blockHash": "0xaf3044d9e38b6df5ed91122b4b426fc6db26027031ff2ddb4456f7f292cfc7c3",
          "blockNumber": "0x696a29",
          "blockTimestamp": "0x671494f6",
          "transactionHash": "0x62438115bf3985403bc039718daf28791154a2c8f929f42f0118ae74a59af67a",
          "transactionIndex": "0x0",
          "logIndex": "0x0",
          "removed": false
        }
      ],
      "logsBloom": "0x00100000000000400000000000000000000000000000000000000000000000000000000000000000000000000000000000000000000002000000000000000000800000000000000000000000000000000000000000000000000800000000000000000000000000000000000000000000000000000000000000000000000000000000000000000008000000000000000000000001000000000000000080200000000000000000000000000000000000000010000000000000000000000000000000000000800000000000000000800000000020000000000000000000000080000000000000000000000000000000000000000000000000000000000000200000",
      "type": "0x2",
      "transactionHash": "0x62438115bf3985403bc039718daf28791154a2c8f929f42f0118ae74a59af67a",
      "transactionIndex": "0x0",
      "blockHash": "0xaf3044d9e38b6df5ed91122b4b426fc6db26027031ff2ddb4456f7f292cfc7c3",
      "blockNumber": "0x696a29",
      "gasUsed": "0xca37",
      "effectiveGasPrice": "0x452c29e",
      "blobGasPrice": "0x1",
      "from": "0x14137c968b4bcb48b2a244dcbb80c237a7af91b5",
      "to": "0x8c4bcbe6b9ef47855f97e675296fa3f6fafa5f1a",
      "contractAddress": null
    },
    {
      "status": "0x1",
      "cumulativeGasUsed": "0x17ef4",
      "logs": [
        {
          "address": "0x64fd57525346daa1b32651b69acb1781ada451cd",
          "topics": [
            "0x8c5be1e5ebec7d5bd14f71427d1e84f3dd0314c0f7b2291e5b200ac8c7c3b925",
            "0x00000000000000000000000014137c968b4bcb48b2a244dcbb80c237a7af91b5",
            "0x000000000000000000000000496cd7097f0bdd32774da3d2f1ef0adf430b7e81"
          ],
          "data": "0xffffffffffffffffffffffffffffffffffffffffffffffffffffffffffffffff",
          "blockHash": "0xaf3044d9e38b6df5ed91122b4b426fc6db26027031ff2ddb4456f7f292cfc7c3",
          "blockNumber": "0x696a29",
          "blockTimestamp": "0x671494f6",
          "transactionHash": "0xe5bc332da27f8a2681caebbe09b86ba97be099381cdc0f4b506df4e29d1f2d1a",
          "transactionIndex": "0x1",
          "logIndex": "0x1",
          "removed": false
        }
      ],
      "logsBloom": "0x00400000000000040000000000000000000000100000000000000000000000000000000000000000000000000000000000000000000000000000000000200000000000000000000000000000000000100001000000000000000000000000000000000000000000000000000000000000000000000000000000000000000000000000000000000000000000000000000000000000000008000000000000000000020000000000000000000000000000000000100000000000000000000000000000000000000080000000000000000000000000000000008000000000000000000010000000000000000000000000000000000000000000000000000000000000",
      "type": "0x2",
      "transactionHash": "0xe5bc332da27f8a2681caebbe09b86ba97be099381cdc0f4b506df4e29d1f2d1a",
      "transactionIndex": "0x1",
      "blockHash": "0xaf3044d9e38b6df5ed91122b4b426fc6db26027031ff2ddb4456f7f292cfc7c3",
      "blockNumber": "0x696a29",
      "gasUsed": "0xb4bd",
      "effectiveGasPrice": "0x452c29e",
      "blobGasPrice": "0x1",
      "from": "0x14137c968b4bcb48b2a244dcbb80c237a7af91b5",
      "to": "0x64fd57525346daa1b32651b69acb1781ada451cd",
      "contractAddress": null
    },
    {
      "status": "0x1",
      "cumulativeGasUsed": "0x234d7",
      "logs": [
        {
          "address": "0x88541670e55cc00beefd87eb59edd1b7c511ac9a",
          "topics": [
            "0x8c5be1e5ebec7d5bd14f71427d1e84f3dd0314c0f7b2291e5b200ac8c7c3b925",
            "0x00000000000000000000000014137c968b4bcb48b2a244dcbb80c237a7af91b5",
            "0x000000000000000000000000496cd7097f0bdd32774da3d2f1ef0adf430b7e81"
          ],
          "data": "0xffffffffffffffffffffffffffffffffffffffffffffffffffffffffffffffff",
          "blockHash": "0xaf3044d9e38b6df5ed91122b4b426fc6db26027031ff2ddb4456f7f292cfc7c3",
          "blockNumber": "0x696a29",
          "blockTimestamp": "0x671494f6",
          "transactionHash": "0x8c38d632a9fee432000a10b683dd03ef7e287ab7ba797276016c1b83f97eebf9",
          "transactionIndex": "0x2",
          "logIndex": "0x2",
          "removed": false
        }
      ],
      "logsBloom": "0x00400000000000000000000000000000000000000000000000000000000000000000000000000000002000000000000000000000000000000000000000200200000000000000000000000000000000000001000000000000000000000000000000000000000000000000000000000000000000000000000000000000000000000000000000000000000000000000010000000000000008000000000000000000020000000000000000000000000000000000100000000000000000000000000000000000000080000000000000000000000000000000008000000000000000000010000000000000000000000000000000000000000000000000000000000000",
      "type": "0x2",
      "transactionHash": "0x8c38d632a9fee432000a10b683dd03ef7e287ab7ba797276016c1b83f97eebf9",
      "transactionIndex": "0x2",
      "blockHash": "0xaf3044d9e38b6df5ed91122b4b426fc6db26027031ff2ddb4456f7f292cfc7c3",
      "blockNumber": "0x696a29",
      "gasUsed": "0xb5e3",
      "effectiveGasPrice": "0x452c29e",
      "blobGasPrice": "0x1",
      "from": "0x14137c968b4bcb48b2a244dcbb80c237a7af91b5",
      "to": "0x88541670e55cc00beefd87eb59edd1b7c511ac9a",
      "contractAddress": null
    },
    {
      "status": "0x1",
      "cumulativeGasUsed": "0x2e994",
      "logs": [
        {
          "address": "0x64fd57525346daa1b32651b69acb1781ada451cd",
          "topics": [
            "0x8c5be1e5ebec7d5bd14f71427d1e84f3dd0314c0f7b2291e5b200ac8c7c3b925",
            "0x00000000000000000000000014137c968b4bcb48b2a244dcbb80c237a7af91b5",
            "0x000000000000000000000000e49d2815c231826cab58017e214bed19fe1c2dd4"
          ],
          "data": "0xffffffffffffffffffffffffffffffffffffffffffffffffffffffffffffffff",
          "blockHash": "0xaf3044d9e38b6df5ed91122b4b426fc6db26027031ff2ddb4456f7f292cfc7c3",
          "blockNumber": "0x696a29",
          "blockTimestamp": "0x671494f6",
          "transactionHash": "0x71fb56ae8645fab9b525b6fc390c216a3666326b7ea6c6e4ad48dbb05eacb149",
          "transactionIndex": "0x3",
          "logIndex": "0x3",
          "removed": false
        }
      ],
      "logsBloom": "0x00400000000000040000000000000000000000100000000000000000000000000000000000000000000000000000000000000000000000000000000000200000000000000000000000000000000000100000000000000000000000000000000000000000000000000000000000000000000000000000000000000000000000000000000000000000000000000000000000000000000000002800000000000000020000000000000000000000000000000000100000000000000000000000000000000000000080000000000000000000000000000000000000000000000000000010000000000000000000000000000000000000000000000000400000000000",
      "type": "0x2",
      "transactionHash": "0x71fb56ae8645fab9b525b6fc390c216a3666326b7ea6c6e4ad48dbb05eacb149",
      "transactionIndex": "0x3",
      "blockHash": "0xaf3044d9e38b6df5ed91122b4b426fc6db26027031ff2ddb4456f7f292cfc7c3",
      "blockNumber": "0x696a29",
      "gasUsed": "0xb4bd",
      "effectiveGasPrice": "0x452c29e",
      "blobGasPrice": "0x1",
      "from": "0x14137c968b4bcb48b2a244dcbb80c237a7af91b5",
      "to": "0x64fd57525346daa1b32651b69acb1781ada451cd",
      "contractAddress": null
    },
    {
      "status": "0x1",
      "cumulativeGasUsed": "0xb5e3",
      "logs": [
        {
          "address": "0x88541670e55cc00beefd87eb59edd1b7c511ac9a",
          "topics": [
            "0x8c5be1e5ebec7d5bd14f71427d1e84f3dd0314c0f7b2291e5b200ac8c7c3b925",
            "0x00000000000000000000000014137c968b4bcb48b2a244dcbb80c237a7af91b5",
            "0x000000000000000000000000e49d2815c231826cab58017e214bed19fe1c2dd4"
          ],
          "data": "0xffffffffffffffffffffffffffffffffffffffffffffffffffffffffffffffff",
          "blockHash": "0xd80dd337a7ba99242ac237816675631ac32e6bd7de26de8f6cf2fc1e218bdc6e",
          "blockNumber": "0x696a2a",
          "blockTimestamp": "0x671494f7",
          "transactionHash": "0x53e6ac514d387a4eb18ee5bbc67d9e36fffd340b66b598faf6eedc2d7bc9cba9",
          "transactionIndex": "0x0",
          "logIndex": "0x0",
          "removed": false
        }
      ],
      "logsBloom": "0x00400000000000000000000000000000000000000000000000000000000000000000000000000000002000000000000000000000000000000000000000200200000000000000000000000000000000000000000000000000000000000000000000000000000000000000000000000000000000000000000000000000000000000000000000000000000000000000010000000000000000002800000000000000020000000000000000000000000000000000100000000000000000000000000000000000000080000000000000000000000000000000000000000000000000000010000000000000000000000000000000000000000000000000400000000000",
      "type": "0x2",
      "transactionHash": "0x53e6ac514d387a4eb18ee5bbc67d9e36fffd340b66b598faf6eedc2d7bc9cba9",
      "transactionIndex": "0x0",
      "blockHash": "0xd80dd337a7ba99242ac237816675631ac32e6bd7de26de8f6cf2fc1e218bdc6e",
      "blockNumber": "0x696a2a",
      "gasUsed": "0xb5e3",
      "effectiveGasPrice": "0x3cc2f16",
      "blobGasPrice": "0x1",
      "from": "0x14137c968b4bcb48b2a244dcbb80c237a7af91b5",
      "to": "0x88541670e55cc00beefd87eb59edd1b7c511ac9a",
      "contractAddress": null
    },
    {
      "status": "0x1",
      "cumulativeGasUsed": "0x16a64",
      "logs": [
        {
          "address": "0x64fd57525346daa1b32651b69acb1781ada451cd",
          "topics": [
            "0x8c5be1e5ebec7d5bd14f71427d1e84f3dd0314c0f7b2291e5b200ac8c7c3b925",
            "0x00000000000000000000000014137c968b4bcb48b2a244dcbb80c237a7af91b5",
            "0x000000000000000000000000000000000022d473030f116ddee9f6b43ac78ba3"
          ],
          "data": "0xffffffffffffffffffffffffffffffffffffffffffffffffffffffffffffffff",
          "blockHash": "0xd80dd337a7ba99242ac237816675631ac32e6bd7de26de8f6cf2fc1e218bdc6e",
          "blockNumber": "0x696a2a",
          "blockTimestamp": "0x671494f7",
          "transactionHash": "0x01b85f950d5cbf338fceabcc418a8a0ab53de9d782ea14670d8ca4e0962edf36",
          "transactionIndex": "0x1",
          "logIndex": "0x1",
          "removed": false
        }
      ],
      "logsBloom": "0x00400000000000040000000000000000000000100000000000000000000000000000000000000000000000000000000000000000800000000000000000200000000000000000000000004000000000100000000000000800000000000000000000000000000000000000000000000000000000000000000000000000000000000000000000000000000000000000000000000000000000000000000000000000020000000000000000000000000000000000100000000000000000000000000000000000000080000000000000000000000000000000000000000000000000000010000000000000000000000000000000000000000000000000000000000000",
      "type": "0x2",
      "transactionHash": "0x01b85f950d5cbf338fceabcc418a8a0ab53de9d782ea14670d8ca4e0962edf36",
      "transactionIndex": "0x1",
      "blockHash": "0xd80dd337a7ba99242ac237816675631ac32e6bd7de26de8f6cf2fc1e218bdc6e",
      "blockNumber": "0x696a2a",
      "gasUsed": "0xb481",
      "effectiveGasPrice": "0x3cc2f16",
      "blobGasPrice": "0x1",
      "from": "0x14137c968b4bcb48b2a244dcbb80c237a7af91b5",
      "to": "0x64fd57525346daa1b32651b69acb1781ada451cd",
      "contractAddress": null
    },
    {
      "status": "0x1",
      "cumulativeGasUsed": "0x2252e",
      "logs": [
        {
          "address": "0x000000000022d473030f116ddee9f6b43ac78ba3",
          "topics": [
            "0xda9fa7c1b00402c17d0161b249b1ab8bbec047c5a52207b9c112deffd817036b",
            "0x00000000000000000000000014137c968b4bcb48b2a244dcbb80c237a7af91b5",
            "0x00000000000000000000000064fd57525346daa1b32651b69acb1781ada451cd",
            "0x0000000000000000000000001b1c77b606d13b09c84d1c7394b96b147bc03147"
          ],
          "data": "0x000000000000000000000000ffffffffffffffffffffffffffffffffffffffff0000000000000000000000000000000000000000000000000000ffffffffffff",
          "blockHash": "0xd80dd337a7ba99242ac237816675631ac32e6bd7de26de8f6cf2fc1e218bdc6e",
          "blockNumber": "0x696a2a",
          "blockTimestamp": "0x671494f7",
          "transactionHash": "0x29be3922a34976661a57d2f71a101e7f0659700039913b4a86e4934a9c52aa6b",
          "transactionIndex": "0x2",
          "logIndex": "0x2",
          "removed": false
        }
      ],
      "logsBloom": "0x00410000000000000000000000000000000000000000000000000000000000000000000000000040000000000000000000000000000002000000000000080000000000000000000000000000000000000000000000000000000000000000000000000000000000000000000000000000000000000000000000000000000000000020000000000000000000000000000000000000000000000000000080000000000000000000000000000000000000000000100000000000000000080020000000000000800080000000000000000000000000000000000040000000000000000000000000000000000000000000000000800000000000000000000000000400",
      "type": "0x2",
      "transactionHash": "0x29be3922a34976661a57d2f71a101e7f0659700039913b4a86e4934a9c52aa6b",
      "transactionIndex": "0x2",
      "blockHash": "0xd80dd337a7ba99242ac237816675631ac32e6bd7de26de8f6cf2fc1e218bdc6e",
      "blockNumber": "0x696a2a",
      "gasUsed": "0xbaca",
      "effectiveGasPrice": "0x3cc2f16",
      "blobGasPrice": "0x1",
      "from": "0x14137c968b4bcb48b2a244dcbb80c237a7af91b5",
      "to": "0x000000000022d473030f116ddee9f6b43ac78ba3",
      "contractAddress": null
    },
    {
      "status": "0x1",
      "cumulativeGasUsed": "0x2dad5",
      "logs": [
        {
          "address": "0x88541670e55cc00beefd87eb59edd1b7c511ac9a",
          "topics": [
            "0x8c5be1e5ebec7d5bd14f71427d1e84f3dd0314c0f7b2291e5b200ac8c7c3b925",
            "0x00000000000000000000000014137c968b4bcb48b2a244dcbb80c237a7af91b5",
            "0x000000000000000000000000000000000022d473030f116ddee9f6b43ac78ba3"
          ],
          "data": "0xffffffffffffffffffffffffffffffffffffffffffffffffffffffffffffffff",
          "blockHash": "0xd80dd337a7ba99242ac237816675631ac32e6bd7de26de8f6cf2fc1e218bdc6e",
          "blockNumber": "0x696a2a",
          "blockTimestamp": "0x671494f7",
          "transactionHash": "0x91c542443dad468eec8d1e32e163743f2366388338d7e07dcbf0c61a3168e819",
          "transactionIndex": "0x3",
          "logIndex": "0x3",
          "removed": false
        }
      ],
      "logsBloom": "0x00400000000000000000000000000000000000000000000000000000000000000000000000000000002000000000000000000000800000000000000000200200000000000000000000004000000000000000000000000800000000000000000000000000000000000000000000000000000000000000000000000000000000000000000000000000000000000000010000000000000000000000000000000000020000000000000000000000000000000000100000000000000000000000000000000000000080000000000000000000000000000000000000000000000000000010000000000000000000000000000000000000000000000000000000000000",
      "type": "0x2",
      "transactionHash": "0x91c542443dad468eec8d1e32e163743f2366388338d7e07dcbf0c61a3168e819",
      "transactionIndex": "0x3",
      "blockHash": "0xd80dd337a7ba99242ac237816675631ac32e6bd7de26de8f6cf2fc1e218bdc6e",
      "blockNumber": "0x696a2a",
      "gasUsed": "0xb5a7",
      "effectiveGasPrice": "0x3cc2f16",
      "blobGasPrice": "0x1",
      "from": "0x14137c968b4bcb48b2a244dcbb80c237a7af91b5",
      "to": "0x88541670e55cc00beefd87eb59edd1b7c511ac9a",
      "contractAddress": null
    },
    {
      "status": "0x1",
      "cumulativeGasUsed": "0x3959f",
      "logs": [
        {
          "address": "0x000000000022d473030f116ddee9f6b43ac78ba3",
          "topics": [
            "0xda9fa7c1b00402c17d0161b249b1ab8bbec047c5a52207b9c112deffd817036b",
            "0x00000000000000000000000014137c968b4bcb48b2a244dcbb80c237a7af91b5",
            "0x00000000000000000000000088541670e55cc00beefd87eb59edd1b7c511ac9a",
            "0x0000000000000000000000001b1c77b606d13b09c84d1c7394b96b147bc03147"
          ],
          "data": "0x000000000000000000000000ffffffffffffffffffffffffffffffffffffffff0000000000000000000000000000000000000000000000000000ffffffffffff",
          "blockHash": "0xd80dd337a7ba99242ac237816675631ac32e6bd7de26de8f6cf2fc1e218bdc6e",
          "blockNumber": "0x696a2a",
          "blockTimestamp": "0x671494f7",
          "transactionHash": "0xa9dfef199dc9b8812d1e1f86f4128e18fd991e81cce22c584831db60b4b99a93",
          "transactionIndex": "0x4",
          "logIndex": "0x4",
          "removed": false
        }
      ],
      "logsBloom": "0x00510000000000400000000000000000000000000000000000000000000000000000000000000040000000000000000000000000000000000000000000080000000000000000000000000000000000000000000000000000000000000000000000000000000000000000000000000000000000000000000000000000000000000020000000000000000000000000000000000000000000000000000000000000000000000000000000000000000000000010100000000000000000080020000000000000000080000000000000000000000000000000000040000000000000000000000000000000000000000000000000800000000000000000000000000400",
      "type": "0x2",
      "transactionHash": "0xa9dfef199dc9b8812d1e1f86f4128e18fd991e81cce22c584831db60b4b99a93",
      "transactionIndex": "0x4",
      "blockHash": "0xd80dd337a7ba99242ac237816675631ac32e6bd7de26de8f6cf2fc1e218bdc6e",
      "blockNumber": "0x696a2a",
      "gasUsed": "0xbaca",
      "effectiveGasPrice": "0x3cc2f16",
      "blobGasPrice": "0x1",
      "from": "0x14137c968b4bcb48b2a244dcbb80c237a7af91b5",
      "to": "0x000000000022d473030f116ddee9f6b43ac78ba3",
      "contractAddress": null
    },
    {
      "status": "0x1",
      "cumulativeGasUsed": "0x8299f",
      "logs": [
        {
          "address": "0x8c4bcbe6b9ef47855f97e675296fa3f6fafa5f1a",
          "topics": [
            "0xf208f4912782fd25c7f114ca3723a2d5dd6f3bcc3ac8db5af63baa85f711d5ec",
            "0x33c20c57f373b411c6576a786da0fc55c8bb2623a6a27e707c399d072755564c",
            "0x000000000000000000000000496cd7097f0bdd32774da3d2f1ef0adf430b7e81"
          ],
          "data": "0xfffffffffffffffffffffffffffffffffffffffffffffffffffffffffff2764c00000000000000000000000000000000000000000000000000000000000d89b400000000000000000000000000000000000000000000000000000000009896800000000000000000000000000000000000000000000000000000000000000000",
          "blockHash": "0xd80dd337a7ba99242ac237816675631ac32e6bd7de26de8f6cf2fc1e218bdc6e",
          "blockNumber": "0x696a2a",
          "blockTimestamp": "0x671494f7",
          "transactionHash": "0x311e55991b69acb152cbb717c197ff65e14414d2b3edb635e31013a2d6b3d562",
          "transactionIndex": "0x5",
          "logIndex": "0x5",
          "removed": false
        },
        {
          "address": "0x64fd57525346daa1b32651b69acb1781ada451cd",
          "topics": [
            "0xddf252ad1be2c89b69c2b068fc378daa952ba7f163c4a11628f55a4df523b3ef",
            "0x00000000000000000000000014137c968b4bcb48b2a244dcbb80c237a7af91b5",
            "0x0000000000000000000000008c4bcbe6b9ef47855f97e675296fa3f6fafa5f1a"
          ],
          "data": "0x0000000000000000000000000000000000000000000000000000000000989680",
          "blockHash": "0xd80dd337a7ba99242ac237816675631ac32e6bd7de26de8f6cf2fc1e218bdc6e",
          "blockNumber": "0x696a2a",
          "blockTimestamp": "0x671494f7",
          "transactionHash": "0x311e55991b69acb152cbb717c197ff65e14414d2b3edb635e31013a2d6b3d562",
          "transactionIndex": "0x5",
          "logIndex": "0x6",
          "removed": false
        },
        {
          "address": "0x88541670e55cc00beefd87eb59edd1b7c511ac9a",
          "topics": [
            "0xddf252ad1be2c89b69c2b068fc378daa952ba7f163c4a11628f55a4df523b3ef",
            "0x00000000000000000000000014137c968b4bcb48b2a244dcbb80c237a7af91b5",
            "0x0000000000000000000000008c4bcbe6b9ef47855f97e675296fa3f6fafa5f1a"
          ],
          "data": "0x0000000000000000000000000000000000000000000000000000000000989680",
          "blockHash": "0xd80dd337a7ba99242ac237816675631ac32e6bd7de26de8f6cf2fc1e218bdc6e",
          "blockNumber": "0x696a2a",
          "blockTimestamp": "0x671494f7",
          "transactionHash": "0x311e55991b69acb152cbb717c197ff65e14414d2b3edb635e31013a2d6b3d562",
          "transactionIndex": "0x5",
          "logIndex": "0x7",
          "removed": false
        },
        {
          "address": "0x88541670e55cc00beefd87eb59edd1b7c511ac9a",
          "topics": [
            "0x8c5be1e5ebec7d5bd14f71427d1e84f3dd0314c0f7b2291e5b200ac8c7c3b925",
            "0x00000000000000000000000014137c968b4bcb48b2a244dcbb80c237a7af91b5",
            "0x000000000000000000000000496cd7097f0bdd32774da3d2f1ef0adf430b7e81"
          ],
          "data": "0xffffffffffffffffffffffffffffffffffffffffffffffffffffffffff67697f",
          "blockHash": "0xd80dd337a7ba99242ac237816675631ac32e6bd7de26de8f6cf2fc1e218bdc6e",
          "blockNumber": "0x696a2a",
          "blockTimestamp": "0x671494f7",
          "transactionHash": "0x311e55991b69acb152cbb717c197ff65e14414d2b3edb635e31013a2d6b3d562",
          "transactionIndex": "0x5",
          "logIndex": "0x8",
          "removed": false
        }
      ],
      "logsBloom": "0x00400000000000040000000000000000000000100000000000000000000000000000000000000000002000002000000000000000000000000000000000200200800000000000000000000008000000100001000000000000000800000000000000000000000000100000000000000000000000000000000000000010000000000000000001000000100000000000010000000000000008000000000000000000020004000000000000000000000000000000100000000000000000000000000000000002000080000000000000800000000020000000008000000000000080000010000000000000000000000000000004000000000000000000000000200000",
      "type": "0x2",
      "transactionHash": "0x311e55991b69acb152cbb717c197ff65e14414d2b3edb635e31013a2d6b3d562",
      "transactionIndex": "0x5",
      "blockHash": "0xd80dd337a7ba99242ac237816675631ac32e6bd7de26de8f6cf2fc1e218bdc6e",
      "blockNumber": "0x696a2a",
      "gasUsed": "0x49400",
      "effectiveGasPrice": "0x3cc2f16",
      "blobGasPrice": "0x1",
      "from": "0x14137c968b4bcb48b2a244dcbb80c237a7af91b5",
      "to": "0x496cd7097f0bdd32774da3d2f1ef0adf430b7e81",
      "contractAddress": null
    },
    {
      "status": "0x1",
      "cumulativeGasUsed": "0x4ccee",
      "logs": [
        {
          "address": "0x1b1c77b606d13b09c84d1c7394b96b147bc03147",
          "topics": [
            "0xddf252ad1be2c89b69c2b068fc378daa952ba7f163c4a11628f55a4df523b3ef",
            "0x0000000000000000000000000000000000000000000000000000000000000000",
            "0x00000000000000000000000014137c968b4bcb48b2a244dcbb80c237a7af91b5",
            "0x0000000000000000000000000000000000000000000000000000000000000002"
          ],
          "data": "0x",
          "blockHash": "0x1a7571a1f43b3b1adaa9b69e5e66b6bbd980056cf9c18a838ba4db702d7fc41a",
          "blockNumber": "0x696a2b",
          "blockTimestamp": "0x671494f8",
          "transactionHash": "0xd7369e1f56ed585284cfcc7fce21f9fb3110ab83f713ab14960090ddcfa3dd20",
          "transactionIndex": "0x0",
          "logIndex": "0x0",
          "removed": false
        },
        {
          "address": "0x8c4bcbe6b9ef47855f97e675296fa3f6fafa5f1a",
          "topics": [
            "0xf208f4912782fd25c7f114ca3723a2d5dd6f3bcc3ac8db5af63baa85f711d5ec",
            "0x33c20c57f373b411c6576a786da0fc55c8bb2623a6a27e707c399d072755564c",
            "0x0000000000000000000000001b1c77b606d13b09c84d1c7394b96b147bc03147"
          ],
          "data": "0xfffffffffffffffffffffffffffffffffffffffffffffffffffffffffff2764c00000000000000000000000000000000000000000000000000000000000d89b400000000000000000000000000000000000000000000000000000000009896800000000000000000000000000000000000000000000000000000000000000002",
          "blockHash": "0x1a7571a1f43b3b1adaa9b69e5e66b6bbd980056cf9c18a838ba4db702d7fc41a",
          "blockNumber": "0x696a2b",
          "blockTimestamp": "0x671494f8",
          "transactionHash": "0xd7369e1f56ed585284cfcc7fce21f9fb3110ab83f713ab14960090ddcfa3dd20",
          "transactionIndex": "0x0",
          "logIndex": "0x1",
          "removed": false
        },
        {
          "address": "0x64fd57525346daa1b32651b69acb1781ada451cd",
          "topics": [
            "0xddf252ad1be2c89b69c2b068fc378daa952ba7f163c4a11628f55a4df523b3ef",
            "0x00000000000000000000000014137c968b4bcb48b2a244dcbb80c237a7af91b5",
            "0x0000000000000000000000008c4bcbe6b9ef47855f97e675296fa3f6fafa5f1a"
          ],
          "data": "0x0000000000000000000000000000000000000000000000000000000000989680",
          "blockHash": "0x1a7571a1f43b3b1adaa9b69e5e66b6bbd980056cf9c18a838ba4db702d7fc41a",
          "blockNumber": "0x696a2b",
          "blockTimestamp": "0x671494f8",
          "transactionHash": "0xd7369e1f56ed585284cfcc7fce21f9fb3110ab83f713ab14960090ddcfa3dd20",
          "transactionIndex": "0x0",
          "logIndex": "0x2",
          "removed": false
        },
        {
          "address": "0x88541670e55cc00beefd87eb59edd1b7c511ac9a",
          "topics": [
            "0xddf252ad1be2c89b69c2b068fc378daa952ba7f163c4a11628f55a4df523b3ef",
            "0x00000000000000000000000014137c968b4bcb48b2a244dcbb80c237a7af91b5",
            "0x0000000000000000000000008c4bcbe6b9ef47855f97e675296fa3f6fafa5f1a"
          ],
          "data": "0x0000000000000000000000000000000000000000000000000000000000989680",
          "blockHash": "0x1a7571a1f43b3b1adaa9b69e5e66b6bbd980056cf9c18a838ba4db702d7fc41a",
          "blockNumber": "0x696a2b",
          "blockTimestamp": "0x671494f8",
          "transactionHash": "0xd7369e1f56ed585284cfcc7fce21f9fb3110ab83f713ab14960090ddcfa3dd20",
          "transactionIndex": "0x0",
          "logIndex": "0x3",
          "removed": false
        },
        {
          "address": "0x88541670e55cc00beefd87eb59edd1b7c511ac9a",
          "topics": [
            "0x8c5be1e5ebec7d5bd14f71427d1e84f3dd0314c0f7b2291e5b200ac8c7c3b925",
            "0x00000000000000000000000014137c968b4bcb48b2a244dcbb80c237a7af91b5",
            "0x000000000000000000000000000000000022d473030f116ddee9f6b43ac78ba3"
          ],
          "data": "0xffffffffffffffffffffffffffffffffffffffffffffffffffffffffff67697f",
          "blockHash": "0x1a7571a1f43b3b1adaa9b69e5e66b6bbd980056cf9c18a838ba4db702d7fc41a",
          "blockNumber": "0x696a2b",
          "blockTimestamp": "0x671494f8",
          "transactionHash": "0xd7369e1f56ed585284cfcc7fce21f9fb3110ab83f713ab14960090ddcfa3dd20",
          "transactionIndex": "0x0",
          "logIndex": "0x4",
          "removed": false
        }
      ],
      "logsBloom": "0x044000000000000400000000000000000000001000000000000000000000000800000000000000400020000020000000000000008000000000000000002002008000000000000000000040080000001000000000000008000008000000000000000000000200001000000000010008000000000000000000000000100000000000000000010000001000000000000100000000000000000000000000000000000200040000000000000001000000000000001000000000000000000000200000000000020000800000000000008000000040200000000000000000000000a0000010000000000000000000000000000004800000008000000000000000200000",
      "type": "0x2",
      "transactionHash": "0xd7369e1f56ed585284cfcc7fce21f9fb3110ab83f713ab14960090ddcfa3dd20",
      "transactionIndex": "0x0",
      "blockHash": "0x1a7571a1f43b3b1adaa9b69e5e66b6bbd980056cf9c18a838ba4db702d7fc41a",
      "blockNumber": "0x696a2b",
      "gasUsed": "0x4ccee",
      "effectiveGasPrice": "0x358f4dd",
      "blobGasPrice": "0x1",
      "from": "0x14137c968b4bcb48b2a244dcbb80c237a7af91b5",
      "to": "0x1b1c77b606d13b09c84d1c7394b96b147bc03147",
      "contractAddress": null
    },
    {
      "status": "0x1",
      "cumulativeGasUsed": "0x1bbd2",
      "logs": [
        {
          "address": "0xdd6d76262fd7bdde428dcfcd94386ebae0151603",
          "topics": [
            "0x75d30ca40c7bcd48e685894b82b864808b9cb566090efc53444a2e61742f18a3",
            "0x0000000000000000000000000dcc19657007713483a5ca76e6a7bbe5f56ea37d",
            "0x000000000000000000000000bd4edcbb3561252eb9a8c7d32a2faa3425778088"
          ],
          "data": "0x",
          "blockHash": "0x4cfb3662d96cfd928d018830c2d042e294e05fdd4ee92d8c0b6dc8021bbe291c",
          "blockNumber": "0x696a2c",
          "blockTimestamp": "0x671494f9",
          "transactionHash": "0xaa86e6ed4d2f38c91ea9c81444f5bf5b51c0c6d6617999f1864edfe96c0baa18",
          "transactionIndex": "0x0",
          "logIndex": "0x0",
          "removed": false
        },
        {
          "address": "0x0dcc19657007713483a5ca76e6a7bbe5f56ea37d",
          "topics": [
            "0x3b6e7e6ff858d016edf22112c8596ecf8f0a55591a3b84c35b993e0de85a0c84",
            "0x000000000000000000000000bd4edcbb3561252eb9a8c7d32a2faa3425778088",
            "0x000000000000000000000000dd6d76262fd7bdde428dcfcd94386ebae0151603",
            "0x000000000000000000000000bd4edcbb3561252eb9a8c7d32a2faa3425778088"
          ],
          "data": "0x",
          "blockHash": "0x4cfb3662d96cfd928d018830c2d042e294e05fdd4ee92d8c0b6dc8021bbe291c",
          "blockNumber": "0x696a2c",
          "blockTimestamp": "0x671494f9",
          "transactionHash": "0xaa86e6ed4d2f38c91ea9c81444f5bf5b51c0c6d6617999f1864edfe96c0baa18",
          "transactionIndex": "0x0",
          "logIndex": "0x1",
          "removed": false
        }
      ],
      "logsBloom": "0x00000000000008000000200000040000000000000000000000000000000000000000000000000000020000000000000000800000000000000000000000000000000000000000000000020000000000000000000020000000000000000000000000000080000000000000000000000000000000000000000000000000000000000001200000000000000000000000000000000000000000000000000000008000000000000080000000000000020000000000000000001000000000080000000000000000000000000000000002000000000000000002000000000000000040000000000000000000000000000000000080000040000000000200000000000000",
      "type": "0x2",
      "transactionHash": "0xaa86e6ed4d2f38c91ea9c81444f5bf5b51c0c6d6617999f1864edfe96c0baa18",
      "transactionIndex": "0x0",
      "blockHash": "0x4cfb3662d96cfd928d018830c2d042e294e05fdd4ee92d8c0b6dc8021bbe291c",
      "blockNumber": "0x696a2c",
      "gasUsed": "0x1bbd2",
      "effectiveGasPrice": "0x2f21341",
      "blobGasPrice": "0x1",
      "from": "0x14137c968b4bcb48b2a244dcbb80c237a7af91b5",
      "to": "0xbd4edcbb3561252eb9a8c7d32a2faa3425778088",
      "contractAddress": null
    },
    {
      "status": "0x1",
      "cumulativeGasUsed": "0x28f35",
      "logs": [
        {
          "address": "0xbd4edcbb3561252eb9a8c7d32a2faa3425778088",
          "topics": [
            "0xf347ee99503bf19c028bd6b18f3c676e82a9bb5b2bb5225aebe0fd62fd6a0d19"
          ],
          "data": "0x00000000000000000000000000000000000000000000008f4b281132460a0000",
          "blockHash": "0xde6a7172450b9f80687c5153a0523c5fbdb9f634d6d5fd2dd3646f51707dbfb5",
          "blockNumber": "0x696a2d",
          "blockTimestamp": "0x671494fa",
          "transactionHash": "0x87a93d12ad4b0f732ffa2ff653b9a8908509aad05239cf130e59ee481bb4e37f",
          "transactionIndex": "0x0",
          "logIndex": "0x0",
          "removed": false
        },
        {
          "address": "0x8c4bcbe6b9ef47855f97e675296fa3f6fafa5f1a",
          "topics": [
            "0x40e9cecb9f5f1f1c5b9c97dec2917b7ee92e57ba5563708daca94dd84ad7112f",
            "0x33c20c57f373b411c6576a786da0fc55c8bb2623a6a27e707c399d072755564c",
            "0x000000000000000000000000e49d2815c231826cab58017e214bed19fe1c2dd4"
          ],
          "data": "0xffffffffffffffffffffffffffffffffffffffffffffffffffffffffff67698000000000000000000000000000000000000000000000000000000000006585870000000000000000000000000000000000000000aad666ac6002bbc01b5581120000000000000000000000000000000000000000000000000000000001312d00ffffffffffffffffffffffffffffffffffffffffffffffffffffffffffffe0660000000000000000000000000000000000000000000000000000000000000bb8",
          "blockHash": "0xde6a7172450b9f80687c5153a0523c5fbdb9f634d6d5fd2dd3646f51707dbfb5",
          "blockNumber": "0x696a2d",
          "blockTimestamp": "0x671494fa",
          "transactionHash": "0x87a93d12ad4b0f732ffa2ff653b9a8908509aad05239cf130e59ee481bb4e37f",
          "transactionIndex": "0x0",
          "logIndex": "0x1",
          "removed": false
        },
        {
          "address": "0x64fd57525346daa1b32651b69acb1781ada451cd",
          "topics": [
            "0xddf252ad1be2c89b69c2b068fc378daa952ba7f163c4a11628f55a4df523b3ef",
            "0x00000000000000000000000014137c968b4bcb48b2a244dcbb80c237a7af91b5",
            "0x0000000000000000000000008c4bcbe6b9ef47855f97e675296fa3f6fafa5f1a"
          ],
          "data": "0x0000000000000000000000000000000000000000000000000000000000989680",
          "blockHash": "0xde6a7172450b9f80687c5153a0523c5fbdb9f634d6d5fd2dd3646f51707dbfb5",
          "blockNumber": "0x696a2d",
          "blockTimestamp": "0x671494fa",
          "transactionHash": "0x87a93d12ad4b0f732ffa2ff653b9a8908509aad05239cf130e59ee481bb4e37f",
          "transactionIndex": "0x0",
          "logIndex": "0x2",
          "removed": false
        },
        {
          "address": "0x88541670e55cc00beefd87eb59edd1b7c511ac9a",
          "topics": [
            "0xddf252ad1be2c89b69c2b068fc378daa952ba7f163c4a11628f55a4df523b3ef",
            "0x0000000000000000000000008c4bcbe6b9ef47855f97e675296fa3f6fafa5f1a",
            "0x00000000000000000000000014137c968b4bcb48b2a244dcbb80c237a7af91b5"
          ],
          "data": "0x0000000000000000000000000000000000000000000000000000000000658587",
          "blockHash": "0xde6a7172450b9f80687c5153a0523c5fbdb9f634d6d5fd2dd3646f51707dbfb5",
          "blockNumber": "0x696a2d",
          "blockTimestamp": "0x671494fa",
          "transactionHash": "0x87a93d12ad4b0f732ffa2ff653b9a8908509aad05239cf130e59ee481bb4e37f",
          "transactionIndex": "0x0",
          "logIndex": "0x3",
          "removed": false
        }
      ],
      "logsBloom": "0x00400000000000040000000000000000000000100000000000000000000000000000000000000000002000002000000000000000040000000000000000000200800800000000000000000008000000100000000000000020000800000000000000000000000000100000000000000000000000000000000000000010000000000000000000000000100000000000010000000000000000002800004000000000000000000000000000000000000000400000100000000000000000000000000000000002000080000000200000800000000020000000000000000000000080000000000000000000004000000000000000000000000000000080400100200000",
      "type": "0x2",
      "transactionHash": "0x87a93d12ad4b0f732ffa2ff653b9a8908509aad05239cf130e59ee481bb4e37f",
      "transactionIndex": "0x0",
      "blockHash": "0xde6a7172450b9f80687c5153a0523c5fbdb9f634d6d5fd2dd3646f51707dbfb5",
      "blockNumber": "0x696a2d",
      "gasUsed": "0x28f35",
      "effectiveGasPrice": "0x2968c72",
      "blobGasPrice": "0x1",
      "from": "0x14137c968b4bcb48b2a244dcbb80c237a7af91b5",
      "to": "0xe49d2815c231826cab58017e214bed19fe1c2dd4",
      "contractAddress": null
    }
  ],
  "libraries": [],
  "pending": [],
  "returns": {},
  "timestamp": 1729402107,
  "chain": 11155111,
  "commit": "c45fc46"
}